{
	"web/DAppVoting.sol": {
		"Voting": {
			"abi": [
				{
					"inputs": [],
					"stateMutability": "nonpayable",
					"type": "constructor"
				},
				{
					"anonymous": false,
					"inputs": [
						{
							"indexed": true,
							"internalType": "address",
							"name": "voter",
							"type": "address"
						},
						{
							"indexed": false,
							"internalType": "uint256",
							"name": "proposalIndex",
							"type": "uint256"
						}
					],
					"name": "VoteCast",
					"type": "event"
				},
				{
					"anonymous": false,
					"inputs": [
						{
							"indexed": false,
							"internalType": "string",
							"name": "winnerName",
							"type": "string"
						}
					],
					"name": "winner",
					"type": "event"
				},
				{
					"inputs": [
						{
							"internalType": "address",
							"name": "newOwner",
							"type": "address"
						}
					],
					"name": "changeOwner",
					"outputs": [],
					"stateMutability": "nonpayable",
					"type": "function"
				},
				{
					"inputs": [],
					"name": "declareWinner",
					"outputs": [
						{
							"internalType": "string",
							"name": "winnerName",
							"type": "string"
						}
					],
					"stateMutability": "nonpayable",
					"type": "function"
				},
				{
					"inputs": [],
					"name": "destroyContract",
					"outputs": [
						{
							"internalType": "bool",
							"name": "",
							"type": "bool"
						}
					],
					"stateMutability": "nonpayable",
					"type": "function"
				},
				{
					"inputs": [],
					"name": "getRecentResults",
					"outputs": [
						{
							"internalType": "uint256[]",
							"name": "",
							"type": "uint256[]"
						},
						{
							"internalType": "string[]",
							"name": "",
							"type": "string[]"
						},
						{
							"internalType": "uint256[]",
							"name": "",
							"type": "uint256[]"
						}
					],
					"stateMutability": "view",
					"type": "function"
				},
				{
					"inputs": [
						{
							"internalType": "address",
							"name": "user",
							"type": "address"
						}
					],
					"name": "getUserVotes",
					"outputs": [
						{
							"internalType": "uint256",
							"name": "",
							"type": "uint256"
						}
					],
					"stateMutability": "view",
					"type": "function"
				},
				{
					"inputs": [
						{
							"internalType": "uint256",
							"name": "proposalIndex",
							"type": "uint256"
						}
					],
					"name": "getVoteCount",
					"outputs": [
						{
							"internalType": "uint256",
							"name": "",
							"type": "uint256"
						}
					],
					"stateMutability": "view",
					"type": "function"
				},
				{
					"inputs": [],
					"name": "isDestroyed",
					"outputs": [
						{
							"internalType": "bool",
							"name": "",
							"type": "bool"
						}
					],
					"stateMutability": "view",
					"type": "function"
				},
				{
					"inputs": [],
					"name": "projectManager",
					"outputs": [
						{
							"internalType": "address",
							"name": "",
							"type": "address"
						}
					],
					"stateMutability": "view",
					"type": "function"
				},
				{
					"inputs": [
						{
							"internalType": "uint256",
							"name": "",
							"type": "uint256"
						}
					],
					"name": "proposals",
					"outputs": [
						{
							"internalType": "string",
							"name": "name",
							"type": "string"
						},
						{
							"internalType": "uint256",
							"name": "voteCount",
							"type": "uint256"
						}
					],
					"stateMutability": "view",
					"type": "function"
				},
				{
					"inputs": [],
					"name": "resetVote",
					"outputs": [],
					"stateMutability": "nonpayable",
					"type": "function"
				},
				{
					"inputs": [
						{
							"internalType": "uint256",
							"name": "proposalIndex",
							"type": "uint256"
						}
					],
					"name": "vote",
					"outputs": [],
					"stateMutability": "payable",
					"type": "function"
				},
				{
					"inputs": [
						{
							"internalType": "uint256",
							"name": "",
							"type": "uint256"
						}
					],
					"name": "voters",
					"outputs": [
						{
							"internalType": "address",
							"name": "",
							"type": "address"
						}
					],
					"stateMutability": "view",
					"type": "function"
				},
				{
					"inputs": [
						{
							"internalType": "address",
							"name": "",
							"type": "address"
						}
					],
					"name": "votesPerVoter",
					"outputs": [
						{
							"internalType": "uint256",
							"name": "",
							"type": "uint256"
						}
					],
					"stateMutability": "view",
					"type": "function"
				},
				{
					"inputs": [],
					"name": "votingClosed",
					"outputs": [
						{
							"internalType": "bool",
							"name": "",
							"type": "bool"
						}
					],
					"stateMutability": "view",
					"type": "function"
				},
				{
					"inputs": [],
					"name": "votingOpen",
					"outputs": [
						{
							"internalType": "bool",
							"name": "",
							"type": "bool"
						}
					],
					"stateMutability": "view",
					"type": "function"
				},
				{
					"inputs": [
						{
							"internalType": "uint256",
							"name": "",
							"type": "uint256"
						}
					],
					"name": "votingRounds",
					"outputs": [
						{
							"internalType": "uint256",
							"name": "roundNumber",
							"type": "uint256"
						},
						{
							"internalType": "string",
							"name": "winnerName",
							"type": "string"
						},
						{
							"internalType": "uint256",
							"name": "winningVoteCount",
							"type": "uint256"
						}
					],
					"stateMutability": "view",
					"type": "function"
				},
				{
					"inputs": [],
					"name": "withdraw",
					"outputs": [],
					"stateMutability": "nonpayable",
					"type": "function"
				}
			],
			"devdoc": {
				"kind": "dev",
				"methods": {},
				"version": 1
			},
			"evm": {
				"assembly": "    /* \"web/DAppVoting.sol\":60:5794  contract Voting {... */\n  mstore(0x40, 0x80)\n    /* \"web/DAppVoting.sol\":1252:1510  constructor() {... */\n  callvalue\n  dup1\n  iszero\n  tag_1\n  jumpi\n  0x00\n  dup1\n  revert\ntag_1:\n  pop\n    /* \"web/DAppVoting.sol\":1294:1304  msg.sender */\n  caller\n    /* \"web/DAppVoting.sol\":1277:1291  projectManager */\n  0x00\n  dup1\n    /* \"web/DAppVoting.sol\":1277:1304  projectManager = msg.sender */\n  0x0100\n  exp\n  dup2\n  sload\n  dup2\n  0xffffffffffffffffffffffffffffffffffffffff\n  mul\n  not\n  and\n  swap1\n  dup4\n  0xffffffffffffffffffffffffffffffffffffffff\n  and\n  mul\n  or\n  swap1\n  sstore\n  pop\n    /* \"web/DAppVoting.sol\":1315:1324  proposals */\n  0x01\n    /* \"web/DAppVoting.sol\":1330:1349  Proposal(\"Elon\", 0) */\n  mload(0x40)\n  dup1\n  0x40\n  add\n  0x40\n  mstore\n  dup1\n  mload(0x40)\n  dup1\n  0x40\n  add\n  0x40\n  mstore\n  dup1\n  0x04\n  dup2\n  mstore\n  0x20\n  add\n  0x456c6f6e00000000000000000000000000000000000000000000000000000000\n  dup2\n  mstore\n  pop\n  dup2\n  mstore\n  0x20\n  add\n    /* \"web/DAppVoting.sol\":1347:1348  0 */\n  0x00\n    /* \"web/DAppVoting.sol\":1330:1349  Proposal(\"Elon\", 0) */\n  dup2\n  mstore\n  pop\n    /* \"web/DAppVoting.sol\":1315:1350  proposals.push(Proposal(\"Elon\", 0)) */\n  swap1\n  dup1\n  0x01\n  dup2\n  sload\n  add\n  dup1\n  dup3\n  sstore\n  dup1\n  swap2\n  pop\n  pop\n  0x01\n  swap1\n  sub\n  swap1\n  0x00\n  mstore\n  keccak256(0x00, 0x20)\n  swap1\n  0x02\n  mul\n  add\n  0x00\n  swap1\n  swap2\n  swap1\n  swap2\n  swap1\n  swap2\n  pop\n  0x00\n  dup3\n  add\n  mload\n  dup2\n  0x00\n  add\n  swap1\n  dup2\n  tag_5\n  swap2\n  swap1\n  tag_6\n  jump\t// in\ntag_5:\n  pop\n  0x20\n  dup3\n  add\n  mload\n  dup2\n  0x01\n  add\n  sstore\n  pop\n  pop\n    /* \"web/DAppVoting.sol\":1361:1370  proposals */\n  0x01\n    /* \"web/DAppVoting.sol\":1376:1395  Proposal(\"Mark\", 0) */\n  mload(0x40)\n  dup1\n  0x40\n  add\n  0x40\n  mstore\n  dup1\n  mload(0x40)\n  dup1\n  0x40\n  add\n  0x40\n  mstore\n  dup1\n  0x04\n  dup2\n  mstore\n  0x20\n  add\n  0x4d61726b00000000000000000000000000000000000000000000000000000000\n  dup2\n  mstore\n  pop\n  dup2\n  mstore\n  0x20\n  add\n    /* \"web/DAppVoting.sol\":1393:1394  0 */\n  0x00\n    /* \"web/DAppVoting.sol\":1376:1395  Proposal(\"Mark\", 0) */\n  dup2\n  mstore\n  pop\n    /* \"web/DAppVoting.sol\":1361:1396  proposals.push(Proposal(\"Mark\", 0)) */\n  swap1\n  dup1\n  0x01\n  dup2\n  sload\n  add\n  dup1\n  dup3\n  sstore\n  dup1\n  swap2\n  pop\n  pop\n  0x01\n  swap1\n  sub\n  swap1\n  0x00\n  mstore\n  keccak256(0x00, 0x20)\n  swap1\n  0x02\n  mul\n  add\n  0x00\n  swap1\n  swap2\n  swap1\n  swap2\n  swap1\n  swap2\n  pop\n  0x00\n  dup3\n  add\n  mload\n  dup2\n  0x00\n  add\n  swap1\n  dup2\n  tag_8\n  swap2\n  swap1\n  tag_6\n  jump\t// in\ntag_8:\n  pop\n  0x20\n  dup3\n  add\n  mload\n  dup2\n  0x01\n  add\n  sstore\n  pop\n  pop\n    /* \"web/DAppVoting.sol\":1407:1416  proposals */\n  0x01\n    /* \"web/DAppVoting.sol\":1422:1440  Proposal(\"Sam\", 0) */\n  mload(0x40)\n  dup1\n  0x40\n  add\n  0x40\n  mstore\n  dup1\n  mload(0x40)\n  dup1\n  0x40\n  add\n  0x40\n  mstore\n  dup1\n  0x03\n  dup2\n  mstore\n  0x20\n  add\n  0x53616d0000000000000000000000000000000000000000000000000000000000\n  dup2\n  mstore\n  pop\n  dup2\n  mstore\n  0x20\n  add\n    /* \"web/DAppVoting.sol\":1438:1439  0 */\n  0x00\n    /* \"web/DAppVoting.sol\":1422:1440  Proposal(\"Sam\", 0) */\n  dup2\n  mstore\n  pop\n    /* \"web/DAppVoting.sol\":1407:1441  proposals.push(Proposal(\"Sam\", 0)) */\n  swap1\n  dup1\n  0x01\n  dup2\n  sload\n  add\n  dup1\n  dup3\n  sstore\n  dup1\n  swap2\n  pop\n  pop\n  0x01\n  swap1\n  sub\n  swap1\n  0x00\n  mstore\n  keccak256(0x00, 0x20)\n  swap1\n  0x02\n  mul\n  add\n  0x00\n  swap1\n  swap2\n  swap1\n  swap2\n  swap1\n  swap2\n  pop\n  0x00\n  dup3\n  add\n  mload\n  dup2\n  0x00\n  add\n  swap1\n  dup2\n  tag_10\n  swap2\n  swap1\n  tag_6\n  jump\t// in\ntag_10:\n  pop\n  0x20\n  dup3\n  add\n  mload\n  dup2\n  0x01\n  add\n  sstore\n  pop\n  pop\n    /* \"web/DAppVoting.sol\":1467:1472  false */\n  0x00\n    /* \"web/DAppVoting.sol\":1452:1464  votingClosed */\n  dup1\n  0x14\n    /* \"web/DAppVoting.sol\":1452:1472  votingClosed = false */\n  0x0100\n  exp\n  dup2\n  sload\n  dup2\n  0xff\n  mul\n  not\n  and\n  swap1\n  dup4\n  iszero\n  iszero\n  mul\n  or\n  swap1\n  sstore\n  pop\n    /* \"web/DAppVoting.sol\":1497:1502  false */\n  0x00\n    /* \"web/DAppVoting.sol\":1483:1494  isDestroyed */\n  dup1\n  0x15\n    /* \"web/DAppVoting.sol\":1483:1502  isDestroyed = false */\n  0x0100\n  exp\n  dup2\n  sload\n  dup2\n  0xff\n  mul\n  not\n  and\n  swap1\n  dup4\n  iszero\n  iszero\n  mul\n  or\n  swap1\n  sstore\n  pop\n    /* \"web/DAppVoting.sol\":60:5794  contract Voting {... */\n  jump(tag_11)\n    /* \"#utility.yul\":7:106   */\ntag_12:\n    /* \"#utility.yul\":59:65   */\n  0x00\n    /* \"#utility.yul\":93:98   */\n  dup2\n    /* \"#utility.yul\":87:99   */\n  mload\n    /* \"#utility.yul\":77:99   */\n  swap1\n  pop\n    /* \"#utility.yul\":7:106   */\n  swap2\n  swap1\n  pop\n  jump\t// out\n    /* \"#utility.yul\":112:292   */\ntag_13:\n    /* \"#utility.yul\":160:237   */\n  0x4e487b7100000000000000000000000000000000000000000000000000000000\n    /* \"#utility.yul\":157:158   */\n  0x00\n    /* \"#utility.yul\":150:238   */\n  mstore\n    /* \"#utility.yul\":257:261   */\n  0x41\n    /* \"#utility.yul\":254:255   */\n  0x04\n    /* \"#utility.yul\":247:262   */\n  mstore\n    /* \"#utility.yul\":281:285   */\n  0x24\n    /* \"#utility.yul\":278:279   */\n  0x00\n    /* \"#utility.yul\":271:286   */\n  revert\n    /* \"#utility.yul\":298:478   */\ntag_14:\n    /* \"#utility.yul\":346:423   */\n  0x4e487b7100000000000000000000000000000000000000000000000000000000\n    /* \"#utility.yul\":343:344   */\n  0x00\n    /* \"#utility.yul\":336:424   */\n  mstore\n    /* \"#utility.yul\":443:447   */\n  0x22\n    /* \"#utility.yul\":440:441   */\n  0x04\n    /* \"#utility.yul\":433:448   */\n  mstore\n    /* \"#utility.yul\":467:471   */\n  0x24\n    /* \"#utility.yul\":464:465   */\n  0x00\n    /* \"#utility.yul\":457:472   */\n  revert\n    /* \"#utility.yul\":484:804   */\ntag_15:\n    /* \"#utility.yul\":528:534   */\n  0x00\n    /* \"#utility.yul\":565:566   */\n  0x02\n    /* \"#utility.yul\":559:563   */\n  dup3\n    /* \"#utility.yul\":555:567   */\n  div\n    /* \"#utility.yul\":545:567   */\n  swap1\n  pop\n    /* \"#utility.yul\":612:613   */\n  0x01\n    /* \"#utility.yul\":606:610   */\n  dup3\n    /* \"#utility.yul\":602:614   */\n  and\n    /* \"#utility.yul\":633:651   */\n  dup1\n    /* \"#utility.yul\":623:704   */\n  tag_37\n  jumpi\n    /* \"#utility.yul\":689:693   */\n  0x7f\n    /* \"#utility.yul\":681:687   */\n  dup3\n    /* \"#utility.yul\":677:694   */\n  and\n    /* \"#utility.yul\":667:694   */\n  swap2\n  pop\n    /* \"#utility.yul\":623:704   */\ntag_37:\n    /* \"#utility.yul\":751:753   */\n  0x20\n    /* \"#utility.yul\":743:749   */\n  dup3\n    /* \"#utility.yul\":740:754   */\n  lt\n    /* \"#utility.yul\":720:738   */\n  dup2\n    /* \"#utility.yul\":717:755   */\n  sub\n    /* \"#utility.yul\":714:798   */\n  tag_38\n  jumpi\n    /* \"#utility.yul\":770:788   */\n  tag_39\n  tag_14\n  jump\t// in\ntag_39:\n    /* \"#utility.yul\":714:798   */\ntag_38:\n    /* \"#utility.yul\":535:804   */\n  pop\n    /* \"#utility.yul\":484:804   */\n  swap2\n  swap1\n  pop\n  jump\t// out\n    /* \"#utility.yul\":810:951   */\ntag_16:\n    /* \"#utility.yul\":859:863   */\n  0x00\n    /* \"#utility.yul\":882:885   */\n  dup2\n    /* \"#utility.yul\":874:885   */\n  swap1\n  pop\n    /* \"#utility.yul\":905:908   */\n  dup2\n    /* \"#utility.yul\":902:903   */\n  0x00\n    /* \"#utility.yul\":895:909   */\n  mstore\n    /* \"#utility.yul\":939:943   */\n  0x20\n    /* \"#utility.yul\":936:937   */\n  0x00\n    /* \"#utility.yul\":926:944   */\n  keccak256\n    /* \"#utility.yul\":918:944   */\n  swap1\n  pop\n    /* \"#utility.yul\":810:951   */\n  swap2\n  swap1\n  pop\n  jump\t// out\n    /* \"#utility.yul\":957:1050   */\ntag_17:\n    /* \"#utility.yul\":994:1000   */\n  0x00\n    /* \"#utility.yul\":1041:1043   */\n  0x20\n    /* \"#utility.yul\":1036:1038   */\n  0x1f\n    /* \"#utility.yul\":1029:1034   */\n  dup4\n    /* \"#utility.yul\":1025:1039   */\n  add\n    /* \"#utility.yul\":1021:1044   */\n  div\n    /* \"#utility.yul\":1011:1044   */\n  swap1\n  pop\n    /* \"#utility.yul\":957:1050   */\n  swap2\n  swap1\n  pop\n  jump\t// out\n    /* \"#utility.yul\":1056:1163   */\ntag_18:\n    /* \"#utility.yul\":1100:1108   */\n  0x00\n    /* \"#utility.yul\":1150:1155   */\n  dup3\n    /* \"#utility.yul\":1144:1148   */\n  dup3\n    /* \"#utility.yul\":1140:1156   */\n  shl\n    /* \"#utility.yul\":1119:1156   */\n  swap1\n  pop\n    /* \"#utility.yul\":1056:1163   */\n  swap3\n  swap2\n  pop\n  pop\n  jump\t// out\n    /* \"#utility.yul\":1169:1562   */\ntag_19:\n    /* \"#utility.yul\":1238:1244   */\n  0x00\n    /* \"#utility.yul\":1288:1289   */\n  0x08\n    /* \"#utility.yul\":1276:1286   */\n  dup4\n    /* \"#utility.yul\":1272:1290   */\n  mul\n    /* \"#utility.yul\":1311:1408   */\n  tag_44\n    /* \"#utility.yul\":1341:1407   */\n  0xffffffffffffffffffffffffffffffffffffffffffffffffffffffffffffffff\n    /* \"#utility.yul\":1330:1339   */\n  dup3\n    /* \"#utility.yul\":1311:1408   */\n  tag_18\n  jump\t// in\ntag_44:\n    /* \"#utility.yul\":1429:1468   */\n  tag_45\n    /* \"#utility.yul\":1459:1467   */\n  dup7\n    /* \"#utility.yul\":1448:1457   */\n  dup4\n    /* \"#utility.yul\":1429:1468   */\n  tag_18\n  jump\t// in\ntag_45:\n    /* \"#utility.yul\":1417:1468   */\n  swap6\n  pop\n    /* \"#utility.yul\":1501:1505   */\n  dup1\n    /* \"#utility.yul\":1497:1506   */\n  not\n    /* \"#utility.yul\":1490:1495   */\n  dup5\n    /* \"#utility.yul\":1486:1507   */\n  and\n    /* \"#utility.yul\":1477:1507   */\n  swap4\n  pop\n    /* \"#utility.yul\":1550:1554   */\n  dup1\n    /* \"#utility.yul\":1540:1548   */\n  dup7\n    /* \"#utility.yul\":1536:1555   */\n  and\n    /* \"#utility.yul\":1529:1534   */\n  dup5\n    /* \"#utility.yul\":1526:1556   */\n  or\n    /* \"#utility.yul\":1516:1556   */\n  swap3\n  pop\n    /* \"#utility.yul\":1245:1562   */\n  pop\n  pop\n    /* \"#utility.yul\":1169:1562   */\n  swap4\n  swap3\n  pop\n  pop\n  pop\n  jump\t// out\n    /* \"#utility.yul\":1568:1645   */\ntag_20:\n    /* \"#utility.yul\":1605:1612   */\n  0x00\n    /* \"#utility.yul\":1634:1639   */\n  dup2\n    /* \"#utility.yul\":1623:1639   */\n  swap1\n  pop\n    /* \"#utility.yul\":1568:1645   */\n  swap2\n  swap1\n  pop\n  jump\t// out\n    /* \"#utility.yul\":1651:1711   */\ntag_21:\n    /* \"#utility.yul\":1679:1682   */\n  0x00\n    /* \"#utility.yul\":1700:1705   */\n  dup2\n    /* \"#utility.yul\":1693:1705   */\n  swap1\n  pop\n    /* \"#utility.yul\":1651:1711   */\n  swap2\n  swap1\n  pop\n  jump\t// out\n    /* \"#utility.yul\":1717:1859   */\ntag_22:\n    /* \"#utility.yul\":1767:1776   */\n  0x00\n    /* \"#utility.yul\":1800:1853   */\n  tag_49\n    /* \"#utility.yul\":1818:1852   */\n  tag_50\n    /* \"#utility.yul\":1827:1851   */\n  tag_51\n    /* \"#utility.yul\":1845:1850   */\n  dup5\n    /* \"#utility.yul\":1827:1851   */\n  tag_20\n  jump\t// in\ntag_51:\n    /* \"#utility.yul\":1818:1852   */\n  tag_21\n  jump\t// in\ntag_50:\n    /* \"#utility.yul\":1800:1853   */\n  tag_20\n  jump\t// in\ntag_49:\n    /* \"#utility.yul\":1787:1853   */\n  swap1\n  pop\n    /* \"#utility.yul\":1717:1859   */\n  swap2\n  swap1\n  pop\n  jump\t// out\n    /* \"#utility.yul\":1865:1940   */\ntag_23:\n    /* \"#utility.yul\":1908:1911   */\n  0x00\n    /* \"#utility.yul\":1929:1934   */\n  dup2\n    /* \"#utility.yul\":1922:1934   */\n  swap1\n  pop\n    /* \"#utility.yul\":1865:1940   */\n  swap2\n  swap1\n  pop\n  jump\t// out\n    /* \"#utility.yul\":1946:2215   */\ntag_24:\n    /* \"#utility.yul\":2056:2095   */\n  tag_54\n    /* \"#utility.yul\":2087:2094   */\n  dup4\n    /* \"#utility.yul\":2056:2095   */\n  tag_22\n  jump\t// in\ntag_54:\n    /* \"#utility.yul\":2117:2208   */\n  tag_55\n    /* \"#utility.yul\":2166:2207   */\n  tag_56\n    /* \"#utility.yul\":2190:2206   */\n  dup3\n    /* \"#utility.yul\":2166:2207   */\n  tag_23\n  jump\t// in\ntag_56:\n    /* \"#utility.yul\":2158:2164   */\n  dup5\n    /* \"#utility.yul\":2151:2155   */\n  dup5\n    /* \"#utility.yul\":2145:2156   */\n  sload\n    /* \"#utility.yul\":2117:2208   */\n  tag_19\n  jump\t// in\ntag_55:\n    /* \"#utility.yul\":2111:2115   */\n  dup3\n    /* \"#utility.yul\":2104:2209   */\n  sstore\n    /* \"#utility.yul\":2022:2215   */\n  pop\n    /* \"#utility.yul\":1946:2215   */\n  pop\n  pop\n  pop\n  jump\t// out\n    /* \"#utility.yul\":2221:2294   */\ntag_25:\n    /* \"#utility.yul\":2266:2269   */\n  0x00\n    /* \"#utility.yul\":2221:2294   */\n  swap1\n  jump\t// out\n    /* \"#utility.yul\":2300:2489   */\ntag_26:\n    /* \"#utility.yul\":2377:2409   */\n  tag_59\n  tag_25\n  jump\t// in\ntag_59:\n    /* \"#utility.yul\":2418:2483   */\n  tag_60\n    /* \"#utility.yul\":2476:2482   */\n  dup2\n    /* \"#utility.yul\":2468:2474   */\n  dup5\n    /* \"#utility.yul\":2462:2466   */\n  dup5\n    /* \"#utility.yul\":2418:2483   */\n  tag_24\n  jump\t// in\ntag_60:\n    /* \"#utility.yul\":2353:2489   */\n  pop\n    /* \"#utility.yul\":2300:2489   */\n  pop\n  pop\n  jump\t// out\n    /* \"#utility.yul\":2495:2681   */\ntag_27:\n    /* \"#utility.yul\":2555:2675   */\ntag_62:\n    /* \"#utility.yul\":2572:2575   */\n  dup2\n    /* \"#utility.yul\":2565:2570   */\n  dup2\n    /* \"#utility.yul\":2562:2576   */\n  lt\n    /* \"#utility.yul\":2555:2675   */\n  iszero\n  tag_64\n  jumpi\n    /* \"#utility.yul\":2626:2665   */\n  tag_65\n    /* \"#utility.yul\":2663:2664   */\n  0x00\n    /* \"#utility.yul\":2656:2661   */\n  dup3\n    /* \"#utility.yul\":2626:2665   */\n  tag_26\n  jump\t// in\ntag_65:\n    /* \"#utility.yul\":2599:2600   */\n  0x01\n    /* \"#utility.yul\":2592:2597   */\n  dup2\n    /* \"#utility.yul\":2588:2601   */\n  add\n    /* \"#utility.yul\":2579:2601   */\n  swap1\n  pop\n    /* \"#utility.yul\":2555:2675   */\n  jump(tag_62)\ntag_64:\n    /* \"#utility.yul\":2495:2681   */\n  pop\n  pop\n  jump\t// out\n    /* \"#utility.yul\":2687:3230   */\ntag_28:\n    /* \"#utility.yul\":2788:2790   */\n  0x1f\n    /* \"#utility.yul\":2783:2786   */\n  dup3\n    /* \"#utility.yul\":2780:2791   */\n  gt\n    /* \"#utility.yul\":2777:3223   */\n  iszero\n  tag_67\n  jumpi\n    /* \"#utility.yul\":2822:2860   */\n  tag_68\n    /* \"#utility.yul\":2854:2859   */\n  dup2\n    /* \"#utility.yul\":2822:2860   */\n  tag_16\n  jump\t// in\ntag_68:\n    /* \"#utility.yul\":2906:2935   */\n  tag_69\n    /* \"#utility.yul\":2924:2934   */\n  dup5\n    /* \"#utility.yul\":2906:2935   */\n  tag_17\n  jump\t// in\ntag_69:\n    /* \"#utility.yul\":2896:2904   */\n  dup2\n    /* \"#utility.yul\":2892:2936   */\n  add\n    /* \"#utility.yul\":3089:3091   */\n  0x20\n    /* \"#utility.yul\":3077:3087   */\n  dup6\n    /* \"#utility.yul\":3074:3092   */\n  lt\n    /* \"#utility.yul\":3071:3120   */\n  iszero\n  tag_70\n  jumpi\n    /* \"#utility.yul\":3110:3118   */\n  dup2\n    /* \"#utility.yul\":3095:3118   */\n  swap1\n  pop\n    /* \"#utility.yul\":3071:3120   */\ntag_70:\n    /* \"#utility.yul\":3133:3213   */\n  tag_71\n    /* \"#utility.yul\":3189:3211   */\n  tag_72\n    /* \"#utility.yul\":3207:3210   */\n  dup6\n    /* \"#utility.yul\":3189:3211   */\n  tag_17\n  jump\t// in\ntag_72:\n    /* \"#utility.yul\":3179:3187   */\n  dup4\n    /* \"#utility.yul\":3175:3212   */\n  add\n    /* \"#utility.yul\":3162:3173   */\n  dup3\n    /* \"#utility.yul\":3133:3213   */\n  tag_27\n  jump\t// in\ntag_71:\n    /* \"#utility.yul\":2792:3223   */\n  pop\n  pop\n    /* \"#utility.yul\":2777:3223   */\ntag_67:\n    /* \"#utility.yul\":2687:3230   */\n  pop\n  pop\n  pop\n  jump\t// out\n    /* \"#utility.yul\":3236:3353   */\ntag_29:\n    /* \"#utility.yul\":3290:3298   */\n  0x00\n    /* \"#utility.yul\":3340:3345   */\n  dup3\n    /* \"#utility.yul\":3334:3338   */\n  dup3\n    /* \"#utility.yul\":3330:3346   */\n  shr\n    /* \"#utility.yul\":3309:3346   */\n  swap1\n  pop\n    /* \"#utility.yul\":3236:3353   */\n  swap3\n  swap2\n  pop\n  pop\n  jump\t// out\n    /* \"#utility.yul\":3359:3528   */\ntag_30:\n    /* \"#utility.yul\":3403:3409   */\n  0x00\n    /* \"#utility.yul\":3436:3487   */\n  tag_75\n    /* \"#utility.yul\":3484:3485   */\n  0x00\n    /* \"#utility.yul\":3480:3486   */\n  not\n    /* \"#utility.yul\":3472:3477   */\n  dup5\n    /* \"#utility.yul\":3469:3470   */\n  0x08\n    /* \"#utility.yul\":3465:3478   */\n  mul\n    /* \"#utility.yul\":3436:3487   */\n  tag_29\n  jump\t// in\ntag_75:\n    /* \"#utility.yul\":3432:3488   */\n  not\n    /* \"#utility.yul\":3517:3521   */\n  dup1\n    /* \"#utility.yul\":3511:3515   */\n  dup4\n    /* \"#utility.yul\":3507:3522   */\n  and\n    /* \"#utility.yul\":3497:3522   */\n  swap2\n  pop\n    /* \"#utility.yul\":3410:3528   */\n  pop\n    /* \"#utility.yul\":3359:3528   */\n  swap3\n  swap2\n  pop\n  pop\n  jump\t// out\n    /* \"#utility.yul\":3533:3828   */\ntag_31:\n    /* \"#utility.yul\":3609:3613   */\n  0x00\n    /* \"#utility.yul\":3755:3784   */\n  tag_77\n    /* \"#utility.yul\":3780:3783   */\n  dup4\n    /* \"#utility.yul\":3774:3778   */\n  dup4\n    /* \"#utility.yul\":3755:3784   */\n  tag_30\n  jump\t// in\ntag_77:\n    /* \"#utility.yul\":3747:3784   */\n  swap2\n  pop\n    /* \"#utility.yul\":3817:3820   */\n  dup3\n    /* \"#utility.yul\":3814:3815   */\n  0x02\n    /* \"#utility.yul\":3810:3821   */\n  mul\n    /* \"#utility.yul\":3804:3808   */\n  dup3\n    /* \"#utility.yul\":3801:3822   */\n  or\n    /* \"#utility.yul\":3793:3822   */\n  swap1\n  pop\n    /* \"#utility.yul\":3533:3828   */\n  swap3\n  swap2\n  pop\n  pop\n  jump\t// out\n    /* \"#utility.yul\":3833:5228   */\ntag_6:\n    /* \"#utility.yul\":3950:3987   */\n  tag_79\n    /* \"#utility.yul\":3983:3986   */\n  dup3\n    /* \"#utility.yul\":3950:3987   */\n  tag_12\n  jump\t// in\ntag_79:\n    /* \"#utility.yul\":4052:4070   */\n  0xffffffffffffffff\n    /* \"#utility.yul\":4044:4050   */\n  dup2\n    /* \"#utility.yul\":4041:4071   */\n  gt\n    /* \"#utility.yul\":4038:4094   */\n  iszero\n  tag_80\n  jumpi\n    /* \"#utility.yul\":4074:4092   */\n  tag_81\n  tag_13\n  jump\t// in\ntag_81:\n    /* \"#utility.yul\":4038:4094   */\ntag_80:\n    /* \"#utility.yul\":4118:4156   */\n  tag_82\n    /* \"#utility.yul\":4150:4154   */\n  dup3\n    /* \"#utility.yul\":4144:4155   */\n  sload\n    /* \"#utility.yul\":4118:4156   */\n  tag_15\n  jump\t// in\ntag_82:\n    /* \"#utility.yul\":4203:4270   */\n  tag_83\n    /* \"#utility.yul\":4263:4269   */\n  dup3\n    /* \"#utility.yul\":4255:4261   */\n  dup3\n    /* \"#utility.yul\":4249:4253   */\n  dup6\n    /* \"#utility.yul\":4203:4270   */\n  tag_28\n  jump\t// in\ntag_83:\n    /* \"#utility.yul\":4297:4298   */\n  0x00\n    /* \"#utility.yul\":4321:4325   */\n  0x20\n    /* \"#utility.yul\":4308:4325   */\n  swap1\n  pop\n    /* \"#utility.yul\":4353:4355   */\n  0x1f\n    /* \"#utility.yul\":4345:4351   */\n  dup4\n    /* \"#utility.yul\":4342:4356   */\n  gt\n    /* \"#utility.yul\":4370:4371   */\n  0x01\n    /* \"#utility.yul\":4365:4983   */\n  dup2\n  eq\n  tag_85\n  jumpi\n    /* \"#utility.yul\":5027:5028   */\n  0x00\n    /* \"#utility.yul\":5044:5050   */\n  dup5\n    /* \"#utility.yul\":5041:5118   */\n  iszero\n  tag_86\n  jumpi\n    /* \"#utility.yul\":5093:5102   */\n  dup3\n    /* \"#utility.yul\":5088:5091   */\n  dup8\n    /* \"#utility.yul\":5084:5103   */\n  add\n    /* \"#utility.yul\":5078:5104   */\n  mload\n    /* \"#utility.yul\":5069:5104   */\n  swap1\n  pop\n    /* \"#utility.yul\":5041:5118   */\ntag_86:\n    /* \"#utility.yul\":5144:5211   */\n  tag_87\n    /* \"#utility.yul\":5204:5210   */\n  dup6\n    /* \"#utility.yul\":5197:5202   */\n  dup3\n    /* \"#utility.yul\":5144:5211   */\n  tag_31\n  jump\t// in\ntag_87:\n    /* \"#utility.yul\":5138:5142   */\n  dup7\n    /* \"#utility.yul\":5131:5212   */\n  sstore\n    /* \"#utility.yul\":5000:5222   */\n  pop\n    /* \"#utility.yul\":4335:5222   */\n  jump(tag_84)\n    /* \"#utility.yul\":4365:4983   */\ntag_85:\n    /* \"#utility.yul\":4417:4421   */\n  0x1f\n    /* \"#utility.yul\":4413:4422   */\n  not\n    /* \"#utility.yul\":4405:4411   */\n  dup5\n    /* \"#utility.yul\":4401:4423   */\n  and\n    /* \"#utility.yul\":4451:4488   */\n  tag_88\n    /* \"#utility.yul\":4483:4487   */\n  dup7\n    /* \"#utility.yul\":4451:4488   */\n  tag_16\n  jump\t// in\ntag_88:\n    /* \"#utility.yul\":4510:4511   */\n  0x00\n    /* \"#utility.yul\":4524:4732   */\ntag_89:\n    /* \"#utility.yul\":4538:4545   */\n  dup3\n    /* \"#utility.yul\":4535:4536   */\n  dup2\n    /* \"#utility.yul\":4532:4546   */\n  lt\n    /* \"#utility.yul\":4524:4732   */\n  iszero\n  tag_91\n  jumpi\n    /* \"#utility.yul\":4617:4626   */\n  dup5\n    /* \"#utility.yul\":4612:4615   */\n  dup10\n    /* \"#utility.yul\":4608:4627   */\n  add\n    /* \"#utility.yul\":4602:4628   */\n  mload\n    /* \"#utility.yul\":4594:4600   */\n  dup3\n    /* \"#utility.yul\":4587:4629   */\n  sstore\n    /* \"#utility.yul\":4668:4669   */\n  0x01\n    /* \"#utility.yul\":4660:4666   */\n  dup3\n    /* \"#utility.yul\":4656:4670   */\n  add\n    /* \"#utility.yul\":4646:4670   */\n  swap2\n  pop\n    /* \"#utility.yul\":4715:4717   */\n  0x20\n    /* \"#utility.yul\":4704:4713   */\n  dup6\n    /* \"#utility.yul\":4700:4718   */\n  add\n    /* \"#utility.yul\":4687:4718   */\n  swap5\n  pop\n    /* \"#utility.yul\":4561:4565   */\n  0x20\n    /* \"#utility.yul\":4558:4559   */\n  dup2\n    /* \"#utility.yul\":4554:4566   */\n  add\n    /* \"#utility.yul\":4549:4566   */\n  swap1\n  pop\n    /* \"#utility.yul\":4524:4732   */\n  jump(tag_89)\ntag_91:\n    /* \"#utility.yul\":4760:4766   */\n  dup7\n    /* \"#utility.yul\":4751:4758   */\n  dup4\n    /* \"#utility.yul\":4748:4767   */\n  lt\n    /* \"#utility.yul\":4745:4924   */\n  iszero\n  tag_92\n  jumpi\n    /* \"#utility.yul\":4818:4827   */\n  dup5\n    /* \"#utility.yul\":4813:4816   */\n  dup10\n    /* \"#utility.yul\":4809:4828   */\n  add\n    /* \"#utility.yul\":4803:4829   */\n  mload\n    /* \"#utility.yul\":4861:4909   */\n  tag_93\n    /* \"#utility.yul\":4903:4907   */\n  0x1f\n    /* \"#utility.yul\":4895:4901   */\n  dup10\n    /* \"#utility.yul\":4891:4908   */\n  and\n    /* \"#utility.yul\":4880:4889   */\n  dup3\n    /* \"#utility.yul\":4861:4909   */\n  tag_30\n  jump\t// in\ntag_93:\n    /* \"#utility.yul\":4853:4859   */\n  dup4\n    /* \"#utility.yul\":4846:4910   */\n  sstore\n    /* \"#utility.yul\":4768:4924   */\n  pop\n    /* \"#utility.yul\":4745:4924   */\ntag_92:\n    /* \"#utility.yul\":4970:4971   */\n  0x01\n    /* \"#utility.yul\":4966:4967   */\n  0x02\n    /* \"#utility.yul\":4958:4964   */\n  dup9\n    /* \"#utility.yul\":4954:4968   */\n  mul\n    /* \"#utility.yul\":4950:4972   */\n  add\n    /* \"#utility.yul\":4944:4948   */\n  dup9\n    /* \"#utility.yul\":4937:4973   */\n  sstore\n    /* \"#utility.yul\":4372:4983   */\n  pop\n  pop\n  pop\n    /* \"#utility.yul\":4335:5222   */\ntag_84:\n  pop\n    /* \"#utility.yul\":3925:5228   */\n  pop\n  pop\n  pop\n    /* \"#utility.yul\":3833:5228   */\n  pop\n  pop\n  jump\t// out\n    /* \"web/DAppVoting.sol\":60:5794  contract Voting {... */\ntag_11:\n  dataSize(sub_0)\n  dup1\n  dataOffset(sub_0)\n  0x00\n  codecopy\n  0x00\n  return\nstop\n\nsub_0: assembly {\n        /* \"web/DAppVoting.sol\":60:5794  contract Voting {... */\n      mstore(0x40, 0x80)\n      jumpi(tag_1, lt(calldatasize, 0x04))\n      shr(0xe0, calldataload(0x00))\n      dup1\n      0x36704f5e\n      gt\n      tag_19\n      jumpi\n      dup1\n      0xa6151a84\n      gt\n      tag_20\n      jumpi\n      dup1\n      0xa6151a84\n      eq\n      tag_14\n      jumpi\n      dup1\n      0xa6f9dae1\n      eq\n      tag_15\n      jumpi\n      dup1\n      0xa95824b4\n      eq\n      tag_16\n      jumpi\n      dup1\n      0xb2c2f2e8\n      eq\n      tag_17\n      jumpi\n      dup1\n      0xda58c7d9\n      eq\n      tag_18\n      jumpi\n      jump(tag_1)\n    tag_20:\n      dup1\n      0x36704f5e\n      eq\n      tag_10\n      jumpi\n      dup1\n      0x3ccfd60b\n      eq\n      tag_11\n      jumpi\n      dup1\n      0x950c7822\n      eq\n      tag_12\n      jumpi\n      dup1\n      0x9753f432\n      eq\n      tag_13\n      jumpi\n      jump(tag_1)\n    tag_19:\n      dup1\n      0x14034bd2\n      gt\n      tag_21\n      jumpi\n      dup1\n      0x14034bd2\n      eq\n      tag_6\n      jumpi\n      dup1\n      0x2479ecb8\n      eq\n      tag_7\n      jumpi\n      dup1\n      0x2e130964\n      eq\n      tag_8\n      jumpi\n      dup1\n      0x329a8cfa\n      eq\n      tag_9\n      jumpi\n      jump(tag_1)\n    tag_21:\n      dup1\n      0x0121b93f\n      eq\n      tag_2\n      jumpi\n      dup1\n      0x013cf08b\n      eq\n      tag_3\n      jumpi\n      dup1\n      0x029eb76e\n      eq\n      tag_4\n      jumpi\n      dup1\n      0x092a5cce\n      eq\n      tag_5\n      jumpi\n    tag_1:\n      0x00\n      dup1\n      revert\n        /* \"web/DAppVoting.sol\":1518:1950  function vote(uint proposalIndex) public payable notDestroyed validVote {... */\n    tag_2:\n      tag_22\n      0x04\n      dup1\n      calldatasize\n      sub\n      dup2\n      add\n      swap1\n      tag_23\n      swap2\n      swap1\n      tag_24\n      jump\t// in\n    tag_23:\n      tag_25\n      jump\t// in\n    tag_22:\n      stop\n        /* \"web/DAppVoting.sol\":571:598  Proposal[] public proposals */\n    tag_3:\n      callvalue\n      dup1\n      iszero\n      tag_26\n      jumpi\n      0x00\n      dup1\n      revert\n    tag_26:\n      pop\n      tag_27\n      0x04\n      dup1\n      calldatasize\n      sub\n      dup2\n      add\n      swap1\n      tag_28\n      swap2\n      swap1\n      tag_24\n      jump\t// in\n    tag_28:\n      tag_29\n      jump\t// in\n    tag_27:\n      mload(0x40)\n      tag_30\n      swap3\n      swap2\n      swap1\n      tag_31\n      jump\t// in\n    tag_30:\n      mload(0x40)\n      dup1\n      swap2\n      sub\n      swap1\n      return\n        /* \"web/DAppVoting.sol\":83:112  address public projectManager */\n    tag_4:\n      callvalue\n      dup1\n      iszero\n      tag_32\n      jumpi\n      0x00\n      dup1\n      revert\n    tag_32:\n      pop\n      tag_33\n      tag_34\n      jump\t// in\n    tag_33:\n      mload(0x40)\n      tag_35\n      swap2\n      swap1\n      tag_36\n      jump\t// in\n    tag_35:\n      mload(0x40)\n      dup1\n      swap2\n      sub\n      swap1\n      return\n        /* \"web/DAppVoting.sol\":5486:5791  function destroyContract() public onlyProjectManager notDestroyed returns (bool){... */\n    tag_5:\n      callvalue\n      dup1\n      iszero\n      tag_37\n      jumpi\n      0x00\n      dup1\n      revert\n    tag_37:\n      pop\n      tag_38\n      tag_39\n      jump\t// in\n    tag_38:\n      mload(0x40)\n      tag_40\n      swap2\n      swap1\n      tag_41\n      jump\t// in\n    tag_40:\n      mload(0x40)\n      dup1\n      swap2\n      sub\n      swap1\n      return\n        /* \"web/DAppVoting.sol\":2099:3051  function declareWinner() public onlyProjectManager notDestroyed returns (string memory winnerName) {... */\n    tag_6:\n      callvalue\n      dup1\n      iszero\n      tag_42\n      jumpi\n      0x00\n      dup1\n      revert\n    tag_42:\n      pop\n      tag_43\n      tag_44\n      jump\t// in\n    tag_43:\n      mload(0x40)\n      tag_45\n      swap2\n      swap1\n      tag_46\n      jump\t// in\n    tag_45:\n      mload(0x40)\n      dup1\n      swap2\n      sub\n      swap1\n      return\n        /* \"web/DAppVoting.sol\":196:220  bool public votingClosed */\n    tag_7:\n      callvalue\n      dup1\n      iszero\n      tag_47\n      jumpi\n      0x00\n      dup1\n      revert\n    tag_47:\n      pop\n      tag_48\n      tag_49\n      jump\t// in\n    tag_48:\n      mload(0x40)\n      tag_50\n      swap2\n      swap1\n      tag_41\n      jump\t// in\n    tag_50:\n      mload(0x40)\n      dup1\n      swap2\n      sub\n      swap1\n      return\n        /* \"web/DAppVoting.sol\":3876:4574  function getRecentResults() public view returns (uint256[] memory, string[] memory, uint256[] memory) {... */\n    tag_8:\n      callvalue\n      dup1\n      iszero\n      tag_51\n      jumpi\n      0x00\n      dup1\n      revert\n    tag_51:\n      pop\n      tag_52\n      tag_53\n      jump\t// in\n    tag_52:\n      mload(0x40)\n      tag_54\n      swap4\n      swap3\n      swap2\n      swap1\n      tag_55\n      jump\t// in\n    tag_54:\n      mload(0x40)\n      dup1\n      swap2\n      sub\n      swap1\n      return\n        /* \"web/DAppVoting.sol\":4582:5042  function resetVote() external notDestroyed{... */\n    tag_9:\n      callvalue\n      dup1\n      iszero\n      tag_56\n      jumpi\n      0x00\n      dup1\n      revert\n    tag_56:\n      pop\n      tag_57\n      tag_58\n      jump\t// in\n    tag_57:\n      stop\n        /* \"web/DAppVoting.sol\":605:638  VotingRound[] public votingRounds */\n    tag_10:\n      callvalue\n      dup1\n      iszero\n      tag_59\n      jumpi\n      0x00\n      dup1\n      revert\n    tag_59:\n      pop\n      tag_60\n      0x04\n      dup1\n      calldatasize\n      sub\n      dup2\n      add\n      swap1\n      tag_61\n      swap2\n      swap1\n      tag_24\n      jump\t// in\n    tag_61:\n      tag_62\n      jump\t// in\n    tag_60:\n      mload(0x40)\n      tag_63\n      swap4\n      swap3\n      swap2\n      swap1\n      tag_64\n      jump\t// in\n    tag_63:\n      mload(0x40)\n      dup1\n      swap2\n      sub\n      swap1\n      return\n        /* \"web/DAppVoting.sol\":5050:5271  function withdraw() public onlyProjectManager notDestroyed{... */\n    tag_11:\n      callvalue\n      dup1\n      iszero\n      tag_65\n      jumpi\n      0x00\n      dup1\n      revert\n    tag_65:\n      pop\n      tag_66\n      tag_67\n      jump\t// in\n    tag_66:\n      stop\n        /* \"web/DAppVoting.sol\":1958:2091  function getUserVotes(address user) public view notDestroyed returns (uint) {... */\n    tag_12:\n      callvalue\n      dup1\n      iszero\n      tag_68\n      jumpi\n      0x00\n      dup1\n      revert\n    tag_68:\n      pop\n      tag_69\n      0x04\n      dup1\n      calldatasize\n      sub\n      dup2\n      add\n      swap1\n      tag_70\n      swap2\n      swap1\n      tag_71\n      jump\t// in\n    tag_70:\n      tag_72\n      jump\t// in\n    tag_69:\n      mload(0x40)\n      tag_73\n      swap2\n      swap1\n      tag_74\n      jump\t// in\n    tag_73:\n      mload(0x40)\n      dup1\n      swap2\n      sub\n      swap1\n      return\n        /* \"web/DAppVoting.sol\":645:690  mapping(address => uint) public votesPerVoter */\n    tag_13:\n      callvalue\n      dup1\n      iszero\n      tag_75\n      jumpi\n      0x00\n      dup1\n      revert\n    tag_75:\n      pop\n      tag_76\n      0x04\n      dup1\n      calldatasize\n      sub\n      dup2\n      add\n      swap1\n      tag_77\n      swap2\n      swap1\n      tag_71\n      jump\t// in\n    tag_77:\n      tag_78\n      jump\t// in\n    tag_76:\n      mload(0x40)\n      tag_79\n      swap2\n      swap1\n      tag_74\n      jump\t// in\n    tag_79:\n      mload(0x40)\n      dup1\n      swap2\n      sub\n      swap1\n      return\n        /* \"web/DAppVoting.sol\":332:355  bool public isDestroyed */\n    tag_14:\n      callvalue\n      dup1\n      iszero\n      tag_80\n      jumpi\n      0x00\n      dup1\n      revert\n    tag_80:\n      pop\n      tag_81\n      tag_82\n      jump\t// in\n    tag_81:\n      mload(0x40)\n      tag_83\n      swap2\n      swap1\n      tag_41\n      jump\t// in\n    tag_83:\n      mload(0x40)\n      dup1\n      swap2\n      sub\n      swap1\n      return\n        /* \"web/DAppVoting.sol\":5279:5478  function changeOwner(address newOwner) public onlyProjectManager notDestroyed{... */\n    tag_15:\n      callvalue\n      dup1\n      iszero\n      tag_84\n      jumpi\n      0x00\n      dup1\n      revert\n    tag_84:\n      pop\n      tag_85\n      0x04\n      dup1\n      calldatasize\n      sub\n      dup2\n      add\n      swap1\n      tag_86\n      swap2\n      swap1\n      tag_71\n      jump\t// in\n    tag_86:\n      tag_87\n      jump\t// in\n    tag_85:\n      stop\n        /* \"web/DAppVoting.sol\":3207:3308  function votingOpen() public view notDestroyed returns (bool) {... */\n    tag_16:\n      callvalue\n      dup1\n      iszero\n      tag_88\n      jumpi\n      0x00\n      dup1\n      revert\n    tag_88:\n      pop\n      tag_89\n      tag_90\n      jump\t// in\n    tag_89:\n      mload(0x40)\n      tag_91\n      swap2\n      swap1\n      tag_41\n      jump\t// in\n    tag_91:\n      mload(0x40)\n      dup1\n      swap2\n      sub\n      swap1\n      return\n        /* \"web/DAppVoting.sol\":3059:3199  function getVoteCount(uint proposalIndex) public view notDestroyed returns(uint){... */\n    tag_17:\n      callvalue\n      dup1\n      iszero\n      tag_92\n      jumpi\n      0x00\n      dup1\n      revert\n    tag_92:\n      pop\n      tag_93\n      0x04\n      dup1\n      calldatasize\n      sub\n      dup2\n      add\n      swap1\n      tag_94\n      swap2\n      swap1\n      tag_24\n      jump\t// in\n    tag_94:\n      tag_95\n      jump\t// in\n    tag_93:\n      mload(0x40)\n      tag_96\n      swap2\n      swap1\n      tag_74\n      jump\t// in\n    tag_96:\n      mload(0x40)\n      dup1\n      swap2\n      sub\n      swap1\n      return\n        /* \"web/DAppVoting.sol\":697:720  address[] public voters */\n    tag_18:\n      callvalue\n      dup1\n      iszero\n      tag_97\n      jumpi\n      0x00\n      dup1\n      revert\n    tag_97:\n      pop\n      tag_98\n      0x04\n      dup1\n      calldatasize\n      sub\n      dup2\n      add\n      swap1\n      tag_99\n      swap2\n      swap1\n      tag_24\n      jump\t// in\n    tag_99:\n      tag_100\n      jump\t// in\n    tag_98:\n      mload(0x40)\n      tag_101\n      swap2\n      swap1\n      tag_36\n      jump\t// in\n    tag_101:\n      mload(0x40)\n      dup1\n      swap2\n      sub\n      swap1\n      return\n        /* \"web/DAppVoting.sol\":1518:1950  function vote(uint proposalIndex) public payable notDestroyed validVote {... */\n    tag_25:\n        /* \"web/DAppVoting.sol\":1187:1198  isDestroyed */\n      0x00\n      0x15\n      swap1\n      sload\n      swap1\n      0x0100\n      exp\n      swap1\n      div\n      0xff\n      and\n        /* \"web/DAppVoting.sol\":1186:1198  !isDestroyed */\n      iszero\n        /* \"web/DAppVoting.sol\":1178:1224  require(!isDestroyed, \"Contract is destroyed\") */\n      tag_103\n      jumpi\n      mload(0x40)\n      0x08c379a000000000000000000000000000000000000000000000000000000000\n      dup2\n      mstore\n      0x04\n      add\n      tag_104\n      swap1\n      tag_105\n      jump\t// in\n    tag_104:\n      mload(0x40)\n      dup1\n      swap2\n      sub\n      swap1\n      revert\n    tag_103:\n        /* \"web/DAppVoting.sol\":928:940  votingClosed */\n      0x00\n      0x14\n      swap1\n      sload\n      swap1\n      0x0100\n      exp\n      swap1\n      div\n      0xff\n      and\n        /* \"web/DAppVoting.sol\":927:940  !votingClosed */\n      iszero\n        /* \"web/DAppVoting.sol\":919:962  require(!votingClosed, \"Voting is closed.\") */\n      tag_107\n      jumpi\n      mload(0x40)\n      0x08c379a000000000000000000000000000000000000000000000000000000000\n      dup2\n      mstore\n      0x04\n      add\n      tag_108\n      swap1\n      tag_109\n      jump\t// in\n    tag_108:\n      mload(0x40)\n      dup1\n      swap2\n      sub\n      swap1\n      revert\n    tag_107:\n        /* \"web/DAppVoting.sol\":145:155  0.01 ether */\n      0x2386f26fc10000\n        /* \"web/DAppVoting.sol\":981:990  msg.value */\n      callvalue\n        /* \"web/DAppVoting.sol\":981:1003  msg.value == VOTE_COST */\n      eq\n        /* \"web/DAppVoting.sol\":973:1035  require(msg.value == VOTE_COST, \"Incorrect ether value sent.\") */\n      tag_110\n      jumpi\n      mload(0x40)\n      0x08c379a000000000000000000000000000000000000000000000000000000000\n      dup2\n      mstore\n      0x04\n      add\n      tag_111\n      swap1\n      tag_112\n      jump\t// in\n    tag_111:\n      mload(0x40)\n      dup1\n      swap2\n      sub\n      swap1\n      revert\n    tag_110:\n        /* \"web/DAppVoting.sol\":1068:1082  projectManager */\n      0x00\n      dup1\n      sload\n      swap1\n      0x0100\n      exp\n      swap1\n      div\n      0xffffffffffffffffffffffffffffffffffffffff\n      and\n        /* \"web/DAppVoting.sol\":1054:1082  msg.sender != projectManager */\n      0xffffffffffffffffffffffffffffffffffffffff\n      and\n        /* \"web/DAppVoting.sol\":1054:1064  msg.sender */\n      caller\n        /* \"web/DAppVoting.sol\":1054:1082  msg.sender != projectManager */\n      0xffffffffffffffffffffffffffffffffffffffff\n      and\n      sub\n        /* \"web/DAppVoting.sol\":1046:1115  require(msg.sender != projectManager, \"Project manager cannot vote.\") */\n      tag_113\n      jumpi\n      mload(0x40)\n      0x08c379a000000000000000000000000000000000000000000000000000000000\n      dup2\n      mstore\n      0x04\n      add\n      tag_114\n      swap1\n      tag_115\n      jump\t// in\n    tag_114:\n      mload(0x40)\n      dup1\n      swap2\n      sub\n      swap1\n      revert\n    tag_113:\n        /* \"web/DAppVoting.sol\":1625:1634  proposals */\n      0x01\n        /* \"web/DAppVoting.sol\":1625:1641  proposals.length */\n      dup1\n      sload\n      swap1\n      pop\n        /* \"web/DAppVoting.sol\":1609:1622  proposalIndex */\n      dup2\n        /* \"web/DAppVoting.sol\":1609:1641  proposalIndex < proposals.length */\n      lt\n        /* \"web/DAppVoting.sol\":1601:1669  require(proposalIndex < proposals.length, \"Invalid proposal index.\") */\n      tag_117\n      jumpi\n      mload(0x40)\n      0x08c379a000000000000000000000000000000000000000000000000000000000\n      dup2\n      mstore\n      0x04\n      add\n      tag_118\n      swap1\n      tag_119\n      jump\t// in\n    tag_118:\n      mload(0x40)\n      dup1\n      swap2\n      sub\n      swap1\n      revert\n    tag_117:\n        /* \"web/DAppVoting.sol\":188:189  5 */\n      0x05\n        /* \"web/DAppVoting.sol\":1688:1701  votesPerVoter */\n      0x03\n        /* \"web/DAppVoting.sol\":1688:1713  votesPerVoter[msg.sender] */\n      0x00\n        /* \"web/DAppVoting.sol\":1702:1712  msg.sender */\n      caller\n        /* \"web/DAppVoting.sol\":1688:1713  votesPerVoter[msg.sender] */\n      0xffffffffffffffffffffffffffffffffffffffff\n      and\n      0xffffffffffffffffffffffffffffffffffffffff\n      and\n      dup2\n      mstore\n      0x20\n      add\n      swap1\n      dup2\n      mstore\n      0x20\n      add\n      0x00\n      keccak256\n      sload\n        /* \"web/DAppVoting.sol\":1688:1725  votesPerVoter[msg.sender] < MAX_VOTES */\n      lt\n        /* \"web/DAppVoting.sol\":1680:1762  require(votesPerVoter[msg.sender] < MAX_VOTES, \"Exceeds maximum votes per voter.\") */\n      tag_120\n      jumpi\n      mload(0x40)\n      0x08c379a000000000000000000000000000000000000000000000000000000000\n      dup2\n      mstore\n      0x04\n      add\n      tag_121\n      swap1\n      tag_122\n      jump\t// in\n    tag_121:\n      mload(0x40)\n      dup1\n      swap2\n      sub\n      swap1\n      revert\n    tag_120:\n        /* \"web/DAppVoting.sol\":1813:1814  1 */\n      0x01\n        /* \"web/DAppVoting.sol\":1775:1784  proposals */\n      dup1\n        /* \"web/DAppVoting.sol\":1785:1798  proposalIndex */\n      dup3\n        /* \"web/DAppVoting.sol\":1775:1799  proposals[proposalIndex] */\n      dup2\n      sload\n      dup2\n      lt\n      tag_123\n      jumpi\n      tag_124\n      tag_125\n      jump\t// in\n    tag_124:\n    tag_123:\n      swap1\n      0x00\n      mstore\n      keccak256(0x00, 0x20)\n      swap1\n      0x02\n      mul\n      add\n        /* \"web/DAppVoting.sol\":1775:1809  proposals[proposalIndex].voteCount */\n      0x01\n      add\n      0x00\n        /* \"web/DAppVoting.sol\":1775:1814  proposals[proposalIndex].voteCount += 1 */\n      dup3\n      dup3\n      sload\n      tag_127\n      swap2\n      swap1\n      tag_128\n      jump\t// in\n    tag_127:\n      swap3\n      pop\n      pop\n      dup2\n      swap1\n      sstore\n      pop\n        /* \"web/DAppVoting.sol\":1854:1855  1 */\n      0x01\n        /* \"web/DAppVoting.sol\":1825:1838  votesPerVoter */\n      0x03\n        /* \"web/DAppVoting.sol\":1825:1850  votesPerVoter[msg.sender] */\n      0x00\n        /* \"web/DAppVoting.sol\":1839:1849  msg.sender */\n      caller\n        /* \"web/DAppVoting.sol\":1825:1850  votesPerVoter[msg.sender] */\n      0xffffffffffffffffffffffffffffffffffffffff\n      and\n      0xffffffffffffffffffffffffffffffffffffffff\n      and\n      dup2\n      mstore\n      0x20\n      add\n      swap1\n      dup2\n      mstore\n      0x20\n      add\n      0x00\n      keccak256\n      0x00\n        /* \"web/DAppVoting.sol\":1825:1855  votesPerVoter[msg.sender] += 1 */\n      dup3\n      dup3\n      sload\n      tag_129\n      swap2\n      swap1\n      tag_128\n      jump\t// in\n    tag_129:\n      swap3\n      pop\n      pop\n      dup2\n      swap1\n      sstore\n      pop\n        /* \"web/DAppVoting.sol\":1866:1872  voters */\n      0x04\n        /* \"web/DAppVoting.sol\":1878:1888  msg.sender */\n      caller\n        /* \"web/DAppVoting.sol\":1866:1889  voters.push(msg.sender) */\n      swap1\n      dup1\n      0x01\n      dup2\n      sload\n      add\n      dup1\n      dup3\n      sstore\n      dup1\n      swap2\n      pop\n      pop\n      0x01\n      swap1\n      sub\n      swap1\n      0x00\n      mstore\n      keccak256(0x00, 0x20)\n      add\n      0x00\n      swap1\n      swap2\n      swap1\n      swap2\n      swap1\n      swap2\n      0x0100\n      exp\n      dup2\n      sload\n      dup2\n      0xffffffffffffffffffffffffffffffffffffffff\n      mul\n      not\n      and\n      swap1\n      dup4\n      0xffffffffffffffffffffffffffffffffffffffff\n      and\n      mul\n      or\n      swap1\n      sstore\n      pop\n        /* \"web/DAppVoting.sol\":1916:1926  msg.sender */\n      caller\n        /* \"web/DAppVoting.sol\":1907:1942  VoteCast(msg.sender, proposalIndex) */\n      0xffffffffffffffffffffffffffffffffffffffff\n      and\n      0xa36cc2bebb74db33e9f88110a07ef56e1b31b24b4c4f51b54b1664266e29f45b\n        /* \"web/DAppVoting.sol\":1928:1941  proposalIndex */\n      dup3\n        /* \"web/DAppVoting.sol\":1907:1942  VoteCast(msg.sender, proposalIndex) */\n      mload(0x40)\n      tag_131\n      swap2\n      swap1\n      tag_74\n      jump\t// in\n    tag_131:\n      mload(0x40)\n      dup1\n      swap2\n      sub\n      swap1\n      log2\n        /* \"web/DAppVoting.sol\":1518:1950  function vote(uint proposalIndex) public payable notDestroyed validVote {... */\n      pop\n      jump\t// out\n        /* \"web/DAppVoting.sol\":571:598  Proposal[] public proposals */\n    tag_29:\n      0x01\n      dup2\n      dup2\n      sload\n      dup2\n      lt\n      tag_132\n      jumpi\n      0x00\n      dup1\n      revert\n    tag_132:\n      swap1\n      0x00\n      mstore\n      keccak256(0x00, 0x20)\n      swap1\n      0x02\n      mul\n      add\n      0x00\n      swap2\n      pop\n      swap1\n      pop\n      dup1\n      0x00\n      add\n      dup1\n      sload\n      tag_134\n      swap1\n      tag_135\n      jump\t// in\n    tag_134:\n      dup1\n      0x1f\n      add\n      0x20\n      dup1\n      swap2\n      div\n      mul\n      0x20\n      add\n      mload(0x40)\n      swap1\n      dup2\n      add\n      0x40\n      mstore\n      dup1\n      swap3\n      swap2\n      swap1\n      dup2\n      dup2\n      mstore\n      0x20\n      add\n      dup3\n      dup1\n      sload\n      tag_136\n      swap1\n      tag_135\n      jump\t// in\n    tag_136:\n      dup1\n      iszero\n      tag_137\n      jumpi\n      dup1\n      0x1f\n      lt\n      tag_138\n      jumpi\n      0x0100\n      dup1\n      dup4\n      sload\n      div\n      mul\n      dup4\n      mstore\n      swap2\n      0x20\n      add\n      swap2\n      jump(tag_137)\n    tag_138:\n      dup3\n      add\n      swap2\n      swap1\n      0x00\n      mstore\n      keccak256(0x00, 0x20)\n      swap1\n    tag_139:\n      dup2\n      sload\n      dup2\n      mstore\n      swap1\n      0x01\n      add\n      swap1\n      0x20\n      add\n      dup1\n      dup4\n      gt\n      tag_139\n      jumpi\n      dup3\n      swap1\n      sub\n      0x1f\n      and\n      dup3\n      add\n      swap2\n    tag_137:\n      pop\n      pop\n      pop\n      pop\n      pop\n      swap1\n      dup1\n      0x01\n      add\n      sload\n      swap1\n      pop\n      dup3\n      jump\t// out\n        /* \"web/DAppVoting.sol\":83:112  address public projectManager */\n    tag_34:\n      0x00\n      dup1\n      sload\n      swap1\n      0x0100\n      exp\n      swap1\n      div\n      0xffffffffffffffffffffffffffffffffffffffff\n      and\n      dup2\n      jump\t// out\n        /* \"web/DAppVoting.sol\":5486:5791  function destroyContract() public onlyProjectManager notDestroyed returns (bool){... */\n    tag_39:\n        /* \"web/DAppVoting.sol\":5561:5565  bool */\n      0x00\n        /* \"web/DAppVoting.sol\":792:806  projectManager */\n      dup1\n      0x00\n      swap1\n      sload\n      swap1\n      0x0100\n      exp\n      swap1\n      div\n      0xffffffffffffffffffffffffffffffffffffffff\n      and\n        /* \"web/DAppVoting.sol\":778:806  msg.sender == projectManager */\n      0xffffffffffffffffffffffffffffffffffffffff\n      and\n        /* \"web/DAppVoting.sol\":778:788  msg.sender */\n      caller\n        /* \"web/DAppVoting.sol\":778:806  msg.sender == projectManager */\n      0xffffffffffffffffffffffffffffffffffffffff\n      and\n      eq\n        /* \"web/DAppVoting.sol\":770:859  require(msg.sender == projectManager, \"Only the project manager can call this function.\") */\n      tag_141\n      jumpi\n      mload(0x40)\n      0x08c379a000000000000000000000000000000000000000000000000000000000\n      dup2\n      mstore\n      0x04\n      add\n      tag_142\n      swap1\n      tag_143\n      jump\t// in\n    tag_142:\n      mload(0x40)\n      dup1\n      swap2\n      sub\n      swap1\n      revert\n    tag_141:\n        /* \"web/DAppVoting.sol\":1187:1198  isDestroyed */\n      0x00\n      0x15\n      swap1\n      sload\n      swap1\n      0x0100\n      exp\n      swap1\n      div\n      0xff\n      and\n        /* \"web/DAppVoting.sol\":1186:1198  !isDestroyed */\n      iszero\n        /* \"web/DAppVoting.sol\":1178:1224  require(!isDestroyed, \"Contract is destroyed\") */\n      tag_145\n      jumpi\n      mload(0x40)\n      0x08c379a000000000000000000000000000000000000000000000000000000000\n      dup2\n      mstore\n      0x04\n      add\n      tag_146\n      swap1\n      tag_105\n      jump\t// in\n    tag_146:\n      mload(0x40)\n      dup1\n      swap2\n      sub\n      swap1\n      revert\n    tag_145:\n        /* \"web/DAppVoting.sol\":5577:5589  uint balance */\n      0x00\n        /* \"web/DAppVoting.sol\":5592:5613  address(this).balance */\n      selfbalance\n        /* \"web/DAppVoting.sol\":5577:5613  uint balance = address(this).balance */\n      swap1\n      pop\n        /* \"web/DAppVoting.sol\":5639:5640  0 */\n      0x00\n        /* \"web/DAppVoting.sol\":5628:5635  balance */\n      dup2\n        /* \"web/DAppVoting.sol\":5628:5640  balance != 0 */\n      eq\n        /* \"web/DAppVoting.sol\":5624:5678  if (balance != 0){... */\n      tag_148\n      jumpi\n        /* \"web/DAppVoting.sol\":5656:5666  withdraw() */\n      tag_149\n        /* \"web/DAppVoting.sol\":5656:5664  withdraw */\n      tag_67\n        /* \"web/DAppVoting.sol\":5656:5666  withdraw() */\n      jump\t// in\n    tag_149:\n        /* \"web/DAppVoting.sol\":5624:5678  if (balance != 0){... */\n    tag_148:\n        /* \"web/DAppVoting.sol\":5709:5723  projectManager */\n      0x00\n      dup1\n      sload\n      swap1\n      0x0100\n      exp\n      swap1\n      div\n      0xffffffffffffffffffffffffffffffffffffffff\n      and\n        /* \"web/DAppVoting.sol\":5688:5725  selfdestruct(payable(projectManager)) */\n      0xffffffffffffffffffffffffffffffffffffffff\n      and\n      selfdestruct\n        /* \"web/DAppVoting.sol\":2099:3051  function declareWinner() public onlyProjectManager notDestroyed returns (string memory winnerName) {... */\n    tag_44:\n        /* \"web/DAppVoting.sol\":2172:2196  string memory winnerName */\n      0x60\n        /* \"web/DAppVoting.sol\":792:806  projectManager */\n      0x00\n      dup1\n      sload\n      swap1\n      0x0100\n      exp\n      swap1\n      div\n      0xffffffffffffffffffffffffffffffffffffffff\n      and\n        /* \"web/DAppVoting.sol\":778:806  msg.sender == projectManager */\n      0xffffffffffffffffffffffffffffffffffffffff\n      and\n        /* \"web/DAppVoting.sol\":778:788  msg.sender */\n      caller\n        /* \"web/DAppVoting.sol\":778:806  msg.sender == projectManager */\n      0xffffffffffffffffffffffffffffffffffffffff\n      and\n      eq\n        /* \"web/DAppVoting.sol\":770:859  require(msg.sender == projectManager, \"Only the project manager can call this function.\") */\n      tag_151\n      jumpi\n      mload(0x40)\n      0x08c379a000000000000000000000000000000000000000000000000000000000\n      dup2\n      mstore\n      0x04\n      add\n      tag_152\n      swap1\n      tag_143\n      jump\t// in\n    tag_152:\n      mload(0x40)\n      dup1\n      swap2\n      sub\n      swap1\n      revert\n    tag_151:\n        /* \"web/DAppVoting.sol\":1187:1198  isDestroyed */\n      0x00\n      0x15\n      swap1\n      sload\n      swap1\n      0x0100\n      exp\n      swap1\n      div\n      0xff\n      and\n        /* \"web/DAppVoting.sol\":1186:1198  !isDestroyed */\n      iszero\n        /* \"web/DAppVoting.sol\":1178:1224  require(!isDestroyed, \"Contract is destroyed\") */\n      tag_154\n      jumpi\n      mload(0x40)\n      0x08c379a000000000000000000000000000000000000000000000000000000000\n      dup2\n      mstore\n      0x04\n      add\n      tag_155\n      swap1\n      tag_105\n      jump\t// in\n    tag_155:\n      mload(0x40)\n      dup1\n      swap2\n      sub\n      swap1\n      revert\n    tag_154:\n        /* \"web/DAppVoting.sol\":2217:2229  votingOpen() */\n      tag_157\n        /* \"web/DAppVoting.sol\":2217:2227  votingOpen */\n      tag_90\n        /* \"web/DAppVoting.sol\":2217:2229  votingOpen() */\n      jump\t// in\n    tag_157:\n        /* \"web/DAppVoting.sol\":2209:2259  require(votingOpen(), \"Voting is already closed.\") */\n      tag_158\n      jumpi\n      mload(0x40)\n      0x08c379a000000000000000000000000000000000000000000000000000000000\n      dup2\n      mstore\n      0x04\n      add\n      tag_159\n      swap1\n      tag_160\n      jump\t// in\n    tag_159:\n      mload(0x40)\n      dup1\n      swap2\n      sub\n      swap1\n      revert\n    tag_158:\n        /* \"web/DAppVoting.sol\":2270:2291  uint winningVoteCount */\n      0x00\n        /* \"web/DAppVoting.sol\":2306:2331  uint winningProposalIndex */\n      dup1\n        /* \"web/DAppVoting.sol\":2342:2350  bool tie */\n      dup1\n        /* \"web/DAppVoting.sol\":2353:2358  false */\n      0x00\n        /* \"web/DAppVoting.sol\":2342:2358  bool tie = false */\n      swap1\n      pop\n        /* \"web/DAppVoting.sol\":2376:2382  uint i */\n      0x00\n        /* \"web/DAppVoting.sol\":2371:2736  for (uint i = 0; i < proposals.length; i++) {... */\n    tag_161:\n        /* \"web/DAppVoting.sol\":2392:2401  proposals */\n      0x01\n        /* \"web/DAppVoting.sol\":2392:2408  proposals.length */\n      dup1\n      sload\n      swap1\n      pop\n        /* \"web/DAppVoting.sol\":2388:2389  i */\n      dup2\n        /* \"web/DAppVoting.sol\":2388:2408  i < proposals.length */\n      lt\n        /* \"web/DAppVoting.sol\":2371:2736  for (uint i = 0; i < proposals.length; i++) {... */\n      iszero\n      tag_162\n      jumpi\n        /* \"web/DAppVoting.sol\":2459:2475  winningVoteCount */\n      dup4\n        /* \"web/DAppVoting.sol\":2434:2443  proposals */\n      0x01\n        /* \"web/DAppVoting.sol\":2444:2445  i */\n      dup3\n        /* \"web/DAppVoting.sol\":2434:2446  proposals[i] */\n      dup2\n      sload\n      dup2\n      lt\n      tag_164\n      jumpi\n      tag_165\n      tag_125\n      jump\t// in\n    tag_165:\n    tag_164:\n      swap1\n      0x00\n      mstore\n      keccak256(0x00, 0x20)\n      swap1\n      0x02\n      mul\n      add\n        /* \"web/DAppVoting.sol\":2434:2456  proposals[i].voteCount */\n      0x01\n      add\n      sload\n        /* \"web/DAppVoting.sol\":2434:2475  proposals[i].voteCount > winningVoteCount */\n      gt\n        /* \"web/DAppVoting.sol\":2430:2725  if (proposals[i].voteCount > winningVoteCount) {... */\n      iszero\n      tag_167\n      jumpi\n        /* \"web/DAppVoting.sol\":2515:2524  proposals */\n      0x01\n        /* \"web/DAppVoting.sol\":2525:2526  i */\n      dup2\n        /* \"web/DAppVoting.sol\":2515:2527  proposals[i] */\n      dup2\n      sload\n      dup2\n      lt\n      tag_168\n      jumpi\n      tag_169\n      tag_125\n      jump\t// in\n    tag_169:\n    tag_168:\n      swap1\n      0x00\n      mstore\n      keccak256(0x00, 0x20)\n      swap1\n      0x02\n      mul\n      add\n        /* \"web/DAppVoting.sol\":2515:2537  proposals[i].voteCount */\n      0x01\n      add\n      sload\n        /* \"web/DAppVoting.sol\":2496:2537  winningVoteCount = proposals[i].voteCount */\n      swap4\n      pop\n        /* \"web/DAppVoting.sol\":2579:2580  i */\n      dup1\n        /* \"web/DAppVoting.sol\":2556:2580  winningProposalIndex = i */\n      swap3\n      pop\n        /* \"web/DAppVoting.sol\":2605:2610  false */\n      0x00\n        /* \"web/DAppVoting.sol\":2599:2610  tie = false */\n      swap2\n      pop\n        /* \"web/DAppVoting.sol\":2430:2725  if (proposals[i].voteCount > winningVoteCount) {... */\n      jump(tag_171)\n    tag_167:\n        /* \"web/DAppVoting.sol\":2662:2678  winningVoteCount */\n      dup4\n        /* \"web/DAppVoting.sol\":2636:2645  proposals */\n      0x01\n        /* \"web/DAppVoting.sol\":2646:2647  i */\n      dup3\n        /* \"web/DAppVoting.sol\":2636:2648  proposals[i] */\n      dup2\n      sload\n      dup2\n      lt\n      tag_172\n      jumpi\n      tag_173\n      tag_125\n      jump\t// in\n    tag_173:\n    tag_172:\n      swap1\n      0x00\n      mstore\n      keccak256(0x00, 0x20)\n      swap1\n      0x02\n      mul\n      add\n        /* \"web/DAppVoting.sol\":2636:2658  proposals[i].voteCount */\n      0x01\n      add\n      sload\n        /* \"web/DAppVoting.sol\":2636:2678  proposals[i].voteCount == winningVoteCount */\n      sub\n        /* \"web/DAppVoting.sol\":2632:2725  if (proposals[i].voteCount == winningVoteCount) {... */\n      tag_175\n      jumpi\n        /* \"web/DAppVoting.sol\":2705:2709  true */\n      0x01\n        /* \"web/DAppVoting.sol\":2699:2709  tie = true */\n      swap2\n      pop\n        /* \"web/DAppVoting.sol\":2632:2725  if (proposals[i].voteCount == winningVoteCount) {... */\n    tag_175:\n        /* \"web/DAppVoting.sol\":2430:2725  if (proposals[i].voteCount > winningVoteCount) {... */\n    tag_171:\n        /* \"web/DAppVoting.sol\":2410:2413  i++ */\n      dup1\n      dup1\n      0x01\n      add\n      swap2\n      pop\n      pop\n        /* \"web/DAppVoting.sol\":2371:2736  for (uint i = 0; i < proposals.length; i++) {... */\n      jump(tag_161)\n    tag_162:\n      pop\n        /* \"web/DAppVoting.sol\":2752:2755  tie */\n      dup1\n        /* \"web/DAppVoting.sol\":2748:2816  if (tie) {... */\n      iszero\n      tag_176\n      jumpi\n        /* \"web/DAppVoting.sol\":2795:2804  drawTie() */\n      tag_177\n        /* \"web/DAppVoting.sol\":2795:2802  drawTie */\n      tag_178\n        /* \"web/DAppVoting.sol\":2795:2804  drawTie() */\n      jump\t// in\n    tag_177:\n        /* \"web/DAppVoting.sol\":2772:2804  winningProposalIndex = drawTie() */\n      swap2\n      pop\n        /* \"web/DAppVoting.sol\":2748:2816  if (tie) {... */\n    tag_176:\n        /* \"web/DAppVoting.sol\":2841:2850  proposals */\n      0x01\n        /* \"web/DAppVoting.sol\":2851:2871  winningProposalIndex */\n      dup3\n        /* \"web/DAppVoting.sol\":2841:2872  proposals[winningProposalIndex] */\n      dup2\n      sload\n      dup2\n      lt\n      tag_179\n      jumpi\n      tag_180\n      tag_125\n      jump\t// in\n    tag_180:\n    tag_179:\n      swap1\n      0x00\n      mstore\n      keccak256(0x00, 0x20)\n      swap1\n      0x02\n      mul\n      add\n        /* \"web/DAppVoting.sol\":2841:2877  proposals[winningProposalIndex].name */\n      0x00\n      add\n        /* \"web/DAppVoting.sol\":2828:2877  winnerName = proposals[winningProposalIndex].name */\n      dup1\n      sload\n      tag_182\n      swap1\n      tag_135\n      jump\t// in\n    tag_182:\n      dup1\n      0x1f\n      add\n      0x20\n      dup1\n      swap2\n      div\n      mul\n      0x20\n      add\n      mload(0x40)\n      swap1\n      dup2\n      add\n      0x40\n      mstore\n      dup1\n      swap3\n      swap2\n      swap1\n      dup2\n      dup2\n      mstore\n      0x20\n      add\n      dup3\n      dup1\n      sload\n      tag_183\n      swap1\n      tag_135\n      jump\t// in\n    tag_183:\n      dup1\n      iszero\n      tag_184\n      jumpi\n      dup1\n      0x1f\n      lt\n      tag_185\n      jumpi\n      0x0100\n      dup1\n      dup4\n      sload\n      div\n      mul\n      dup4\n      mstore\n      swap2\n      0x20\n      add\n      swap2\n      jump(tag_184)\n    tag_185:\n      dup3\n      add\n      swap2\n      swap1\n      0x00\n      mstore\n      keccak256(0x00, 0x20)\n      swap1\n    tag_186:\n      dup2\n      sload\n      dup2\n      mstore\n      swap1\n      0x01\n      add\n      swap1\n      0x20\n      add\n      dup1\n      dup4\n      gt\n      tag_186\n      jumpi\n      dup3\n      swap1\n      sub\n      0x1f\n      and\n      dup3\n      add\n      swap2\n    tag_184:\n      pop\n      pop\n      pop\n      pop\n      pop\n      swap4\n      pop\n        /* \"web/DAppVoting.sol\":2890:2902  votingRounds */\n      0x02\n        /* \"web/DAppVoting.sol\":2908:2974  VotingRound(votingRounds.length + 1, winnerName, winningVoteCount) */\n      mload(0x40)\n      dup1\n      0x60\n      add\n      0x40\n      mstore\n      dup1\n        /* \"web/DAppVoting.sol\":2942:2943  1 */\n      0x01\n        /* \"web/DAppVoting.sol\":2920:2932  votingRounds */\n      0x02\n        /* \"web/DAppVoting.sol\":2920:2939  votingRounds.length */\n      dup1\n      sload\n      swap1\n      pop\n        /* \"web/DAppVoting.sol\":2920:2943  votingRounds.length + 1 */\n      tag_187\n      swap2\n      swap1\n      tag_128\n      jump\t// in\n    tag_187:\n        /* \"web/DAppVoting.sol\":2908:2974  VotingRound(votingRounds.length + 1, winnerName, winningVoteCount) */\n      dup2\n      mstore\n      0x20\n      add\n        /* \"web/DAppVoting.sol\":2945:2955  winnerName */\n      dup7\n        /* \"web/DAppVoting.sol\":2908:2974  VotingRound(votingRounds.length + 1, winnerName, winningVoteCount) */\n      dup2\n      mstore\n      0x20\n      add\n        /* \"web/DAppVoting.sol\":2957:2973  winningVoteCount */\n      dup6\n        /* \"web/DAppVoting.sol\":2908:2974  VotingRound(votingRounds.length + 1, winnerName, winningVoteCount) */\n      dup2\n      mstore\n      pop\n        /* \"web/DAppVoting.sol\":2890:2975  votingRounds.push(VotingRound(votingRounds.length + 1, winnerName, winningVoteCount)) */\n      swap1\n      dup1\n      0x01\n      dup2\n      sload\n      add\n      dup1\n      dup3\n      sstore\n      dup1\n      swap2\n      pop\n      pop\n      0x01\n      swap1\n      sub\n      swap1\n      0x00\n      mstore\n      keccak256(0x00, 0x20)\n      swap1\n      0x03\n      mul\n      add\n      0x00\n      swap1\n      swap2\n      swap1\n      swap2\n      swap1\n      swap2\n      pop\n      0x00\n      dup3\n      add\n      mload\n      dup2\n      0x00\n      add\n      sstore\n      0x20\n      dup3\n      add\n      mload\n      dup2\n      0x01\n      add\n      swap1\n      dup2\n      tag_189\n      swap2\n      swap1\n      tag_190\n      jump\t// in\n    tag_189:\n      pop\n      0x40\n      dup3\n      add\n      mload\n      dup2\n      0x02\n      add\n      sstore\n      pop\n      pop\n        /* \"web/DAppVoting.sol\":3003:3007  true */\n      0x01\n        /* \"web/DAppVoting.sol\":2988:3000  votingClosed */\n      0x00\n      0x14\n        /* \"web/DAppVoting.sol\":2988:3007  votingClosed = true */\n      0x0100\n      exp\n      dup2\n      sload\n      dup2\n      0xff\n      mul\n      not\n      and\n      swap1\n      dup4\n      iszero\n      iszero\n      mul\n      or\n      swap1\n      sstore\n      pop\n        /* \"web/DAppVoting.sol\":3025:3043  winner(winnerName) */\n      0x2836fc1569f2cf0eafa6bae027d7b993edbe7762df0ab247aecfcf12f412244d\n        /* \"web/DAppVoting.sol\":3032:3042  winnerName */\n      dup5\n        /* \"web/DAppVoting.sol\":3025:3043  winner(winnerName) */\n      mload(0x40)\n      tag_191\n      swap2\n      swap1\n      tag_46\n      jump\t// in\n    tag_191:\n      mload(0x40)\n      dup1\n      swap2\n      sub\n      swap1\n      log1\n        /* \"web/DAppVoting.sol\":2198:3051  {... */\n      pop\n      pop\n      pop\n        /* \"web/DAppVoting.sol\":2099:3051  function declareWinner() public onlyProjectManager notDestroyed returns (string memory winnerName) {... */\n      swap1\n      jump\t// out\n        /* \"web/DAppVoting.sol\":196:220  bool public votingClosed */\n    tag_49:\n      0x00\n      0x14\n      swap1\n      sload\n      swap1\n      0x0100\n      exp\n      swap1\n      div\n      0xff\n      and\n      dup2\n      jump\t// out\n        /* \"web/DAppVoting.sol\":3876:4574  function getRecentResults() public view returns (uint256[] memory, string[] memory, uint256[] memory) {... */\n    tag_53:\n        /* \"web/DAppVoting.sol\":3925:3941  uint256[] memory */\n      0x60\n        /* \"web/DAppVoting.sol\":3943:3958  string[] memory */\n      dup1\n        /* \"web/DAppVoting.sol\":3960:3976  uint256[] memory */\n      0x60\n        /* \"web/DAppVoting.sol\":3989:4018  uint256[] memory roundNumbers */\n      0x00\n        /* \"web/DAppVoting.sol\":4035:4047  votingRounds */\n      0x02\n        /* \"web/DAppVoting.sol\":4035:4054  votingRounds.length */\n      dup1\n      sload\n      swap1\n      pop\n        /* \"web/DAppVoting.sol\":4021:4055  new uint256[](votingRounds.length) */\n      0xffffffffffffffff\n      dup2\n      gt\n      iszero\n      tag_193\n      jumpi\n      tag_194\n      tag_195\n      jump\t// in\n    tag_194:\n    tag_193:\n      mload(0x40)\n      swap1\n      dup1\n      dup3\n      mstore\n      dup1\n      0x20\n      mul\n      0x20\n      add\n      dup3\n      add\n      0x40\n      mstore\n      dup1\n      iszero\n      tag_196\n      jumpi\n      dup2\n      0x20\n      add\n      0x20\n      dup3\n      mul\n      dup1\n      calldatasize\n      dup4\n      calldatacopy\n      dup1\n      dup3\n      add\n      swap2\n      pop\n      pop\n      swap1\n      pop\n    tag_196:\n      pop\n        /* \"web/DAppVoting.sol\":3989:4055  uint256[] memory roundNumbers = new uint256[](votingRounds.length) */\n      swap1\n      pop\n        /* \"web/DAppVoting.sol\":4066:4102  string[] memory winningProposalNames */\n      0x00\n        /* \"web/DAppVoting.sol\":4118:4130  votingRounds */\n      0x02\n        /* \"web/DAppVoting.sol\":4118:4137  votingRounds.length */\n      dup1\n      sload\n      swap1\n      pop\n        /* \"web/DAppVoting.sol\":4105:4138  new string[](votingRounds.length) */\n      0xffffffffffffffff\n      dup2\n      gt\n      iszero\n      tag_197\n      jumpi\n      tag_198\n      tag_195\n      jump\t// in\n    tag_198:\n    tag_197:\n      mload(0x40)\n      swap1\n      dup1\n      dup3\n      mstore\n      dup1\n      0x20\n      mul\n      0x20\n      add\n      dup3\n      add\n      0x40\n      mstore\n      dup1\n      iszero\n      tag_199\n      jumpi\n      dup2\n      0x20\n      add\n    tag_200:\n      0x60\n      dup2\n      mstore\n      0x20\n      add\n      swap1\n      0x01\n      swap1\n      sub\n      swap1\n      dup2\n      tag_200\n      jumpi\n      swap1\n      pop\n    tag_199:\n      pop\n        /* \"web/DAppVoting.sol\":4066:4138  string[] memory winningProposalNames = new string[](votingRounds.length) */\n      swap1\n      pop\n        /* \"web/DAppVoting.sol\":4149:4183  uint256[] memory winningVoteCounts */\n      0x00\n        /* \"web/DAppVoting.sol\":4200:4212  votingRounds */\n      0x02\n        /* \"web/DAppVoting.sol\":4200:4219  votingRounds.length */\n      dup1\n      sload\n      swap1\n      pop\n        /* \"web/DAppVoting.sol\":4186:4220  new uint256[](votingRounds.length) */\n      0xffffffffffffffff\n      dup2\n      gt\n      iszero\n      tag_201\n      jumpi\n      tag_202\n      tag_195\n      jump\t// in\n    tag_202:\n    tag_201:\n      mload(0x40)\n      swap1\n      dup1\n      dup3\n      mstore\n      dup1\n      0x20\n      mul\n      0x20\n      add\n      dup3\n      add\n      0x40\n      mstore\n      dup1\n      iszero\n      tag_203\n      jumpi\n      dup2\n      0x20\n      add\n      0x20\n      dup3\n      mul\n      dup1\n      calldatasize\n      dup4\n      calldatacopy\n      dup1\n      dup3\n      add\n      swap2\n      pop\n      pop\n      swap1\n      pop\n    tag_203:\n      pop\n        /* \"web/DAppVoting.sol\":4149:4220  uint256[] memory winningVoteCounts = new uint256[](votingRounds.length) */\n      swap1\n      pop\n        /* \"web/DAppVoting.sol\":4238:4247  uint256 i */\n      0x00\n        /* \"web/DAppVoting.sol\":4233:4492  for (uint256 i = 0; i < votingRounds.length; i++) {... */\n    tag_204:\n        /* \"web/DAppVoting.sol\":4257:4269  votingRounds */\n      0x02\n        /* \"web/DAppVoting.sol\":4257:4276  votingRounds.length */\n      dup1\n      sload\n      swap1\n      pop\n        /* \"web/DAppVoting.sol\":4253:4254  i */\n      dup2\n        /* \"web/DAppVoting.sol\":4253:4276  i < votingRounds.length */\n      lt\n        /* \"web/DAppVoting.sol\":4233:4492  for (uint256 i = 0; i < votingRounds.length; i++) {... */\n      iszero\n      tag_205\n      jumpi\n        /* \"web/DAppVoting.sol\":4316:4328  votingRounds */\n      0x02\n        /* \"web/DAppVoting.sol\":4329:4330  i */\n      dup2\n        /* \"web/DAppVoting.sol\":4316:4331  votingRounds[i] */\n      dup2\n      sload\n      dup2\n      lt\n      tag_207\n      jumpi\n      tag_208\n      tag_125\n      jump\t// in\n    tag_208:\n    tag_207:\n      swap1\n      0x00\n      mstore\n      keccak256(0x00, 0x20)\n      swap1\n      0x03\n      mul\n      add\n        /* \"web/DAppVoting.sol\":4316:4343  votingRounds[i].roundNumber */\n      0x00\n      add\n      sload\n        /* \"web/DAppVoting.sol\":4298:4310  roundNumbers */\n      dup5\n        /* \"web/DAppVoting.sol\":4311:4312  i */\n      dup3\n        /* \"web/DAppVoting.sol\":4298:4313  roundNumbers[i] */\n      dup2\n      mload\n      dup2\n      lt\n      tag_210\n      jumpi\n      tag_211\n      tag_125\n      jump\t// in\n    tag_211:\n    tag_210:\n      0x20\n      mul\n      0x20\n      add\n      add\n        /* \"web/DAppVoting.sol\":4298:4343  roundNumbers[i] = votingRounds[i].roundNumber */\n      dup2\n      dup2\n      mstore\n      pop\n      pop\n        /* \"web/DAppVoting.sol\":4384:4396  votingRounds */\n      0x02\n        /* \"web/DAppVoting.sol\":4397:4398  i */\n      dup2\n        /* \"web/DAppVoting.sol\":4384:4399  votingRounds[i] */\n      dup2\n      sload\n      dup2\n      lt\n      tag_212\n      jumpi\n      tag_213\n      tag_125\n      jump\t// in\n    tag_213:\n    tag_212:\n      swap1\n      0x00\n      mstore\n      keccak256(0x00, 0x20)\n      swap1\n      0x03\n      mul\n      add\n        /* \"web/DAppVoting.sol\":4384:4410  votingRounds[i].winnerName */\n      0x01\n      add\n        /* \"web/DAppVoting.sol\":4358:4410  winningProposalNames[i] = votingRounds[i].winnerName */\n      dup1\n      sload\n      tag_215\n      swap1\n      tag_135\n      jump\t// in\n    tag_215:\n      dup1\n      0x1f\n      add\n      0x20\n      dup1\n      swap2\n      div\n      mul\n      0x20\n      add\n      mload(0x40)\n      swap1\n      dup2\n      add\n      0x40\n      mstore\n      dup1\n      swap3\n      swap2\n      swap1\n      dup2\n      dup2\n      mstore\n      0x20\n      add\n      dup3\n      dup1\n      sload\n      tag_216\n      swap1\n      tag_135\n      jump\t// in\n    tag_216:\n      dup1\n      iszero\n      tag_217\n      jumpi\n      dup1\n      0x1f\n      lt\n      tag_218\n      jumpi\n      0x0100\n      dup1\n      dup4\n      sload\n      div\n      mul\n      dup4\n      mstore\n      swap2\n      0x20\n      add\n      swap2\n      jump(tag_217)\n    tag_218:\n      dup3\n      add\n      swap2\n      swap1\n      0x00\n      mstore\n      keccak256(0x00, 0x20)\n      swap1\n    tag_219:\n      dup2\n      sload\n      dup2\n      mstore\n      swap1\n      0x01\n      add\n      swap1\n      0x20\n      add\n      dup1\n      dup4\n      gt\n      tag_219\n      jumpi\n      dup3\n      swap1\n      sub\n      0x1f\n      and\n      dup3\n      add\n      swap2\n    tag_217:\n      pop\n      pop\n      pop\n      pop\n      pop\n        /* \"web/DAppVoting.sol\":4358:4378  winningProposalNames */\n      dup4\n        /* \"web/DAppVoting.sol\":4379:4380  i */\n      dup3\n        /* \"web/DAppVoting.sol\":4358:4381  winningProposalNames[i] */\n      dup2\n      mload\n      dup2\n      lt\n      tag_220\n      jumpi\n      tag_221\n      tag_125\n      jump\t// in\n    tag_221:\n    tag_220:\n      0x20\n      mul\n      0x20\n      add\n      add\n        /* \"web/DAppVoting.sol\":4358:4410  winningProposalNames[i] = votingRounds[i].winnerName */\n      dup2\n      swap1\n      mstore\n      pop\n        /* \"web/DAppVoting.sol\":4448:4460  votingRounds */\n      0x02\n        /* \"web/DAppVoting.sol\":4461:4462  i */\n      dup2\n        /* \"web/DAppVoting.sol\":4448:4463  votingRounds[i] */\n      dup2\n      sload\n      dup2\n      lt\n      tag_222\n      jumpi\n      tag_223\n      tag_125\n      jump\t// in\n    tag_223:\n    tag_222:\n      swap1\n      0x00\n      mstore\n      keccak256(0x00, 0x20)\n      swap1\n      0x03\n      mul\n      add\n        /* \"web/DAppVoting.sol\":4448:4480  votingRounds[i].winningVoteCount */\n      0x02\n      add\n      sload\n        /* \"web/DAppVoting.sol\":4425:4442  winningVoteCounts */\n      dup3\n        /* \"web/DAppVoting.sol\":4443:4444  i */\n      dup3\n        /* \"web/DAppVoting.sol\":4425:4445  winningVoteCounts[i] */\n      dup2\n      mload\n      dup2\n      lt\n      tag_225\n      jumpi\n      tag_226\n      tag_125\n      jump\t// in\n    tag_226:\n    tag_225:\n      0x20\n      mul\n      0x20\n      add\n      add\n        /* \"web/DAppVoting.sol\":4425:4480  winningVoteCounts[i] = votingRounds[i].winningVoteCount */\n      dup2\n      dup2\n      mstore\n      pop\n      pop\n        /* \"web/DAppVoting.sol\":4278:4281  i++ */\n      dup1\n      dup1\n      0x01\n      add\n      swap2\n      pop\n      pop\n        /* \"web/DAppVoting.sol\":4233:4492  for (uint256 i = 0; i < votingRounds.length; i++) {... */\n      jump(tag_204)\n    tag_205:\n      pop\n        /* \"web/DAppVoting.sol\":4512:4524  roundNumbers */\n      dup3\n        /* \"web/DAppVoting.sol\":4526:4546  winningProposalNames */\n      dup3\n        /* \"web/DAppVoting.sol\":4548:4565  winningVoteCounts */\n      dup3\n        /* \"web/DAppVoting.sol\":4504:4566  return (roundNumbers, winningProposalNames, winningVoteCounts) */\n      swap6\n      pop\n      swap6\n      pop\n      swap6\n      pop\n      pop\n      pop\n      pop\n        /* \"web/DAppVoting.sol\":3876:4574  function getRecentResults() public view returns (uint256[] memory, string[] memory, uint256[] memory) {... */\n      swap1\n      swap2\n      swap3\n      jump\t// out\n        /* \"web/DAppVoting.sol\":4582:5042  function resetVote() external notDestroyed{... */\n    tag_58:\n        /* \"web/DAppVoting.sol\":1187:1198  isDestroyed */\n      0x00\n      0x15\n      swap1\n      sload\n      swap1\n      0x0100\n      exp\n      swap1\n      div\n      0xff\n      and\n        /* \"web/DAppVoting.sol\":1186:1198  !isDestroyed */\n      iszero\n        /* \"web/DAppVoting.sol\":1178:1224  require(!isDestroyed, \"Contract is destroyed\") */\n      tag_228\n      jumpi\n      mload(0x40)\n      0x08c379a000000000000000000000000000000000000000000000000000000000\n      dup2\n      mstore\n      0x04\n      add\n      tag_229\n      swap1\n      tag_105\n      jump\t// in\n    tag_229:\n      mload(0x40)\n      dup1\n      swap2\n      sub\n      swap1\n      revert\n    tag_228:\n        /* \"web/DAppVoting.sol\":4657:4671  projectManager */\n      0x00\n      dup1\n      sload\n      swap1\n      0x0100\n      exp\n      swap1\n      div\n      0xffffffffffffffffffffffffffffffffffffffff\n      and\n        /* \"web/DAppVoting.sol\":4643:4671  msg.sender == projectManager */\n      0xffffffffffffffffffffffffffffffffffffffff\n      and\n        /* \"web/DAppVoting.sol\":4643:4653  msg.sender */\n      caller\n        /* \"web/DAppVoting.sol\":4643:4671  msg.sender == projectManager */\n      0xffffffffffffffffffffffffffffffffffffffff\n      and\n      eq\n        /* \"web/DAppVoting.sol\":4635:4719  require(msg.sender == projectManager, \"Only the contract owner can reset the vote.\") */\n      tag_231\n      jumpi\n      mload(0x40)\n      0x08c379a000000000000000000000000000000000000000000000000000000000\n      dup2\n      mstore\n      0x04\n      add\n      tag_232\n      swap1\n      tag_233\n      jump\t// in\n    tag_232:\n      mload(0x40)\n      dup1\n      swap2\n      sub\n      swap1\n      revert\n    tag_231:\n        /* \"web/DAppVoting.sol\":4738:4750  votingClosed */\n      0x00\n      0x14\n      swap1\n      sload\n      swap1\n      0x0100\n      exp\n      swap1\n      div\n      0xff\n      and\n        /* \"web/DAppVoting.sol\":4730:4784  require(votingClosed, \"Voting process is still open.\") */\n      tag_234\n      jumpi\n      mload(0x40)\n      0x08c379a000000000000000000000000000000000000000000000000000000000\n      dup2\n      mstore\n      0x04\n      add\n      tag_235\n      swap1\n      tag_236\n      jump\t// in\n    tag_235:\n      mload(0x40)\n      dup1\n      swap2\n      sub\n      swap1\n      revert\n    tag_234:\n        /* \"web/DAppVoting.sol\":4802:4808  uint i */\n      0x00\n        /* \"web/DAppVoting.sol\":4797:4894  for (uint i = 0; i < proposals.length; i++) {... */\n    tag_237:\n        /* \"web/DAppVoting.sol\":4818:4827  proposals */\n      0x01\n        /* \"web/DAppVoting.sol\":4818:4834  proposals.length */\n      dup1\n      sload\n      swap1\n      pop\n        /* \"web/DAppVoting.sol\":4814:4815  i */\n      dup2\n        /* \"web/DAppVoting.sol\":4814:4834  i < proposals.length */\n      lt\n        /* \"web/DAppVoting.sol\":4797:4894  for (uint i = 0; i < proposals.length; i++) {... */\n      iszero\n      tag_238\n      jumpi\n        /* \"web/DAppVoting.sol\":4881:4882  0 */\n      0x00\n        /* \"web/DAppVoting.sol\":4856:4865  proposals */\n      0x01\n        /* \"web/DAppVoting.sol\":4866:4867  i */\n      dup3\n        /* \"web/DAppVoting.sol\":4856:4868  proposals[i] */\n      dup2\n      sload\n      dup2\n      lt\n      tag_240\n      jumpi\n      tag_241\n      tag_125\n      jump\t// in\n    tag_241:\n    tag_240:\n      swap1\n      0x00\n      mstore\n      keccak256(0x00, 0x20)\n      swap1\n      0x02\n      mul\n      add\n        /* \"web/DAppVoting.sol\":4856:4878  proposals[i].voteCount */\n      0x01\n      add\n        /* \"web/DAppVoting.sol\":4856:4882  proposals[i].voteCount = 0 */\n      dup2\n      swap1\n      sstore\n      pop\n        /* \"web/DAppVoting.sol\":4836:4839  i++ */\n      dup1\n      dup1\n      0x01\n      add\n      swap2\n      pop\n      pop\n        /* \"web/DAppVoting.sol\":4797:4894  for (uint i = 0; i < proposals.length; i++) {... */\n      jump(tag_237)\n    tag_238:\n      pop\n        /* \"web/DAppVoting.sol\":4911:4917  uint i */\n      0x00\n        /* \"web/DAppVoting.sol\":4906:5002  for (uint i = 0; i < voters.length; i++) {... */\n    tag_243:\n        /* \"web/DAppVoting.sol\":4927:4933  voters */\n      0x04\n        /* \"web/DAppVoting.sol\":4927:4940  voters.length */\n      dup1\n      sload\n      swap1\n      pop\n        /* \"web/DAppVoting.sol\":4923:4924  i */\n      dup2\n        /* \"web/DAppVoting.sol\":4923:4940  i < voters.length */\n      lt\n        /* \"web/DAppVoting.sol\":4906:5002  for (uint i = 0; i < voters.length; i++) {... */\n      iszero\n      tag_244\n      jumpi\n        /* \"web/DAppVoting.sol\":4989:4990  0 */\n      0x00\n        /* \"web/DAppVoting.sol\":4962:4975  votesPerVoter */\n      0x03\n        /* \"web/DAppVoting.sol\":4962:4986  votesPerVoter[voters[i]] */\n      0x00\n        /* \"web/DAppVoting.sol\":4976:4982  voters */\n      0x04\n        /* \"web/DAppVoting.sol\":4983:4984  i */\n      dup5\n        /* \"web/DAppVoting.sol\":4976:4985  voters[i] */\n      dup2\n      sload\n      dup2\n      lt\n      tag_246\n      jumpi\n      tag_247\n      tag_125\n      jump\t// in\n    tag_247:\n    tag_246:\n      swap1\n      0x00\n      mstore\n      keccak256(0x00, 0x20)\n      add\n      0x00\n      swap1\n      sload\n      swap1\n      0x0100\n      exp\n      swap1\n      div\n      0xffffffffffffffffffffffffffffffffffffffff\n      and\n        /* \"web/DAppVoting.sol\":4962:4986  votesPerVoter[voters[i]] */\n      0xffffffffffffffffffffffffffffffffffffffff\n      and\n      0xffffffffffffffffffffffffffffffffffffffff\n      and\n      dup2\n      mstore\n      0x20\n      add\n      swap1\n      dup2\n      mstore\n      0x20\n      add\n      0x00\n      keccak256\n        /* \"web/DAppVoting.sol\":4962:4990  votesPerVoter[voters[i]] = 0 */\n      dup2\n      swap1\n      sstore\n      pop\n        /* \"web/DAppVoting.sol\":4942:4945  i++ */\n      dup1\n      dup1\n      0x01\n      add\n      swap2\n      pop\n      pop\n        /* \"web/DAppVoting.sol\":4906:5002  for (uint i = 0; i < voters.length; i++) {... */\n      jump(tag_243)\n    tag_244:\n      pop\n        /* \"web/DAppVoting.sol\":5029:5034  false */\n      0x00\n        /* \"web/DAppVoting.sol\":5014:5026  votingClosed */\n      dup1\n      0x14\n        /* \"web/DAppVoting.sol\":5014:5034  votingClosed = false */\n      0x0100\n      exp\n      dup2\n      sload\n      dup2\n      0xff\n      mul\n      not\n      and\n      swap1\n      dup4\n      iszero\n      iszero\n      mul\n      or\n      swap1\n      sstore\n      pop\n        /* \"web/DAppVoting.sol\":4582:5042  function resetVote() external notDestroyed{... */\n      jump\t// out\n        /* \"web/DAppVoting.sol\":605:638  VotingRound[] public votingRounds */\n    tag_62:\n      0x02\n      dup2\n      dup2\n      sload\n      dup2\n      lt\n      tag_249\n      jumpi\n      0x00\n      dup1\n      revert\n    tag_249:\n      swap1\n      0x00\n      mstore\n      keccak256(0x00, 0x20)\n      swap1\n      0x03\n      mul\n      add\n      0x00\n      swap2\n      pop\n      swap1\n      pop\n      dup1\n      0x00\n      add\n      sload\n      swap1\n      dup1\n      0x01\n      add\n      dup1\n      sload\n      tag_251\n      swap1\n      tag_135\n      jump\t// in\n    tag_251:\n      dup1\n      0x1f\n      add\n      0x20\n      dup1\n      swap2\n      div\n      mul\n      0x20\n      add\n      mload(0x40)\n      swap1\n      dup2\n      add\n      0x40\n      mstore\n      dup1\n      swap3\n      swap2\n      swap1\n      dup2\n      dup2\n      mstore\n      0x20\n      add\n      dup3\n      dup1\n      sload\n      tag_252\n      swap1\n      tag_135\n      jump\t// in\n    tag_252:\n      dup1\n      iszero\n      tag_253\n      jumpi\n      dup1\n      0x1f\n      lt\n      tag_254\n      jumpi\n      0x0100\n      dup1\n      dup4\n      sload\n      div\n      mul\n      dup4\n      mstore\n      swap2\n      0x20\n      add\n      swap2\n      jump(tag_253)\n    tag_254:\n      dup3\n      add\n      swap2\n      swap1\n      0x00\n      mstore\n      keccak256(0x00, 0x20)\n      swap1\n    tag_255:\n      dup2\n      sload\n      dup2\n      mstore\n      swap1\n      0x01\n      add\n      swap1\n      0x20\n      add\n      dup1\n      dup4\n      gt\n      tag_255\n      jumpi\n      dup3\n      swap1\n      sub\n      0x1f\n      and\n      dup3\n      add\n      swap2\n    tag_253:\n      pop\n      pop\n      pop\n      pop\n      pop\n      swap1\n      dup1\n      0x02\n      add\n      sload\n      swap1\n      pop\n      dup4\n      jump\t// out\n        /* \"web/DAppVoting.sol\":5050:5271  function withdraw() public onlyProjectManager notDestroyed{... */\n    tag_67:\n        /* \"web/DAppVoting.sol\":792:806  projectManager */\n      0x00\n      dup1\n      sload\n      swap1\n      0x0100\n      exp\n      swap1\n      div\n      0xffffffffffffffffffffffffffffffffffffffff\n      and\n        /* \"web/DAppVoting.sol\":778:806  msg.sender == projectManager */\n      0xffffffffffffffffffffffffffffffffffffffff\n      and\n        /* \"web/DAppVoting.sol\":778:788  msg.sender */\n      caller\n        /* \"web/DAppVoting.sol\":778:806  msg.sender == projectManager */\n      0xffffffffffffffffffffffffffffffffffffffff\n      and\n      eq\n        /* \"web/DAppVoting.sol\":770:859  require(msg.sender == projectManager, \"Only the project manager can call this function.\") */\n      tag_257\n      jumpi\n      mload(0x40)\n      0x08c379a000000000000000000000000000000000000000000000000000000000\n      dup2\n      mstore\n      0x04\n      add\n      tag_258\n      swap1\n      tag_143\n      jump\t// in\n    tag_258:\n      mload(0x40)\n      dup1\n      swap2\n      sub\n      swap1\n      revert\n    tag_257:\n        /* \"web/DAppVoting.sol\":1187:1198  isDestroyed */\n      0x00\n      0x15\n      swap1\n      sload\n      swap1\n      0x0100\n      exp\n      swap1\n      div\n      0xff\n      and\n        /* \"web/DAppVoting.sol\":1186:1198  !isDestroyed */\n      iszero\n        /* \"web/DAppVoting.sol\":1178:1224  require(!isDestroyed, \"Contract is destroyed\") */\n      tag_260\n      jumpi\n      mload(0x40)\n      0x08c379a000000000000000000000000000000000000000000000000000000000\n      dup2\n      mstore\n      0x04\n      add\n      tag_261\n      swap1\n      tag_105\n      jump\t// in\n    tag_261:\n      mload(0x40)\n      dup1\n      swap2\n      sub\n      swap1\n      revert\n    tag_260:\n        /* \"web/DAppVoting.sol\":5119:5131  uint balance */\n      0x00\n        /* \"web/DAppVoting.sol\":5134:5155  address(this).balance */\n      selfbalance\n        /* \"web/DAppVoting.sol\":5119:5155  uint balance = address(this).balance */\n      swap1\n      pop\n        /* \"web/DAppVoting.sol\":5184:5185  0 */\n      0x00\n        /* \"web/DAppVoting.sol\":5174:5181  balance */\n      dup2\n        /* \"web/DAppVoting.sol\":5174:5185  balance > 0 */\n      gt\n        /* \"web/DAppVoting.sol\":5166:5211  require(balance > 0, \"No funds to withdraw.\") */\n      tag_263\n      jumpi\n      mload(0x40)\n      0x08c379a000000000000000000000000000000000000000000000000000000000\n      dup2\n      mstore\n      0x04\n      add\n      tag_264\n      swap1\n      tag_265\n      jump\t// in\n    tag_264:\n      mload(0x40)\n      dup1\n      swap2\n      sub\n      swap1\n      revert\n    tag_263:\n        /* \"web/DAppVoting.sol\":5230:5244  projectManager */\n      0x00\n      dup1\n      sload\n      swap1\n      0x0100\n      exp\n      swap1\n      div\n      0xffffffffffffffffffffffffffffffffffffffff\n      and\n        /* \"web/DAppVoting.sol\":5222:5254  payable(projectManager).transfer */\n      0xffffffffffffffffffffffffffffffffffffffff\n      and\n        /* \"web/DAppVoting.sol\":5222:5263  payable(projectManager).transfer(balance) */\n      0x08fc\n        /* \"web/DAppVoting.sol\":5255:5262  balance */\n      dup3\n        /* \"web/DAppVoting.sol\":5222:5263  payable(projectManager).transfer(balance) */\n      swap1\n      dup2\n      iszero\n      mul\n      swap1\n      mload(0x40)\n      0x00\n      mload(0x40)\n      dup1\n      dup4\n      sub\n      dup2\n      dup6\n      dup9\n      dup9\n      call\n      swap4\n      pop\n      pop\n      pop\n      pop\n      iszero\n      dup1\n      iszero\n      tag_267\n      jumpi\n      returndatasize\n      0x00\n      dup1\n      returndatacopy\n      revert(0x00, returndatasize)\n    tag_267:\n      pop\n        /* \"web/DAppVoting.sol\":5108:5271  {... */\n      pop\n        /* \"web/DAppVoting.sol\":5050:5271  function withdraw() public onlyProjectManager notDestroyed{... */\n      jump\t// out\n        /* \"web/DAppVoting.sol\":1958:2091  function getUserVotes(address user) public view notDestroyed returns (uint) {... */\n    tag_72:\n        /* \"web/DAppVoting.sol\":2028:2032  uint */\n      0x00\n        /* \"web/DAppVoting.sol\":1187:1198  isDestroyed */\n      dup1\n      0x15\n      swap1\n      sload\n      swap1\n      0x0100\n      exp\n      swap1\n      div\n      0xff\n      and\n        /* \"web/DAppVoting.sol\":1186:1198  !isDestroyed */\n      iszero\n        /* \"web/DAppVoting.sol\":1178:1224  require(!isDestroyed, \"Contract is destroyed\") */\n      tag_269\n      jumpi\n      mload(0x40)\n      0x08c379a000000000000000000000000000000000000000000000000000000000\n      dup2\n      mstore\n      0x04\n      add\n      tag_270\n      swap1\n      tag_105\n      jump\t// in\n    tag_270:\n      mload(0x40)\n      dup1\n      swap2\n      sub\n      swap1\n      revert\n    tag_269:\n        /* \"web/DAppVoting.sol\":2064:2077  votesPerVoter */\n      0x03\n        /* \"web/DAppVoting.sol\":2064:2083  votesPerVoter[user] */\n      0x00\n        /* \"web/DAppVoting.sol\":2078:2082  user */\n      dup4\n        /* \"web/DAppVoting.sol\":2064:2083  votesPerVoter[user] */\n      0xffffffffffffffffffffffffffffffffffffffff\n      and\n      0xffffffffffffffffffffffffffffffffffffffff\n      and\n      dup2\n      mstore\n      0x20\n      add\n      swap1\n      dup2\n      mstore\n      0x20\n      add\n      0x00\n      keccak256\n      sload\n        /* \"web/DAppVoting.sol\":188:189  5 */\n      0x05\n        /* \"web/DAppVoting.sol\":2052:2083  MAX_VOTES - votesPerVoter[user] */\n      tag_272\n      swap2\n      swap1\n      tag_273\n      jump\t// in\n    tag_272:\n        /* \"web/DAppVoting.sol\":2045:2083  return MAX_VOTES - votesPerVoter[user] */\n      swap1\n      pop\n        /* \"web/DAppVoting.sol\":1958:2091  function getUserVotes(address user) public view notDestroyed returns (uint) {... */\n      swap2\n      swap1\n      pop\n      jump\t// out\n        /* \"web/DAppVoting.sol\":645:690  mapping(address => uint) public votesPerVoter */\n    tag_78:\n      mstore(0x20, 0x03)\n      dup1\n      0x00\n      mstore\n      keccak256(0x00, 0x40)\n      0x00\n      swap2\n      pop\n      swap1\n      pop\n      sload\n      dup2\n      jump\t// out\n        /* \"web/DAppVoting.sol\":332:355  bool public isDestroyed */\n    tag_82:\n      0x00\n      0x15\n      swap1\n      sload\n      swap1\n      0x0100\n      exp\n      swap1\n      div\n      0xff\n      and\n      dup2\n      jump\t// out\n        /* \"web/DAppVoting.sol\":5279:5478  function changeOwner(address newOwner) public onlyProjectManager notDestroyed{... */\n    tag_87:\n        /* \"web/DAppVoting.sol\":792:806  projectManager */\n      0x00\n      dup1\n      sload\n      swap1\n      0x0100\n      exp\n      swap1\n      div\n      0xffffffffffffffffffffffffffffffffffffffff\n      and\n        /* \"web/DAppVoting.sol\":778:806  msg.sender == projectManager */\n      0xffffffffffffffffffffffffffffffffffffffff\n      and\n        /* \"web/DAppVoting.sol\":778:788  msg.sender */\n      caller\n        /* \"web/DAppVoting.sol\":778:806  msg.sender == projectManager */\n      0xffffffffffffffffffffffffffffffffffffffff\n      and\n      eq\n        /* \"web/DAppVoting.sol\":770:859  require(msg.sender == projectManager, \"Only the project manager can call this function.\") */\n      tag_275\n      jumpi\n      mload(0x40)\n      0x08c379a000000000000000000000000000000000000000000000000000000000\n      dup2\n      mstore\n      0x04\n      add\n      tag_276\n      swap1\n      tag_143\n      jump\t// in\n    tag_276:\n      mload(0x40)\n      dup1\n      swap2\n      sub\n      swap1\n      revert\n    tag_275:\n        /* \"web/DAppVoting.sol\":1187:1198  isDestroyed */\n      0x00\n      0x15\n      swap1\n      sload\n      swap1\n      0x0100\n      exp\n      swap1\n      div\n      0xff\n      and\n        /* \"web/DAppVoting.sol\":1186:1198  !isDestroyed */\n      iszero\n        /* \"web/DAppVoting.sol\":1178:1224  require(!isDestroyed, \"Contract is destroyed\") */\n      tag_278\n      jumpi\n      mload(0x40)\n      0x08c379a000000000000000000000000000000000000000000000000000000000\n      dup2\n      mstore\n      0x04\n      add\n      tag_279\n      swap1\n      tag_105\n      jump\t// in\n    tag_279:\n      mload(0x40)\n      dup1\n      swap2\n      sub\n      swap1\n      revert\n    tag_278:\n        /* \"web/DAppVoting.sol\":5395:5396  0 */\n      0x00\n        /* \"web/DAppVoting.sol\":5375:5397  newOwner != address(0) */\n      0xffffffffffffffffffffffffffffffffffffffff\n      and\n        /* \"web/DAppVoting.sol\":5375:5383  newOwner */\n      dup2\n        /* \"web/DAppVoting.sol\":5375:5397  newOwner != address(0) */\n      0xffffffffffffffffffffffffffffffffffffffff\n      and\n      sub\n        /* \"web/DAppVoting.sol\":5367:5434  require(newOwner != address(0), \"New owner address cannot be zero\") */\n      tag_281\n      jumpi\n      mload(0x40)\n      0x08c379a000000000000000000000000000000000000000000000000000000000\n      dup2\n      mstore\n      0x04\n      add\n      tag_282\n      swap1\n      tag_283\n      jump\t// in\n    tag_282:\n      mload(0x40)\n      dup1\n      swap2\n      sub\n      swap1\n      revert\n    tag_281:\n        /* \"web/DAppVoting.sol\":5462:5470  newOwner */\n      dup1\n        /* \"web/DAppVoting.sol\":5445:5459  projectManager */\n      0x00\n      dup1\n        /* \"web/DAppVoting.sol\":5445:5470  projectManager = newOwner */\n      0x0100\n      exp\n      dup2\n      sload\n      dup2\n      0xffffffffffffffffffffffffffffffffffffffff\n      mul\n      not\n      and\n      swap1\n      dup4\n      0xffffffffffffffffffffffffffffffffffffffff\n      and\n      mul\n      or\n      swap1\n      sstore\n      pop\n        /* \"web/DAppVoting.sol\":5279:5478  function changeOwner(address newOwner) public onlyProjectManager notDestroyed{... */\n      pop\n      jump\t// out\n        /* \"web/DAppVoting.sol\":3207:3308  function votingOpen() public view notDestroyed returns (bool) {... */\n    tag_90:\n        /* \"web/DAppVoting.sol\":3263:3267  bool */\n      0x00\n        /* \"web/DAppVoting.sol\":1187:1198  isDestroyed */\n      dup1\n      0x15\n      swap1\n      sload\n      swap1\n      0x0100\n      exp\n      swap1\n      div\n      0xff\n      and\n        /* \"web/DAppVoting.sol\":1186:1198  !isDestroyed */\n      iszero\n        /* \"web/DAppVoting.sol\":1178:1224  require(!isDestroyed, \"Contract is destroyed\") */\n      tag_285\n      jumpi\n      mload(0x40)\n      0x08c379a000000000000000000000000000000000000000000000000000000000\n      dup2\n      mstore\n      0x04\n      add\n      tag_286\n      swap1\n      tag_105\n      jump\t// in\n    tag_286:\n      mload(0x40)\n      dup1\n      swap2\n      sub\n      swap1\n      revert\n    tag_285:\n        /* \"web/DAppVoting.sol\":3288:3300  votingClosed */\n      0x00\n      0x14\n      swap1\n      sload\n      swap1\n      0x0100\n      exp\n      swap1\n      div\n      0xff\n      and\n        /* \"web/DAppVoting.sol\":3287:3300  !votingClosed */\n      iszero\n        /* \"web/DAppVoting.sol\":3280:3300  return !votingClosed */\n      swap1\n      pop\n        /* \"web/DAppVoting.sol\":3207:3308  function votingOpen() public view notDestroyed returns (bool) {... */\n      swap1\n      jump\t// out\n        /* \"web/DAppVoting.sol\":3059:3199  function getVoteCount(uint proposalIndex) public view notDestroyed returns(uint){... */\n    tag_95:\n        /* \"web/DAppVoting.sol\":3134:3138  uint */\n      0x00\n        /* \"web/DAppVoting.sol\":1187:1198  isDestroyed */\n      dup1\n      0x15\n      swap1\n      sload\n      swap1\n      0x0100\n      exp\n      swap1\n      div\n      0xff\n      and\n        /* \"web/DAppVoting.sol\":1186:1198  !isDestroyed */\n      iszero\n        /* \"web/DAppVoting.sol\":1178:1224  require(!isDestroyed, \"Contract is destroyed\") */\n      tag_289\n      jumpi\n      mload(0x40)\n      0x08c379a000000000000000000000000000000000000000000000000000000000\n      dup2\n      mstore\n      0x04\n      add\n      tag_290\n      swap1\n      tag_105\n      jump\t// in\n    tag_290:\n      mload(0x40)\n      dup1\n      swap2\n      sub\n      swap1\n      revert\n    tag_289:\n        /* \"web/DAppVoting.sol\":3157:3166  proposals */\n      0x01\n        /* \"web/DAppVoting.sol\":3167:3180  proposalIndex */\n      dup3\n        /* \"web/DAppVoting.sol\":3157:3181  proposals[proposalIndex] */\n      dup2\n      sload\n      dup2\n      lt\n      tag_292\n      jumpi\n      tag_293\n      tag_125\n      jump\t// in\n    tag_293:\n    tag_292:\n      swap1\n      0x00\n      mstore\n      keccak256(0x00, 0x20)\n      swap1\n      0x02\n      mul\n      add\n        /* \"web/DAppVoting.sol\":3157:3191  proposals[proposalIndex].voteCount */\n      0x01\n      add\n      sload\n        /* \"web/DAppVoting.sol\":3150:3191  return proposals[proposalIndex].voteCount */\n      swap1\n      pop\n        /* \"web/DAppVoting.sol\":3059:3199  function getVoteCount(uint proposalIndex) public view notDestroyed returns(uint){... */\n      swap2\n      swap1\n      pop\n      jump\t// out\n        /* \"web/DAppVoting.sol\":697:720  address[] public voters */\n    tag_100:\n      0x04\n      dup2\n      dup2\n      sload\n      dup2\n      lt\n      tag_295\n      jumpi\n      0x00\n      dup1\n      revert\n    tag_295:\n      swap1\n      0x00\n      mstore\n      keccak256(0x00, 0x20)\n      add\n      0x00\n      swap2\n      pop\n      sload\n      swap1\n      0x0100\n      exp\n      swap1\n      div\n      0xffffffffffffffffffffffffffffffffffffffff\n      and\n      dup2\n      jump\t// out\n        /* \"web/DAppVoting.sol\":3316:3868  function drawTie() internal view notDestroyed returns (uint) {... */\n    tag_178:\n        /* \"web/DAppVoting.sol\":3371:3375  uint */\n      0x00\n        /* \"web/DAppVoting.sol\":1187:1198  isDestroyed */\n      dup1\n      0x15\n      swap1\n      sload\n      swap1\n      0x0100\n      exp\n      swap1\n      div\n      0xff\n      and\n        /* \"web/DAppVoting.sol\":1186:1198  !isDestroyed */\n      iszero\n        /* \"web/DAppVoting.sol\":1178:1224  require(!isDestroyed, \"Contract is destroyed\") */\n      tag_298\n      jumpi\n      mload(0x40)\n      0x08c379a000000000000000000000000000000000000000000000000000000000\n      dup2\n      mstore\n      0x04\n      add\n      tag_299\n      swap1\n      tag_105\n      jump\t// in\n    tag_299:\n      mload(0x40)\n      dup1\n      swap2\n      sub\n      swap1\n      revert\n    tag_298:\n        /* \"web/DAppVoting.sol\":3388:3415  uint[] memory tiedProposals */\n      0x00\n        /* \"web/DAppVoting.sol\":3429:3438  proposals */\n      0x01\n        /* \"web/DAppVoting.sol\":3429:3445  proposals.length */\n      dup1\n      sload\n      swap1\n      pop\n        /* \"web/DAppVoting.sol\":3418:3446  new uint[](proposals.length) */\n      0xffffffffffffffff\n      dup2\n      gt\n      iszero\n      tag_301\n      jumpi\n      tag_302\n      tag_195\n      jump\t// in\n    tag_302:\n    tag_301:\n      mload(0x40)\n      swap1\n      dup1\n      dup3\n      mstore\n      dup1\n      0x20\n      mul\n      0x20\n      add\n      dup3\n      add\n      0x40\n      mstore\n      dup1\n      iszero\n      tag_303\n      jumpi\n      dup2\n      0x20\n      add\n      0x20\n      dup3\n      mul\n      dup1\n      calldatasize\n      dup4\n      calldatacopy\n      dup1\n      dup3\n      add\n      swap2\n      pop\n      pop\n      swap1\n      pop\n    tag_303:\n      pop\n        /* \"web/DAppVoting.sol\":3388:3446  uint[] memory tiedProposals = new uint[](proposals.length) */\n      swap1\n      pop\n        /* \"web/DAppVoting.sol\":3457:3467  uint count */\n      0x00\n        /* \"web/DAppVoting.sol\":3482:3503  uint winningVoteCount */\n      dup1\n        /* \"web/DAppVoting.sol\":3506:3515  proposals */\n      0x01\n        /* \"web/DAppVoting.sol\":3516:3517  0 */\n      0x00\n        /* \"web/DAppVoting.sol\":3506:3518  proposals[0] */\n      dup2\n      sload\n      dup2\n      lt\n      tag_304\n      jumpi\n      tag_305\n      tag_125\n      jump\t// in\n    tag_305:\n    tag_304:\n      swap1\n      0x00\n      mstore\n      keccak256(0x00, 0x20)\n      swap1\n      0x02\n      mul\n      add\n        /* \"web/DAppVoting.sol\":3506:3528  proposals[0].voteCount */\n      0x01\n      add\n      sload\n        /* \"web/DAppVoting.sol\":3482:3528  uint winningVoteCount = proposals[0].voteCount */\n      swap1\n      pop\n        /* \"web/DAppVoting.sol\":3546:3552  uint i */\n      0x00\n        /* \"web/DAppVoting.sol\":3541:3744  for (uint i = 0; i < proposals.length; i++) {... */\n    tag_307:\n        /* \"web/DAppVoting.sol\":3562:3571  proposals */\n      0x01\n        /* \"web/DAppVoting.sol\":3562:3578  proposals.length */\n      dup1\n      sload\n      swap1\n      pop\n        /* \"web/DAppVoting.sol\":3558:3559  i */\n      dup2\n        /* \"web/DAppVoting.sol\":3558:3578  i < proposals.length */\n      lt\n        /* \"web/DAppVoting.sol\":3541:3744  for (uint i = 0; i < proposals.length; i++) {... */\n      iszero\n      tag_308\n      jumpi\n        /* \"web/DAppVoting.sol\":3630:3646  winningVoteCount */\n      dup2\n        /* \"web/DAppVoting.sol\":3604:3613  proposals */\n      0x01\n        /* \"web/DAppVoting.sol\":3614:3615  i */\n      dup3\n        /* \"web/DAppVoting.sol\":3604:3616  proposals[i] */\n      dup2\n      sload\n      dup2\n      lt\n      tag_310\n      jumpi\n      tag_311\n      tag_125\n      jump\t// in\n    tag_311:\n    tag_310:\n      swap1\n      0x00\n      mstore\n      keccak256(0x00, 0x20)\n      swap1\n      0x02\n      mul\n      add\n        /* \"web/DAppVoting.sol\":3604:3626  proposals[i].voteCount */\n      0x01\n      add\n      sload\n        /* \"web/DAppVoting.sol\":3604:3646  proposals[i].voteCount == winningVoteCount */\n      sub\n        /* \"web/DAppVoting.sol\":3600:3733  if (proposals[i].voteCount == winningVoteCount) {... */\n      tag_313\n      jumpi\n        /* \"web/DAppVoting.sol\":3690:3691  i */\n      dup1\n        /* \"web/DAppVoting.sol\":3667:3680  tiedProposals */\n      dup5\n        /* \"web/DAppVoting.sol\":3681:3686  count */\n      dup5\n        /* \"web/DAppVoting.sol\":3667:3687  tiedProposals[count] */\n      dup2\n      mload\n      dup2\n      lt\n      tag_314\n      jumpi\n      tag_315\n      tag_125\n      jump\t// in\n    tag_315:\n    tag_314:\n      0x20\n      mul\n      0x20\n      add\n      add\n        /* \"web/DAppVoting.sol\":3667:3691  tiedProposals[count] = i */\n      dup2\n      dup2\n      mstore\n      pop\n      pop\n        /* \"web/DAppVoting.sol\":3710:3717  count++ */\n      dup3\n      dup1\n      tag_316\n      swap1\n      tag_317\n      jump\t// in\n    tag_316:\n      swap4\n      pop\n      pop\n        /* \"web/DAppVoting.sol\":3600:3733  if (proposals[i].voteCount == winningVoteCount) {... */\n    tag_313:\n        /* \"web/DAppVoting.sol\":3580:3583  i++ */\n      dup1\n      dup1\n      0x01\n      add\n      swap2\n      pop\n      pop\n        /* \"web/DAppVoting.sol\":3541:3744  for (uint i = 0; i < proposals.length; i++) {... */\n      jump(tag_307)\n    tag_308:\n      pop\n        /* \"web/DAppVoting.sol\":3756:3772  uint randomIndex */\n      0x00\n        /* \"web/DAppVoting.sol\":3811:3816  count */\n      dup3\n        /* \"web/DAppVoting.sol\":3805:3806  1 */\n      0x01\n        /* \"web/DAppVoting.sol\":3790:3802  block.number */\n      number\n        /* \"web/DAppVoting.sol\":3790:3806  block.number - 1 */\n      tag_318\n      swap2\n      swap1\n      tag_273\n      jump\t// in\n    tag_318:\n        /* \"web/DAppVoting.sol\":3780:3807  blockhash(block.number - 1) */\n      blockhash\n        /* \"web/DAppVoting.sol\":3775:3808  uint(blockhash(block.number - 1)) */\n      0x00\n      shr\n        /* \"web/DAppVoting.sol\":3775:3816  uint(blockhash(block.number - 1)) % count */\n      tag_319\n      swap2\n      swap1\n      tag_320\n      jump\t// in\n    tag_319:\n        /* \"web/DAppVoting.sol\":3756:3816  uint randomIndex = uint(blockhash(block.number - 1)) % count */\n      swap1\n      pop\n        /* \"web/DAppVoting.sol\":3834:3847  tiedProposals */\n      dup4\n        /* \"web/DAppVoting.sol\":3848:3859  randomIndex */\n      dup2\n        /* \"web/DAppVoting.sol\":3834:3860  tiedProposals[randomIndex] */\n      dup2\n      mload\n      dup2\n      lt\n      tag_321\n      jumpi\n      tag_322\n      tag_125\n      jump\t// in\n    tag_322:\n    tag_321:\n      0x20\n      mul\n      0x20\n      add\n      add\n      mload\n        /* \"web/DAppVoting.sol\":3827:3860  return tiedProposals[randomIndex] */\n      swap5\n      pop\n      pop\n      pop\n      pop\n      pop\n        /* \"web/DAppVoting.sol\":3316:3868  function drawTie() internal view notDestroyed returns (uint) {... */\n      swap1\n      jump\t// out\n        /* \"#utility.yul\":88:205   */\n    tag_324:\n        /* \"#utility.yul\":197:198   */\n      0x00\n        /* \"#utility.yul\":194:195   */\n      dup1\n        /* \"#utility.yul\":187:199   */\n      revert\n        /* \"#utility.yul\":334:411   */\n    tag_326:\n        /* \"#utility.yul\":371:378   */\n      0x00\n        /* \"#utility.yul\":400:405   */\n      dup2\n        /* \"#utility.yul\":389:405   */\n      swap1\n      pop\n        /* \"#utility.yul\":334:411   */\n      swap2\n      swap1\n      pop\n      jump\t// out\n        /* \"#utility.yul\":417:539   */\n    tag_327:\n        /* \"#utility.yul\":490:514   */\n      tag_405\n        /* \"#utility.yul\":508:513   */\n      dup2\n        /* \"#utility.yul\":490:514   */\n      tag_326\n      jump\t// in\n    tag_405:\n        /* \"#utility.yul\":483:488   */\n      dup2\n        /* \"#utility.yul\":480:515   */\n      eq\n        /* \"#utility.yul\":470:533   */\n      tag_406\n      jumpi\n        /* \"#utility.yul\":529:530   */\n      0x00\n        /* \"#utility.yul\":526:527   */\n      dup1\n        /* \"#utility.yul\":519:531   */\n      revert\n        /* \"#utility.yul\":470:533   */\n    tag_406:\n        /* \"#utility.yul\":417:539   */\n      pop\n      jump\t// out\n        /* \"#utility.yul\":545:684   */\n    tag_328:\n        /* \"#utility.yul\":591:596   */\n      0x00\n        /* \"#utility.yul\":629:635   */\n      dup2\n        /* \"#utility.yul\":616:636   */\n      calldataload\n        /* \"#utility.yul\":607:636   */\n      swap1\n      pop\n        /* \"#utility.yul\":645:678   */\n      tag_408\n        /* \"#utility.yul\":672:677   */\n      dup2\n        /* \"#utility.yul\":645:678   */\n      tag_327\n      jump\t// in\n    tag_408:\n        /* \"#utility.yul\":545:684   */\n      swap3\n      swap2\n      pop\n      pop\n      jump\t// out\n        /* \"#utility.yul\":690:1019   */\n    tag_24:\n        /* \"#utility.yul\":749:755   */\n      0x00\n        /* \"#utility.yul\":798:800   */\n      0x20\n        /* \"#utility.yul\":786:795   */\n      dup3\n        /* \"#utility.yul\":777:784   */\n      dup5\n        /* \"#utility.yul\":773:796   */\n      sub\n        /* \"#utility.yul\":769:801   */\n      slt\n        /* \"#utility.yul\":766:885   */\n      iszero\n      tag_410\n      jumpi\n        /* \"#utility.yul\":804:883   */\n      tag_411\n      tag_324\n      jump\t// in\n    tag_411:\n        /* \"#utility.yul\":766:885   */\n    tag_410:\n        /* \"#utility.yul\":924:925   */\n      0x00\n        /* \"#utility.yul\":949:1002   */\n      tag_412\n        /* \"#utility.yul\":994:1001   */\n      dup5\n        /* \"#utility.yul\":985:991   */\n      dup3\n        /* \"#utility.yul\":974:983   */\n      dup6\n        /* \"#utility.yul\":970:992   */\n      add\n        /* \"#utility.yul\":949:1002   */\n      tag_328\n      jump\t// in\n    tag_412:\n        /* \"#utility.yul\":939:1002   */\n      swap2\n      pop\n        /* \"#utility.yul\":895:1012   */\n      pop\n        /* \"#utility.yul\":690:1019   */\n      swap3\n      swap2\n      pop\n      pop\n      jump\t// out\n        /* \"#utility.yul\":1025:1124   */\n    tag_329:\n        /* \"#utility.yul\":1077:1083   */\n      0x00\n        /* \"#utility.yul\":1111:1116   */\n      dup2\n        /* \"#utility.yul\":1105:1117   */\n      mload\n        /* \"#utility.yul\":1095:1117   */\n      swap1\n      pop\n        /* \"#utility.yul\":1025:1124   */\n      swap2\n      swap1\n      pop\n      jump\t// out\n        /* \"#utility.yul\":1130:1299   */\n    tag_330:\n        /* \"#utility.yul\":1214:1225   */\n      0x00\n        /* \"#utility.yul\":1248:1254   */\n      dup3\n        /* \"#utility.yul\":1243:1246   */\n      dup3\n        /* \"#utility.yul\":1236:1255   */\n      mstore\n        /* \"#utility.yul\":1288:1292   */\n      0x20\n        /* \"#utility.yul\":1283:1286   */\n      dup3\n        /* \"#utility.yul\":1279:1293   */\n      add\n        /* \"#utility.yul\":1264:1293   */\n      swap1\n      pop\n        /* \"#utility.yul\":1130:1299   */\n      swap3\n      swap2\n      pop\n      pop\n      jump\t// out\n        /* \"#utility.yul\":1305:1553   */\n    tag_331:\n        /* \"#utility.yul\":1387:1388   */\n      0x00\n        /* \"#utility.yul\":1397:1510   */\n    tag_416:\n        /* \"#utility.yul\":1411:1417   */\n      dup4\n        /* \"#utility.yul\":1408:1409   */\n      dup2\n        /* \"#utility.yul\":1405:1418   */\n      lt\n        /* \"#utility.yul\":1397:1510   */\n      iszero\n      tag_418\n      jumpi\n        /* \"#utility.yul\":1496:1497   */\n      dup1\n        /* \"#utility.yul\":1491:1494   */\n      dup3\n        /* \"#utility.yul\":1487:1498   */\n      add\n        /* \"#utility.yul\":1481:1499   */\n      mload\n        /* \"#utility.yul\":1477:1478   */\n      dup2\n        /* \"#utility.yul\":1472:1475   */\n      dup5\n        /* \"#utility.yul\":1468:1479   */\n      add\n        /* \"#utility.yul\":1461:1500   */\n      mstore\n        /* \"#utility.yul\":1433:1435   */\n      0x20\n        /* \"#utility.yul\":1430:1431   */\n      dup2\n        /* \"#utility.yul\":1426:1436   */\n      add\n        /* \"#utility.yul\":1421:1436   */\n      swap1\n      pop\n        /* \"#utility.yul\":1397:1510   */\n      jump(tag_416)\n    tag_418:\n        /* \"#utility.yul\":1544:1545   */\n      0x00\n        /* \"#utility.yul\":1535:1541   */\n      dup5\n        /* \"#utility.yul\":1530:1533   */\n      dup5\n        /* \"#utility.yul\":1526:1542   */\n      add\n        /* \"#utility.yul\":1519:1546   */\n      mstore\n        /* \"#utility.yul\":1367:1553   */\n      pop\n        /* \"#utility.yul\":1305:1553   */\n      pop\n      pop\n      pop\n      jump\t// out\n        /* \"#utility.yul\":1559:1661   */\n    tag_332:\n        /* \"#utility.yul\":1600:1606   */\n      0x00\n        /* \"#utility.yul\":1651:1653   */\n      0x1f\n        /* \"#utility.yul\":1647:1654   */\n      not\n        /* \"#utility.yul\":1642:1644   */\n      0x1f\n        /* \"#utility.yul\":1635:1640   */\n      dup4\n        /* \"#utility.yul\":1631:1645   */\n      add\n        /* \"#utility.yul\":1627:1655   */\n      and\n        /* \"#utility.yul\":1617:1655   */\n      swap1\n      pop\n        /* \"#utility.yul\":1559:1661   */\n      swap2\n      swap1\n      pop\n      jump\t// out\n        /* \"#utility.yul\":1667:2044   */\n    tag_333:\n        /* \"#utility.yul\":1755:1758   */\n      0x00\n        /* \"#utility.yul\":1783:1822   */\n      tag_421\n        /* \"#utility.yul\":1816:1821   */\n      dup3\n        /* \"#utility.yul\":1783:1822   */\n      tag_329\n      jump\t// in\n    tag_421:\n        /* \"#utility.yul\":1838:1909   */\n      tag_422\n        /* \"#utility.yul\":1902:1908   */\n      dup2\n        /* \"#utility.yul\":1897:1900   */\n      dup6\n        /* \"#utility.yul\":1838:1909   */\n      tag_330\n      jump\t// in\n    tag_422:\n        /* \"#utility.yul\":1831:1909   */\n      swap4\n      pop\n        /* \"#utility.yul\":1918:1983   */\n      tag_423\n        /* \"#utility.yul\":1976:1982   */\n      dup2\n        /* \"#utility.yul\":1971:1974   */\n      dup6\n        /* \"#utility.yul\":1964:1968   */\n      0x20\n        /* \"#utility.yul\":1957:1962   */\n      dup7\n        /* \"#utility.yul\":1953:1969   */\n      add\n        /* \"#utility.yul\":1918:1983   */\n      tag_331\n      jump\t// in\n    tag_423:\n        /* \"#utility.yul\":2008:2037   */\n      tag_424\n        /* \"#utility.yul\":2030:2036   */\n      dup2\n        /* \"#utility.yul\":2008:2037   */\n      tag_332\n      jump\t// in\n    tag_424:\n        /* \"#utility.yul\":2003:2006   */\n      dup5\n        /* \"#utility.yul\":1999:2038   */\n      add\n        /* \"#utility.yul\":1992:2038   */\n      swap2\n      pop\n        /* \"#utility.yul\":1759:2044   */\n      pop\n        /* \"#utility.yul\":1667:2044   */\n      swap3\n      swap2\n      pop\n      pop\n      jump\t// out\n        /* \"#utility.yul\":2050:2168   */\n    tag_334:\n        /* \"#utility.yul\":2137:2161   */\n      tag_426\n        /* \"#utility.yul\":2155:2160   */\n      dup2\n        /* \"#utility.yul\":2137:2161   */\n      tag_326\n      jump\t// in\n    tag_426:\n        /* \"#utility.yul\":2132:2135   */\n      dup3\n        /* \"#utility.yul\":2125:2162   */\n      mstore\n        /* \"#utility.yul\":2050:2168   */\n      pop\n      pop\n      jump\t// out\n        /* \"#utility.yul\":2174:2597   */\n    tag_31:\n        /* \"#utility.yul\":2315:2319   */\n      0x00\n        /* \"#utility.yul\":2353:2355   */\n      0x40\n        /* \"#utility.yul\":2342:2351   */\n      dup3\n        /* \"#utility.yul\":2338:2356   */\n      add\n        /* \"#utility.yul\":2330:2356   */\n      swap1\n      pop\n        /* \"#utility.yul\":2402:2411   */\n      dup2\n        /* \"#utility.yul\":2396:2400   */\n      dup2\n        /* \"#utility.yul\":2392:2412   */\n      sub\n        /* \"#utility.yul\":2388:2389   */\n      0x00\n        /* \"#utility.yul\":2377:2386   */\n      dup4\n        /* \"#utility.yul\":2373:2390   */\n      add\n        /* \"#utility.yul\":2366:2413   */\n      mstore\n        /* \"#utility.yul\":2430:2508   */\n      tag_428\n        /* \"#utility.yul\":2503:2507   */\n      dup2\n        /* \"#utility.yul\":2494:2500   */\n      dup6\n        /* \"#utility.yul\":2430:2508   */\n      tag_333\n      jump\t// in\n    tag_428:\n        /* \"#utility.yul\":2422:2508   */\n      swap1\n      pop\n        /* \"#utility.yul\":2518:2590   */\n      tag_429\n        /* \"#utility.yul\":2586:2588   */\n      0x20\n        /* \"#utility.yul\":2575:2584   */\n      dup4\n        /* \"#utility.yul\":2571:2589   */\n      add\n        /* \"#utility.yul\":2562:2568   */\n      dup5\n        /* \"#utility.yul\":2518:2590   */\n      tag_334\n      jump\t// in\n    tag_429:\n        /* \"#utility.yul\":2174:2597   */\n      swap4\n      swap3\n      pop\n      pop\n      pop\n      jump\t// out\n        /* \"#utility.yul\":2603:2729   */\n    tag_335:\n        /* \"#utility.yul\":2640:2647   */\n      0x00\n        /* \"#utility.yul\":2680:2722   */\n      0xffffffffffffffffffffffffffffffffffffffff\n        /* \"#utility.yul\":2673:2678   */\n      dup3\n        /* \"#utility.yul\":2669:2723   */\n      and\n        /* \"#utility.yul\":2658:2723   */\n      swap1\n      pop\n        /* \"#utility.yul\":2603:2729   */\n      swap2\n      swap1\n      pop\n      jump\t// out\n        /* \"#utility.yul\":2735:2831   */\n    tag_336:\n        /* \"#utility.yul\":2772:2779   */\n      0x00\n        /* \"#utility.yul\":2801:2825   */\n      tag_432\n        /* \"#utility.yul\":2819:2824   */\n      dup3\n        /* \"#utility.yul\":2801:2825   */\n      tag_335\n      jump\t// in\n    tag_432:\n        /* \"#utility.yul\":2790:2825   */\n      swap1\n      pop\n        /* \"#utility.yul\":2735:2831   */\n      swap2\n      swap1\n      pop\n      jump\t// out\n        /* \"#utility.yul\":2837:2955   */\n    tag_337:\n        /* \"#utility.yul\":2924:2948   */\n      tag_434\n        /* \"#utility.yul\":2942:2947   */\n      dup2\n        /* \"#utility.yul\":2924:2948   */\n      tag_336\n      jump\t// in\n    tag_434:\n        /* \"#utility.yul\":2919:2922   */\n      dup3\n        /* \"#utility.yul\":2912:2949   */\n      mstore\n        /* \"#utility.yul\":2837:2955   */\n      pop\n      pop\n      jump\t// out\n        /* \"#utility.yul\":2961:3183   */\n    tag_36:\n        /* \"#utility.yul\":3054:3058   */\n      0x00\n        /* \"#utility.yul\":3092:3094   */\n      0x20\n        /* \"#utility.yul\":3081:3090   */\n      dup3\n        /* \"#utility.yul\":3077:3095   */\n      add\n        /* \"#utility.yul\":3069:3095   */\n      swap1\n      pop\n        /* \"#utility.yul\":3105:3176   */\n      tag_436\n        /* \"#utility.yul\":3173:3174   */\n      0x00\n        /* \"#utility.yul\":3162:3171   */\n      dup4\n        /* \"#utility.yul\":3158:3175   */\n      add\n        /* \"#utility.yul\":3149:3155   */\n      dup5\n        /* \"#utility.yul\":3105:3176   */\n      tag_337\n      jump\t// in\n    tag_436:\n        /* \"#utility.yul\":2961:3183   */\n      swap3\n      swap2\n      pop\n      pop\n      jump\t// out\n        /* \"#utility.yul\":3189:3279   */\n    tag_338:\n        /* \"#utility.yul\":3223:3230   */\n      0x00\n        /* \"#utility.yul\":3266:3271   */\n      dup2\n        /* \"#utility.yul\":3259:3272   */\n      iszero\n        /* \"#utility.yul\":3252:3273   */\n      iszero\n        /* \"#utility.yul\":3241:3273   */\n      swap1\n      pop\n        /* \"#utility.yul\":3189:3279   */\n      swap2\n      swap1\n      pop\n      jump\t// out\n        /* \"#utility.yul\":3285:3394   */\n    tag_339:\n        /* \"#utility.yul\":3366:3387   */\n      tag_439\n        /* \"#utility.yul\":3381:3386   */\n      dup2\n        /* \"#utility.yul\":3366:3387   */\n      tag_338\n      jump\t// in\n    tag_439:\n        /* \"#utility.yul\":3361:3364   */\n      dup3\n        /* \"#utility.yul\":3354:3388   */\n      mstore\n        /* \"#utility.yul\":3285:3394   */\n      pop\n      pop\n      jump\t// out\n        /* \"#utility.yul\":3400:3610   */\n    tag_41:\n        /* \"#utility.yul\":3487:3491   */\n      0x00\n        /* \"#utility.yul\":3525:3527   */\n      0x20\n        /* \"#utility.yul\":3514:3523   */\n      dup3\n        /* \"#utility.yul\":3510:3528   */\n      add\n        /* \"#utility.yul\":3502:3528   */\n      swap1\n      pop\n        /* \"#utility.yul\":3538:3603   */\n      tag_441\n        /* \"#utility.yul\":3600:3601   */\n      0x00\n        /* \"#utility.yul\":3589:3598   */\n      dup4\n        /* \"#utility.yul\":3585:3602   */\n      add\n        /* \"#utility.yul\":3576:3582   */\n      dup5\n        /* \"#utility.yul\":3538:3603   */\n      tag_339\n      jump\t// in\n    tag_441:\n        /* \"#utility.yul\":3400:3610   */\n      swap3\n      swap2\n      pop\n      pop\n      jump\t// out\n        /* \"#utility.yul\":3616:3929   */\n    tag_46:\n        /* \"#utility.yul\":3729:3733   */\n      0x00\n        /* \"#utility.yul\":3767:3769   */\n      0x20\n        /* \"#utility.yul\":3756:3765   */\n      dup3\n        /* \"#utility.yul\":3752:3770   */\n      add\n        /* \"#utility.yul\":3744:3770   */\n      swap1\n      pop\n        /* \"#utility.yul\":3816:3825   */\n      dup2\n        /* \"#utility.yul\":3810:3814   */\n      dup2\n        /* \"#utility.yul\":3806:3826   */\n      sub\n        /* \"#utility.yul\":3802:3803   */\n      0x00\n        /* \"#utility.yul\":3791:3800   */\n      dup4\n        /* \"#utility.yul\":3787:3804   */\n      add\n        /* \"#utility.yul\":3780:3827   */\n      mstore\n        /* \"#utility.yul\":3844:3922   */\n      tag_443\n        /* \"#utility.yul\":3917:3921   */\n      dup2\n        /* \"#utility.yul\":3908:3914   */\n      dup5\n        /* \"#utility.yul\":3844:3922   */\n      tag_333\n      jump\t// in\n    tag_443:\n        /* \"#utility.yul\":3836:3922   */\n      swap1\n      pop\n        /* \"#utility.yul\":3616:3929   */\n      swap3\n      swap2\n      pop\n      pop\n      jump\t// out\n        /* \"#utility.yul\":3935:4049   */\n    tag_340:\n        /* \"#utility.yul\":4002:4008   */\n      0x00\n        /* \"#utility.yul\":4036:4041   */\n      dup2\n        /* \"#utility.yul\":4030:4042   */\n      mload\n        /* \"#utility.yul\":4020:4042   */\n      swap1\n      pop\n        /* \"#utility.yul\":3935:4049   */\n      swap2\n      swap1\n      pop\n      jump\t// out\n        /* \"#utility.yul\":4055:4239   */\n    tag_341:\n        /* \"#utility.yul\":4154:4165   */\n      0x00\n        /* \"#utility.yul\":4188:4194   */\n      dup3\n        /* \"#utility.yul\":4183:4186   */\n      dup3\n        /* \"#utility.yul\":4176:4195   */\n      mstore\n        /* \"#utility.yul\":4228:4232   */\n      0x20\n        /* \"#utility.yul\":4223:4226   */\n      dup3\n        /* \"#utility.yul\":4219:4233   */\n      add\n        /* \"#utility.yul\":4204:4233   */\n      swap1\n      pop\n        /* \"#utility.yul\":4055:4239   */\n      swap3\n      swap2\n      pop\n      pop\n      jump\t// out\n        /* \"#utility.yul\":4245:4377   */\n    tag_342:\n        /* \"#utility.yul\":4312:4316   */\n      0x00\n        /* \"#utility.yul\":4335:4338   */\n      dup2\n        /* \"#utility.yul\":4327:4338   */\n      swap1\n      pop\n        /* \"#utility.yul\":4365:4369   */\n      0x20\n        /* \"#utility.yul\":4360:4363   */\n      dup3\n        /* \"#utility.yul\":4356:4370   */\n      add\n        /* \"#utility.yul\":4348:4370   */\n      swap1\n      pop\n        /* \"#utility.yul\":4245:4377   */\n      swap2\n      swap1\n      pop\n      jump\t// out\n        /* \"#utility.yul\":4383:4491   */\n    tag_343:\n        /* \"#utility.yul\":4460:4484   */\n      tag_448\n        /* \"#utility.yul\":4478:4483   */\n      dup2\n        /* \"#utility.yul\":4460:4484   */\n      tag_326\n      jump\t// in\n    tag_448:\n        /* \"#utility.yul\":4455:4458   */\n      dup3\n        /* \"#utility.yul\":4448:4485   */\n      mstore\n        /* \"#utility.yul\":4383:4491   */\n      pop\n      pop\n      jump\t// out\n        /* \"#utility.yul\":4497:4676   */\n    tag_344:\n        /* \"#utility.yul\":4566:4576   */\n      0x00\n        /* \"#utility.yul\":4587:4633   */\n      tag_450\n        /* \"#utility.yul\":4629:4632   */\n      dup4\n        /* \"#utility.yul\":4621:4627   */\n      dup4\n        /* \"#utility.yul\":4587:4633   */\n      tag_343\n      jump\t// in\n    tag_450:\n        /* \"#utility.yul\":4665:4669   */\n      0x20\n        /* \"#utility.yul\":4660:4663   */\n      dup4\n        /* \"#utility.yul\":4656:4670   */\n      add\n        /* \"#utility.yul\":4642:4670   */\n      swap1\n      pop\n        /* \"#utility.yul\":4497:4676   */\n      swap3\n      swap2\n      pop\n      pop\n      jump\t// out\n        /* \"#utility.yul\":4682:4795   */\n    tag_345:\n        /* \"#utility.yul\":4752:4756   */\n      0x00\n        /* \"#utility.yul\":4784:4788   */\n      0x20\n        /* \"#utility.yul\":4779:4782   */\n      dup3\n        /* \"#utility.yul\":4775:4789   */\n      add\n        /* \"#utility.yul\":4767:4789   */\n      swap1\n      pop\n        /* \"#utility.yul\":4682:4795   */\n      swap2\n      swap1\n      pop\n      jump\t// out\n        /* \"#utility.yul\":4831:5563   */\n    tag_346:\n        /* \"#utility.yul\":4950:4953   */\n      0x00\n        /* \"#utility.yul\":4979:5033   */\n      tag_453\n        /* \"#utility.yul\":5027:5032   */\n      dup3\n        /* \"#utility.yul\":4979:5033   */\n      tag_340\n      jump\t// in\n    tag_453:\n        /* \"#utility.yul\":5049:5135   */\n      tag_454\n        /* \"#utility.yul\":5128:5134   */\n      dup2\n        /* \"#utility.yul\":5123:5126   */\n      dup6\n        /* \"#utility.yul\":5049:5135   */\n      tag_341\n      jump\t// in\n    tag_454:\n        /* \"#utility.yul\":5042:5135   */\n      swap4\n      pop\n        /* \"#utility.yul\":5159:5215   */\n      tag_455\n        /* \"#utility.yul\":5209:5214   */\n      dup4\n        /* \"#utility.yul\":5159:5215   */\n      tag_342\n      jump\t// in\n    tag_455:\n        /* \"#utility.yul\":5238:5245   */\n      dup1\n        /* \"#utility.yul\":5269:5270   */\n      0x00\n        /* \"#utility.yul\":5254:5538   */\n    tag_456:\n        /* \"#utility.yul\":5279:5285   */\n      dup4\n        /* \"#utility.yul\":5276:5277   */\n      dup2\n        /* \"#utility.yul\":5273:5286   */\n      lt\n        /* \"#utility.yul\":5254:5538   */\n      iszero\n      tag_458\n      jumpi\n        /* \"#utility.yul\":5355:5361   */\n      dup2\n        /* \"#utility.yul\":5349:5362   */\n      mload\n        /* \"#utility.yul\":5382:5445   */\n      tag_459\n        /* \"#utility.yul\":5441:5444   */\n      dup9\n        /* \"#utility.yul\":5426:5439   */\n      dup3\n        /* \"#utility.yul\":5382:5445   */\n      tag_344\n      jump\t// in\n    tag_459:\n        /* \"#utility.yul\":5375:5445   */\n      swap8\n      pop\n        /* \"#utility.yul\":5468:5528   */\n      tag_460\n        /* \"#utility.yul\":5521:5527   */\n      dup4\n        /* \"#utility.yul\":5468:5528   */\n      tag_345\n      jump\t// in\n    tag_460:\n        /* \"#utility.yul\":5458:5528   */\n      swap3\n      pop\n        /* \"#utility.yul\":5314:5538   */\n      pop\n        /* \"#utility.yul\":5301:5302   */\n      0x01\n        /* \"#utility.yul\":5298:5299   */\n      dup2\n        /* \"#utility.yul\":5294:5303   */\n      add\n        /* \"#utility.yul\":5289:5303   */\n      swap1\n      pop\n        /* \"#utility.yul\":5254:5538   */\n      jump(tag_456)\n    tag_458:\n        /* \"#utility.yul\":5258:5272   */\n      pop\n        /* \"#utility.yul\":5554:5557   */\n      dup6\n        /* \"#utility.yul\":5547:5557   */\n      swap4\n      pop\n        /* \"#utility.yul\":4955:5563   */\n      pop\n      pop\n      pop\n        /* \"#utility.yul\":4831:5563   */\n      swap3\n      swap2\n      pop\n      pop\n      jump\t// out\n        /* \"#utility.yul\":5569:5693   */\n    tag_347:\n        /* \"#utility.yul\":5646:5652   */\n      0x00\n        /* \"#utility.yul\":5680:5685   */\n      dup2\n        /* \"#utility.yul\":5674:5686   */\n      mload\n        /* \"#utility.yul\":5664:5686   */\n      swap1\n      pop\n        /* \"#utility.yul\":5569:5693   */\n      swap2\n      swap1\n      pop\n      jump\t// out\n        /* \"#utility.yul\":5699:5893   */\n    tag_348:\n        /* \"#utility.yul\":5808:5819   */\n      0x00\n        /* \"#utility.yul\":5842:5848   */\n      dup3\n        /* \"#utility.yul\":5837:5840   */\n      dup3\n        /* \"#utility.yul\":5830:5849   */\n      mstore\n        /* \"#utility.yul\":5882:5886   */\n      0x20\n        /* \"#utility.yul\":5877:5880   */\n      dup3\n        /* \"#utility.yul\":5873:5887   */\n      add\n        /* \"#utility.yul\":5858:5887   */\n      swap1\n      pop\n        /* \"#utility.yul\":5699:5893   */\n      swap3\n      swap2\n      pop\n      pop\n      jump\t// out\n        /* \"#utility.yul\":5899:6041   */\n    tag_349:\n        /* \"#utility.yul\":5976:5980   */\n      0x00\n        /* \"#utility.yul\":5999:6002   */\n      dup2\n        /* \"#utility.yul\":5991:6002   */\n      swap1\n      pop\n        /* \"#utility.yul\":6029:6033   */\n      0x20\n        /* \"#utility.yul\":6024:6027   */\n      dup3\n        /* \"#utility.yul\":6020:6034   */\n      add\n        /* \"#utility.yul\":6012:6034   */\n      swap1\n      pop\n        /* \"#utility.yul\":5899:6041   */\n      swap2\n      swap1\n      pop\n      jump\t// out\n        /* \"#utility.yul\":6047:6206   */\n    tag_350:\n        /* \"#utility.yul\":6121:6132   */\n      0x00\n        /* \"#utility.yul\":6155:6161   */\n      dup3\n        /* \"#utility.yul\":6150:6153   */\n      dup3\n        /* \"#utility.yul\":6143:6162   */\n      mstore\n        /* \"#utility.yul\":6195:6199   */\n      0x20\n        /* \"#utility.yul\":6190:6193   */\n      dup3\n        /* \"#utility.yul\":6186:6200   */\n      add\n        /* \"#utility.yul\":6171:6200   */\n      swap1\n      pop\n        /* \"#utility.yul\":6047:6206   */\n      swap3\n      swap2\n      pop\n      pop\n      jump\t// out\n        /* \"#utility.yul\":6212:6569   */\n    tag_351:\n        /* \"#utility.yul\":6290:6293   */\n      0x00\n        /* \"#utility.yul\":6318:6357   */\n      tag_466\n        /* \"#utility.yul\":6351:6356   */\n      dup3\n        /* \"#utility.yul\":6318:6357   */\n      tag_329\n      jump\t// in\n    tag_466:\n        /* \"#utility.yul\":6373:6434   */\n      tag_467\n        /* \"#utility.yul\":6427:6433   */\n      dup2\n        /* \"#utility.yul\":6422:6425   */\n      dup6\n        /* \"#utility.yul\":6373:6434   */\n      tag_350\n      jump\t// in\n    tag_467:\n        /* \"#utility.yul\":6366:6434   */\n      swap4\n      pop\n        /* \"#utility.yul\":6443:6508   */\n      tag_468\n        /* \"#utility.yul\":6501:6507   */\n      dup2\n        /* \"#utility.yul\":6496:6499   */\n      dup6\n        /* \"#utility.yul\":6489:6493   */\n      0x20\n        /* \"#utility.yul\":6482:6487   */\n      dup7\n        /* \"#utility.yul\":6478:6494   */\n      add\n        /* \"#utility.yul\":6443:6508   */\n      tag_331\n      jump\t// in\n    tag_468:\n        /* \"#utility.yul\":6533:6562   */\n      tag_469\n        /* \"#utility.yul\":6555:6561   */\n      dup2\n        /* \"#utility.yul\":6533:6562   */\n      tag_332\n      jump\t// in\n    tag_469:\n        /* \"#utility.yul\":6528:6531   */\n      dup5\n        /* \"#utility.yul\":6524:6563   */\n      add\n        /* \"#utility.yul\":6517:6563   */\n      swap2\n      pop\n        /* \"#utility.yul\":6294:6569   */\n      pop\n        /* \"#utility.yul\":6212:6569   */\n      swap3\n      swap2\n      pop\n      pop\n      jump\t// out\n        /* \"#utility.yul\":6575:6771   */\n    tag_352:\n        /* \"#utility.yul\":6664:6674   */\n      0x00\n        /* \"#utility.yul\":6699:6765   */\n      tag_471\n        /* \"#utility.yul\":6761:6764   */\n      dup4\n        /* \"#utility.yul\":6753:6759   */\n      dup4\n        /* \"#utility.yul\":6699:6765   */\n      tag_351\n      jump\t// in\n    tag_471:\n        /* \"#utility.yul\":6685:6765   */\n      swap1\n      pop\n        /* \"#utility.yul\":6575:6771   */\n      swap3\n      swap2\n      pop\n      pop\n      jump\t// out\n        /* \"#utility.yul\":6777:6900   */\n    tag_353:\n        /* \"#utility.yul\":6857:6861   */\n      0x00\n        /* \"#utility.yul\":6889:6893   */\n      0x20\n        /* \"#utility.yul\":6884:6887   */\n      dup3\n        /* \"#utility.yul\":6880:6894   */\n      add\n        /* \"#utility.yul\":6872:6894   */\n      swap1\n      pop\n        /* \"#utility.yul\":6777:6900   */\n      swap2\n      swap1\n      pop\n      jump\t// out\n        /* \"#utility.yul\":6934:7925   */\n    tag_354:\n        /* \"#utility.yul\":7073:7076   */\n      0x00\n        /* \"#utility.yul\":7102:7166   */\n      tag_474\n        /* \"#utility.yul\":7160:7165   */\n      dup3\n        /* \"#utility.yul\":7102:7166   */\n      tag_347\n      jump\t// in\n    tag_474:\n        /* \"#utility.yul\":7182:7278   */\n      tag_475\n        /* \"#utility.yul\":7271:7277   */\n      dup2\n        /* \"#utility.yul\":7266:7269   */\n      dup6\n        /* \"#utility.yul\":7182:7278   */\n      tag_348\n      jump\t// in\n    tag_475:\n        /* \"#utility.yul\":7175:7278   */\n      swap4\n      pop\n        /* \"#utility.yul\":7304:7307   */\n      dup4\n        /* \"#utility.yul\":7349:7353   */\n      0x20\n        /* \"#utility.yul\":7341:7347   */\n      dup3\n        /* \"#utility.yul\":7337:7354   */\n      mul\n        /* \"#utility.yul\":7332:7335   */\n      dup6\n        /* \"#utility.yul\":7328:7355   */\n      add\n        /* \"#utility.yul\":7379:7445   */\n      tag_476\n        /* \"#utility.yul\":7439:7444   */\n      dup6\n        /* \"#utility.yul\":7379:7445   */\n      tag_349\n      jump\t// in\n    tag_476:\n        /* \"#utility.yul\":7468:7475   */\n      dup1\n        /* \"#utility.yul\":7499:7500   */\n      0x00\n        /* \"#utility.yul\":7484:7880   */\n    tag_477:\n        /* \"#utility.yul\":7509:7515   */\n      dup6\n        /* \"#utility.yul\":7506:7507   */\n      dup2\n        /* \"#utility.yul\":7503:7516   */\n      lt\n        /* \"#utility.yul\":7484:7880   */\n      iszero\n      tag_479\n      jumpi\n        /* \"#utility.yul\":7580:7589   */\n      dup5\n        /* \"#utility.yul\":7574:7578   */\n      dup5\n        /* \"#utility.yul\":7570:7590   */\n      sub\n        /* \"#utility.yul\":7565:7568   */\n      dup10\n        /* \"#utility.yul\":7558:7591   */\n      mstore\n        /* \"#utility.yul\":7631:7637   */\n      dup2\n        /* \"#utility.yul\":7625:7638   */\n      mload\n        /* \"#utility.yul\":7659:7743   */\n      tag_480\n        /* \"#utility.yul\":7738:7742   */\n      dup6\n        /* \"#utility.yul\":7723:7736   */\n      dup3\n        /* \"#utility.yul\":7659:7743   */\n      tag_352\n      jump\t// in\n    tag_480:\n        /* \"#utility.yul\":7651:7743   */\n      swap5\n      pop\n        /* \"#utility.yul\":7766:7836   */\n      tag_481\n        /* \"#utility.yul\":7829:7835   */\n      dup4\n        /* \"#utility.yul\":7766:7836   */\n      tag_353\n      jump\t// in\n    tag_481:\n        /* \"#utility.yul\":7756:7836   */\n      swap3\n      pop\n        /* \"#utility.yul\":7865:7869   */\n      0x20\n        /* \"#utility.yul\":7860:7863   */\n      dup11\n        /* \"#utility.yul\":7856:7870   */\n      add\n        /* \"#utility.yul\":7849:7870   */\n      swap10\n      pop\n        /* \"#utility.yul\":7544:7880   */\n      pop\n        /* \"#utility.yul\":7531:7532   */\n      0x01\n        /* \"#utility.yul\":7528:7529   */\n      dup2\n        /* \"#utility.yul\":7524:7533   */\n      add\n        /* \"#utility.yul\":7519:7533   */\n      swap1\n      pop\n        /* \"#utility.yul\":7484:7880   */\n      jump(tag_477)\n    tag_479:\n        /* \"#utility.yul\":7488:7502   */\n      pop\n        /* \"#utility.yul\":7896:7900   */\n      dup3\n        /* \"#utility.yul\":7889:7900   */\n      swap8\n      pop\n        /* \"#utility.yul\":7916:7919   */\n      dup8\n        /* \"#utility.yul\":7909:7919   */\n      swap6\n      pop\n        /* \"#utility.yul\":7078:7925   */\n      pop\n      pop\n      pop\n      pop\n      pop\n        /* \"#utility.yul\":6934:7925   */\n      swap3\n      swap2\n      pop\n      pop\n      jump\t// out\n        /* \"#utility.yul\":7931:8866   */\n    tag_55:\n        /* \"#utility.yul\":8250:8254   */\n      0x00\n        /* \"#utility.yul\":8288:8290   */\n      0x60\n        /* \"#utility.yul\":8277:8286   */\n      dup3\n        /* \"#utility.yul\":8273:8291   */\n      add\n        /* \"#utility.yul\":8265:8291   */\n      swap1\n      pop\n        /* \"#utility.yul\":8337:8346   */\n      dup2\n        /* \"#utility.yul\":8331:8335   */\n      dup2\n        /* \"#utility.yul\":8327:8347   */\n      sub\n        /* \"#utility.yul\":8323:8324   */\n      0x00\n        /* \"#utility.yul\":8312:8321   */\n      dup4\n        /* \"#utility.yul\":8308:8325   */\n      add\n        /* \"#utility.yul\":8301:8348   */\n      mstore\n        /* \"#utility.yul\":8365:8473   */\n      tag_483\n        /* \"#utility.yul\":8468:8472   */\n      dup2\n        /* \"#utility.yul\":8459:8465   */\n      dup7\n        /* \"#utility.yul\":8365:8473   */\n      tag_346\n      jump\t// in\n    tag_483:\n        /* \"#utility.yul\":8357:8473   */\n      swap1\n      pop\n        /* \"#utility.yul\":8520:8529   */\n      dup2\n        /* \"#utility.yul\":8514:8518   */\n      dup2\n        /* \"#utility.yul\":8510:8530   */\n      sub\n        /* \"#utility.yul\":8505:8507   */\n      0x20\n        /* \"#utility.yul\":8494:8503   */\n      dup4\n        /* \"#utility.yul\":8490:8508   */\n      add\n        /* \"#utility.yul\":8483:8531   */\n      mstore\n        /* \"#utility.yul\":8548:8676   */\n      tag_484\n        /* \"#utility.yul\":8671:8675   */\n      dup2\n        /* \"#utility.yul\":8662:8668   */\n      dup6\n        /* \"#utility.yul\":8548:8676   */\n      tag_354\n      jump\t// in\n    tag_484:\n        /* \"#utility.yul\":8540:8676   */\n      swap1\n      pop\n        /* \"#utility.yul\":8723:8732   */\n      dup2\n        /* \"#utility.yul\":8717:8721   */\n      dup2\n        /* \"#utility.yul\":8713:8733   */\n      sub\n        /* \"#utility.yul\":8708:8710   */\n      0x40\n        /* \"#utility.yul\":8697:8706   */\n      dup4\n        /* \"#utility.yul\":8693:8711   */\n      add\n        /* \"#utility.yul\":8686:8734   */\n      mstore\n        /* \"#utility.yul\":8751:8859   */\n      tag_485\n        /* \"#utility.yul\":8854:8858   */\n      dup2\n        /* \"#utility.yul\":8845:8851   */\n      dup5\n        /* \"#utility.yul\":8751:8859   */\n      tag_346\n      jump\t// in\n    tag_485:\n        /* \"#utility.yul\":8743:8859   */\n      swap1\n      pop\n        /* \"#utility.yul\":7931:8866   */\n      swap5\n      swap4\n      pop\n      pop\n      pop\n      pop\n      jump\t// out\n        /* \"#utility.yul\":8872:9405   */\n    tag_64:\n        /* \"#utility.yul\":9041:9045   */\n      0x00\n        /* \"#utility.yul\":9079:9081   */\n      0x60\n        /* \"#utility.yul\":9068:9077   */\n      dup3\n        /* \"#utility.yul\":9064:9082   */\n      add\n        /* \"#utility.yul\":9056:9082   */\n      swap1\n      pop\n        /* \"#utility.yul\":9092:9163   */\n      tag_487\n        /* \"#utility.yul\":9160:9161   */\n      0x00\n        /* \"#utility.yul\":9149:9158   */\n      dup4\n        /* \"#utility.yul\":9145:9162   */\n      add\n        /* \"#utility.yul\":9136:9142   */\n      dup7\n        /* \"#utility.yul\":9092:9163   */\n      tag_334\n      jump\t// in\n    tag_487:\n        /* \"#utility.yul\":9210:9219   */\n      dup2\n        /* \"#utility.yul\":9204:9208   */\n      dup2\n        /* \"#utility.yul\":9200:9220   */\n      sub\n        /* \"#utility.yul\":9195:9197   */\n      0x20\n        /* \"#utility.yul\":9184:9193   */\n      dup4\n        /* \"#utility.yul\":9180:9198   */\n      add\n        /* \"#utility.yul\":9173:9221   */\n      mstore\n        /* \"#utility.yul\":9238:9316   */\n      tag_488\n        /* \"#utility.yul\":9311:9315   */\n      dup2\n        /* \"#utility.yul\":9302:9308   */\n      dup6\n        /* \"#utility.yul\":9238:9316   */\n      tag_333\n      jump\t// in\n    tag_488:\n        /* \"#utility.yul\":9230:9316   */\n      swap1\n      pop\n        /* \"#utility.yul\":9326:9398   */\n      tag_489\n        /* \"#utility.yul\":9394:9396   */\n      0x40\n        /* \"#utility.yul\":9383:9392   */\n      dup4\n        /* \"#utility.yul\":9379:9397   */\n      add\n        /* \"#utility.yul\":9370:9376   */\n      dup5\n        /* \"#utility.yul\":9326:9398   */\n      tag_334\n      jump\t// in\n    tag_489:\n        /* \"#utility.yul\":8872:9405   */\n      swap5\n      swap4\n      pop\n      pop\n      pop\n      pop\n      jump\t// out\n        /* \"#utility.yul\":9411:9533   */\n    tag_355:\n        /* \"#utility.yul\":9484:9508   */\n      tag_491\n        /* \"#utility.yul\":9502:9507   */\n      dup2\n        /* \"#utility.yul\":9484:9508   */\n      tag_336\n      jump\t// in\n    tag_491:\n        /* \"#utility.yul\":9477:9482   */\n      dup2\n        /* \"#utility.yul\":9474:9509   */\n      eq\n        /* \"#utility.yul\":9464:9527   */\n      tag_492\n      jumpi\n        /* \"#utility.yul\":9523:9524   */\n      0x00\n        /* \"#utility.yul\":9520:9521   */\n      dup1\n        /* \"#utility.yul\":9513:9525   */\n      revert\n        /* \"#utility.yul\":9464:9527   */\n    tag_492:\n        /* \"#utility.yul\":9411:9533   */\n      pop\n      jump\t// out\n        /* \"#utility.yul\":9539:9678   */\n    tag_356:\n        /* \"#utility.yul\":9585:9590   */\n      0x00\n        /* \"#utility.yul\":9623:9629   */\n      dup2\n        /* \"#utility.yul\":9610:9630   */\n      calldataload\n        /* \"#utility.yul\":9601:9630   */\n      swap1\n      pop\n        /* \"#utility.yul\":9639:9672   */\n      tag_494\n        /* \"#utility.yul\":9666:9671   */\n      dup2\n        /* \"#utility.yul\":9639:9672   */\n      tag_355\n      jump\t// in\n    tag_494:\n        /* \"#utility.yul\":9539:9678   */\n      swap3\n      swap2\n      pop\n      pop\n      jump\t// out\n        /* \"#utility.yul\":9684:10013   */\n    tag_71:\n        /* \"#utility.yul\":9743:9749   */\n      0x00\n        /* \"#utility.yul\":9792:9794   */\n      0x20\n        /* \"#utility.yul\":9780:9789   */\n      dup3\n        /* \"#utility.yul\":9771:9778   */\n      dup5\n        /* \"#utility.yul\":9767:9790   */\n      sub\n        /* \"#utility.yul\":9763:9795   */\n      slt\n        /* \"#utility.yul\":9760:9879   */\n      iszero\n      tag_496\n      jumpi\n        /* \"#utility.yul\":9798:9877   */\n      tag_497\n      tag_324\n      jump\t// in\n    tag_497:\n        /* \"#utility.yul\":9760:9879   */\n    tag_496:\n        /* \"#utility.yul\":9918:9919   */\n      0x00\n        /* \"#utility.yul\":9943:9996   */\n      tag_498\n        /* \"#utility.yul\":9988:9995   */\n      dup5\n        /* \"#utility.yul\":9979:9985   */\n      dup3\n        /* \"#utility.yul\":9968:9977   */\n      dup6\n        /* \"#utility.yul\":9964:9986   */\n      add\n        /* \"#utility.yul\":9943:9996   */\n      tag_356\n      jump\t// in\n    tag_498:\n        /* \"#utility.yul\":9933:9996   */\n      swap2\n      pop\n        /* \"#utility.yul\":9889:10006   */\n      pop\n        /* \"#utility.yul\":9684:10013   */\n      swap3\n      swap2\n      pop\n      pop\n      jump\t// out\n        /* \"#utility.yul\":10019:10241   */\n    tag_74:\n        /* \"#utility.yul\":10112:10116   */\n      0x00\n        /* \"#utility.yul\":10150:10152   */\n      0x20\n        /* \"#utility.yul\":10139:10148   */\n      dup3\n        /* \"#utility.yul\":10135:10153   */\n      add\n        /* \"#utility.yul\":10127:10153   */\n      swap1\n      pop\n        /* \"#utility.yul\":10163:10234   */\n      tag_500\n        /* \"#utility.yul\":10231:10232   */\n      0x00\n        /* \"#utility.yul\":10220:10229   */\n      dup4\n        /* \"#utility.yul\":10216:10233   */\n      add\n        /* \"#utility.yul\":10207:10213   */\n      dup5\n        /* \"#utility.yul\":10163:10234   */\n      tag_334\n      jump\t// in\n    tag_500:\n        /* \"#utility.yul\":10019:10241   */\n      swap3\n      swap2\n      pop\n      pop\n      jump\t// out\n        /* \"#utility.yul\":10247:10418   */\n    tag_357:\n        /* \"#utility.yul\":10387:10410   */\n      0x436f6e74726163742069732064657374726f7965640000000000000000000000\n        /* \"#utility.yul\":10383:10384   */\n      0x00\n        /* \"#utility.yul\":10375:10381   */\n      dup3\n        /* \"#utility.yul\":10371:10385   */\n      add\n        /* \"#utility.yul\":10364:10411   */\n      mstore\n        /* \"#utility.yul\":10247:10418   */\n      pop\n      jump\t// out\n        /* \"#utility.yul\":10424:10790   */\n    tag_358:\n        /* \"#utility.yul\":10566:10569   */\n      0x00\n        /* \"#utility.yul\":10587:10654   */\n      tag_503\n        /* \"#utility.yul\":10651:10653   */\n      0x15\n        /* \"#utility.yul\":10646:10649   */\n      dup4\n        /* \"#utility.yul\":10587:10654   */\n      tag_330\n      jump\t// in\n    tag_503:\n        /* \"#utility.yul\":10580:10654   */\n      swap2\n      pop\n        /* \"#utility.yul\":10663:10756   */\n      tag_504\n        /* \"#utility.yul\":10752:10755   */\n      dup3\n        /* \"#utility.yul\":10663:10756   */\n      tag_357\n      jump\t// in\n    tag_504:\n        /* \"#utility.yul\":10781:10783   */\n      0x20\n        /* \"#utility.yul\":10776:10779   */\n      dup3\n        /* \"#utility.yul\":10772:10784   */\n      add\n        /* \"#utility.yul\":10765:10784   */\n      swap1\n      pop\n        /* \"#utility.yul\":10424:10790   */\n      swap2\n      swap1\n      pop\n      jump\t// out\n        /* \"#utility.yul\":10796:11215   */\n    tag_105:\n        /* \"#utility.yul\":10962:10966   */\n      0x00\n        /* \"#utility.yul\":11000:11002   */\n      0x20\n        /* \"#utility.yul\":10989:10998   */\n      dup3\n        /* \"#utility.yul\":10985:11003   */\n      add\n        /* \"#utility.yul\":10977:11003   */\n      swap1\n      pop\n        /* \"#utility.yul\":11049:11058   */\n      dup2\n        /* \"#utility.yul\":11043:11047   */\n      dup2\n        /* \"#utility.yul\":11039:11059   */\n      sub\n        /* \"#utility.yul\":11035:11036   */\n      0x00\n        /* \"#utility.yul\":11024:11033   */\n      dup4\n        /* \"#utility.yul\":11020:11037   */\n      add\n        /* \"#utility.yul\":11013:11060   */\n      mstore\n        /* \"#utility.yul\":11077:11208   */\n      tag_506\n        /* \"#utility.yul\":11203:11207   */\n      dup2\n        /* \"#utility.yul\":11077:11208   */\n      tag_358\n      jump\t// in\n    tag_506:\n        /* \"#utility.yul\":11069:11208   */\n      swap1\n      pop\n        /* \"#utility.yul\":10796:11215   */\n      swap2\n      swap1\n      pop\n      jump\t// out\n        /* \"#utility.yul\":11221:11388   */\n    tag_359:\n        /* \"#utility.yul\":11361:11380   */\n      0x566f74696e6720697320636c6f7365642e000000000000000000000000000000\n        /* \"#utility.yul\":11357:11358   */\n      0x00\n        /* \"#utility.yul\":11349:11355   */\n      dup3\n        /* \"#utility.yul\":11345:11359   */\n      add\n        /* \"#utility.yul\":11338:11381   */\n      mstore\n        /* \"#utility.yul\":11221:11388   */\n      pop\n      jump\t// out\n        /* \"#utility.yul\":11394:11760   */\n    tag_360:\n        /* \"#utility.yul\":11536:11539   */\n      0x00\n        /* \"#utility.yul\":11557:11624   */\n      tag_509\n        /* \"#utility.yul\":11621:11623   */\n      0x11\n        /* \"#utility.yul\":11616:11619   */\n      dup4\n        /* \"#utility.yul\":11557:11624   */\n      tag_330\n      jump\t// in\n    tag_509:\n        /* \"#utility.yul\":11550:11624   */\n      swap2\n      pop\n        /* \"#utility.yul\":11633:11726   */\n      tag_510\n        /* \"#utility.yul\":11722:11725   */\n      dup3\n        /* \"#utility.yul\":11633:11726   */\n      tag_359\n      jump\t// in\n    tag_510:\n        /* \"#utility.yul\":11751:11753   */\n      0x20\n        /* \"#utility.yul\":11746:11749   */\n      dup3\n        /* \"#utility.yul\":11742:11754   */\n      add\n        /* \"#utility.yul\":11735:11754   */\n      swap1\n      pop\n        /* \"#utility.yul\":11394:11760   */\n      swap2\n      swap1\n      pop\n      jump\t// out\n        /* \"#utility.yul\":11766:12185   */\n    tag_109:\n        /* \"#utility.yul\":11932:11936   */\n      0x00\n        /* \"#utility.yul\":11970:11972   */\n      0x20\n        /* \"#utility.yul\":11959:11968   */\n      dup3\n        /* \"#utility.yul\":11955:11973   */\n      add\n        /* \"#utility.yul\":11947:11973   */\n      swap1\n      pop\n        /* \"#utility.yul\":12019:12028   */\n      dup2\n        /* \"#utility.yul\":12013:12017   */\n      dup2\n        /* \"#utility.yul\":12009:12029   */\n      sub\n        /* \"#utility.yul\":12005:12006   */\n      0x00\n        /* \"#utility.yul\":11994:12003   */\n      dup4\n        /* \"#utility.yul\":11990:12007   */\n      add\n        /* \"#utility.yul\":11983:12030   */\n      mstore\n        /* \"#utility.yul\":12047:12178   */\n      tag_512\n        /* \"#utility.yul\":12173:12177   */\n      dup2\n        /* \"#utility.yul\":12047:12178   */\n      tag_360\n      jump\t// in\n    tag_512:\n        /* \"#utility.yul\":12039:12178   */\n      swap1\n      pop\n        /* \"#utility.yul\":11766:12185   */\n      swap2\n      swap1\n      pop\n      jump\t// out\n        /* \"#utility.yul\":12191:12368   */\n    tag_361:\n        /* \"#utility.yul\":12331:12360   */\n      0x496e636f72726563742065746865722076616c75652073656e742e0000000000\n        /* \"#utility.yul\":12327:12328   */\n      0x00\n        /* \"#utility.yul\":12319:12325   */\n      dup3\n        /* \"#utility.yul\":12315:12329   */\n      add\n        /* \"#utility.yul\":12308:12361   */\n      mstore\n        /* \"#utility.yul\":12191:12368   */\n      pop\n      jump\t// out\n        /* \"#utility.yul\":12374:12740   */\n    tag_362:\n        /* \"#utility.yul\":12516:12519   */\n      0x00\n        /* \"#utility.yul\":12537:12604   */\n      tag_515\n        /* \"#utility.yul\":12601:12603   */\n      0x1b\n        /* \"#utility.yul\":12596:12599   */\n      dup4\n        /* \"#utility.yul\":12537:12604   */\n      tag_330\n      jump\t// in\n    tag_515:\n        /* \"#utility.yul\":12530:12604   */\n      swap2\n      pop\n        /* \"#utility.yul\":12613:12706   */\n      tag_516\n        /* \"#utility.yul\":12702:12705   */\n      dup3\n        /* \"#utility.yul\":12613:12706   */\n      tag_361\n      jump\t// in\n    tag_516:\n        /* \"#utility.yul\":12731:12733   */\n      0x20\n        /* \"#utility.yul\":12726:12729   */\n      dup3\n        /* \"#utility.yul\":12722:12734   */\n      add\n        /* \"#utility.yul\":12715:12734   */\n      swap1\n      pop\n        /* \"#utility.yul\":12374:12740   */\n      swap2\n      swap1\n      pop\n      jump\t// out\n        /* \"#utility.yul\":12746:13165   */\n    tag_112:\n        /* \"#utility.yul\":12912:12916   */\n      0x00\n        /* \"#utility.yul\":12950:12952   */\n      0x20\n        /* \"#utility.yul\":12939:12948   */\n      dup3\n        /* \"#utility.yul\":12935:12953   */\n      add\n        /* \"#utility.yul\":12927:12953   */\n      swap1\n      pop\n        /* \"#utility.yul\":12999:13008   */\n      dup2\n        /* \"#utility.yul\":12993:12997   */\n      dup2\n        /* \"#utility.yul\":12989:13009   */\n      sub\n        /* \"#utility.yul\":12985:12986   */\n      0x00\n        /* \"#utility.yul\":12974:12983   */\n      dup4\n        /* \"#utility.yul\":12970:12987   */\n      add\n        /* \"#utility.yul\":12963:13010   */\n      mstore\n        /* \"#utility.yul\":13027:13158   */\n      tag_518\n        /* \"#utility.yul\":13153:13157   */\n      dup2\n        /* \"#utility.yul\":13027:13158   */\n      tag_362\n      jump\t// in\n    tag_518:\n        /* \"#utility.yul\":13019:13158   */\n      swap1\n      pop\n        /* \"#utility.yul\":12746:13165   */\n      swap2\n      swap1\n      pop\n      jump\t// out\n        /* \"#utility.yul\":13171:13349   */\n    tag_363:\n        /* \"#utility.yul\":13311:13341   */\n      0x50726f6a656374206d616e616765722063616e6e6f7420766f74652e00000000\n        /* \"#utility.yul\":13307:13308   */\n      0x00\n        /* \"#utility.yul\":13299:13305   */\n      dup3\n        /* \"#utility.yul\":13295:13309   */\n      add\n        /* \"#utility.yul\":13288:13342   */\n      mstore\n        /* \"#utility.yul\":13171:13349   */\n      pop\n      jump\t// out\n        /* \"#utility.yul\":13355:13721   */\n    tag_364:\n        /* \"#utility.yul\":13497:13500   */\n      0x00\n        /* \"#utility.yul\":13518:13585   */\n      tag_521\n        /* \"#utility.yul\":13582:13584   */\n      0x1c\n        /* \"#utility.yul\":13577:13580   */\n      dup4\n        /* \"#utility.yul\":13518:13585   */\n      tag_330\n      jump\t// in\n    tag_521:\n        /* \"#utility.yul\":13511:13585   */\n      swap2\n      pop\n        /* \"#utility.yul\":13594:13687   */\n      tag_522\n        /* \"#utility.yul\":13683:13686   */\n      dup3\n        /* \"#utility.yul\":13594:13687   */\n      tag_363\n      jump\t// in\n    tag_522:\n        /* \"#utility.yul\":13712:13714   */\n      0x20\n        /* \"#utility.yul\":13707:13710   */\n      dup3\n        /* \"#utility.yul\":13703:13715   */\n      add\n        /* \"#utility.yul\":13696:13715   */\n      swap1\n      pop\n        /* \"#utility.yul\":13355:13721   */\n      swap2\n      swap1\n      pop\n      jump\t// out\n        /* \"#utility.yul\":13727:14146   */\n    tag_115:\n        /* \"#utility.yul\":13893:13897   */\n      0x00\n        /* \"#utility.yul\":13931:13933   */\n      0x20\n        /* \"#utility.yul\":13920:13929   */\n      dup3\n        /* \"#utility.yul\":13916:13934   */\n      add\n        /* \"#utility.yul\":13908:13934   */\n      swap1\n      pop\n        /* \"#utility.yul\":13980:13989   */\n      dup2\n        /* \"#utility.yul\":13974:13978   */\n      dup2\n        /* \"#utility.yul\":13970:13990   */\n      sub\n        /* \"#utility.yul\":13966:13967   */\n      0x00\n        /* \"#utility.yul\":13955:13964   */\n      dup4\n        /* \"#utility.yul\":13951:13968   */\n      add\n        /* \"#utility.yul\":13944:13991   */\n      mstore\n        /* \"#utility.yul\":14008:14139   */\n      tag_524\n        /* \"#utility.yul\":14134:14138   */\n      dup2\n        /* \"#utility.yul\":14008:14139   */\n      tag_364\n      jump\t// in\n    tag_524:\n        /* \"#utility.yul\":14000:14139   */\n      swap1\n      pop\n        /* \"#utility.yul\":13727:14146   */\n      swap2\n      swap1\n      pop\n      jump\t// out\n        /* \"#utility.yul\":14152:14325   */\n    tag_365:\n        /* \"#utility.yul\":14292:14317   */\n      0x496e76616c69642070726f706f73616c20696e6465782e000000000000000000\n        /* \"#utility.yul\":14288:14289   */\n      0x00\n        /* \"#utility.yul\":14280:14286   */\n      dup3\n        /* \"#utility.yul\":14276:14290   */\n      add\n        /* \"#utility.yul\":14269:14318   */\n      mstore\n        /* \"#utility.yul\":14152:14325   */\n      pop\n      jump\t// out\n        /* \"#utility.yul\":14331:14697   */\n    tag_366:\n        /* \"#utility.yul\":14473:14476   */\n      0x00\n        /* \"#utility.yul\":14494:14561   */\n      tag_527\n        /* \"#utility.yul\":14558:14560   */\n      0x17\n        /* \"#utility.yul\":14553:14556   */\n      dup4\n        /* \"#utility.yul\":14494:14561   */\n      tag_330\n      jump\t// in\n    tag_527:\n        /* \"#utility.yul\":14487:14561   */\n      swap2\n      pop\n        /* \"#utility.yul\":14570:14663   */\n      tag_528\n        /* \"#utility.yul\":14659:14662   */\n      dup3\n        /* \"#utility.yul\":14570:14663   */\n      tag_365\n      jump\t// in\n    tag_528:\n        /* \"#utility.yul\":14688:14690   */\n      0x20\n        /* \"#utility.yul\":14683:14686   */\n      dup3\n        /* \"#utility.yul\":14679:14691   */\n      add\n        /* \"#utility.yul\":14672:14691   */\n      swap1\n      pop\n        /* \"#utility.yul\":14331:14697   */\n      swap2\n      swap1\n      pop\n      jump\t// out\n        /* \"#utility.yul\":14703:15122   */\n    tag_119:\n        /* \"#utility.yul\":14869:14873   */\n      0x00\n        /* \"#utility.yul\":14907:14909   */\n      0x20\n        /* \"#utility.yul\":14896:14905   */\n      dup3\n        /* \"#utility.yul\":14892:14910   */\n      add\n        /* \"#utility.yul\":14884:14910   */\n      swap1\n      pop\n        /* \"#utility.yul\":14956:14965   */\n      dup2\n        /* \"#utility.yul\":14950:14954   */\n      dup2\n        /* \"#utility.yul\":14946:14966   */\n      sub\n        /* \"#utility.yul\":14942:14943   */\n      0x00\n        /* \"#utility.yul\":14931:14940   */\n      dup4\n        /* \"#utility.yul\":14927:14944   */\n      add\n        /* \"#utility.yul\":14920:14967   */\n      mstore\n        /* \"#utility.yul\":14984:15115   */\n      tag_530\n        /* \"#utility.yul\":15110:15114   */\n      dup2\n        /* \"#utility.yul\":14984:15115   */\n      tag_366\n      jump\t// in\n    tag_530:\n        /* \"#utility.yul\":14976:15115   */\n      swap1\n      pop\n        /* \"#utility.yul\":14703:15122   */\n      swap2\n      swap1\n      pop\n      jump\t// out\n        /* \"#utility.yul\":15128:15310   */\n    tag_367:\n        /* \"#utility.yul\":15268:15302   */\n      0x45786365656473206d6178696d756d20766f7465732070657220766f7465722e\n        /* \"#utility.yul\":15264:15265   */\n      0x00\n        /* \"#utility.yul\":15256:15262   */\n      dup3\n        /* \"#utility.yul\":15252:15266   */\n      add\n        /* \"#utility.yul\":15245:15303   */\n      mstore\n        /* \"#utility.yul\":15128:15310   */\n      pop\n      jump\t// out\n        /* \"#utility.yul\":15316:15682   */\n    tag_368:\n        /* \"#utility.yul\":15458:15461   */\n      0x00\n        /* \"#utility.yul\":15479:15546   */\n      tag_533\n        /* \"#utility.yul\":15543:15545   */\n      0x20\n        /* \"#utility.yul\":15538:15541   */\n      dup4\n        /* \"#utility.yul\":15479:15546   */\n      tag_330\n      jump\t// in\n    tag_533:\n        /* \"#utility.yul\":15472:15546   */\n      swap2\n      pop\n        /* \"#utility.yul\":15555:15648   */\n      tag_534\n        /* \"#utility.yul\":15644:15647   */\n      dup3\n        /* \"#utility.yul\":15555:15648   */\n      tag_367\n      jump\t// in\n    tag_534:\n        /* \"#utility.yul\":15673:15675   */\n      0x20\n        /* \"#utility.yul\":15668:15671   */\n      dup3\n        /* \"#utility.yul\":15664:15676   */\n      add\n        /* \"#utility.yul\":15657:15676   */\n      swap1\n      pop\n        /* \"#utility.yul\":15316:15682   */\n      swap2\n      swap1\n      pop\n      jump\t// out\n        /* \"#utility.yul\":15688:16107   */\n    tag_122:\n        /* \"#utility.yul\":15854:15858   */\n      0x00\n        /* \"#utility.yul\":15892:15894   */\n      0x20\n        /* \"#utility.yul\":15881:15890   */\n      dup3\n        /* \"#utility.yul\":15877:15895   */\n      add\n        /* \"#utility.yul\":15869:15895   */\n      swap1\n      pop\n        /* \"#utility.yul\":15941:15950   */\n      dup2\n        /* \"#utility.yul\":15935:15939   */\n      dup2\n        /* \"#utility.yul\":15931:15951   */\n      sub\n        /* \"#utility.yul\":15927:15928   */\n      0x00\n        /* \"#utility.yul\":15916:15925   */\n      dup4\n        /* \"#utility.yul\":15912:15929   */\n      add\n        /* \"#utility.yul\":15905:15952   */\n      mstore\n        /* \"#utility.yul\":15969:16100   */\n      tag_536\n        /* \"#utility.yul\":16095:16099   */\n      dup2\n        /* \"#utility.yul\":15969:16100   */\n      tag_368\n      jump\t// in\n    tag_536:\n        /* \"#utility.yul\":15961:16100   */\n      swap1\n      pop\n        /* \"#utility.yul\":15688:16107   */\n      swap2\n      swap1\n      pop\n      jump\t// out\n        /* \"#utility.yul\":16113:16293   */\n    tag_125:\n        /* \"#utility.yul\":16161:16238   */\n      0x4e487b7100000000000000000000000000000000000000000000000000000000\n        /* \"#utility.yul\":16158:16159   */\n      0x00\n        /* \"#utility.yul\":16151:16239   */\n      mstore\n        /* \"#utility.yul\":16258:16262   */\n      0x32\n        /* \"#utility.yul\":16255:16256   */\n      0x04\n        /* \"#utility.yul\":16248:16263   */\n      mstore\n        /* \"#utility.yul\":16282:16286   */\n      0x24\n        /* \"#utility.yul\":16279:16280   */\n      0x00\n        /* \"#utility.yul\":16272:16287   */\n      revert\n        /* \"#utility.yul\":16299:16479   */\n    tag_369:\n        /* \"#utility.yul\":16347:16424   */\n      0x4e487b7100000000000000000000000000000000000000000000000000000000\n        /* \"#utility.yul\":16344:16345   */\n      0x00\n        /* \"#utility.yul\":16337:16425   */\n      mstore\n        /* \"#utility.yul\":16444:16448   */\n      0x11\n        /* \"#utility.yul\":16441:16442   */\n      0x04\n        /* \"#utility.yul\":16434:16449   */\n      mstore\n        /* \"#utility.yul\":16468:16472   */\n      0x24\n        /* \"#utility.yul\":16465:16466   */\n      0x00\n        /* \"#utility.yul\":16458:16473   */\n      revert\n        /* \"#utility.yul\":16485:16676   */\n    tag_128:\n        /* \"#utility.yul\":16525:16528   */\n      0x00\n        /* \"#utility.yul\":16544:16564   */\n      tag_540\n        /* \"#utility.yul\":16562:16563   */\n      dup3\n        /* \"#utility.yul\":16544:16564   */\n      tag_326\n      jump\t// in\n    tag_540:\n        /* \"#utility.yul\":16539:16564   */\n      swap2\n      pop\n        /* \"#utility.yul\":16578:16598   */\n      tag_541\n        /* \"#utility.yul\":16596:16597   */\n      dup4\n        /* \"#utility.yul\":16578:16598   */\n      tag_326\n      jump\t// in\n    tag_541:\n        /* \"#utility.yul\":16573:16598   */\n      swap3\n      pop\n        /* \"#utility.yul\":16621:16622   */\n      dup3\n        /* \"#utility.yul\":16618:16619   */\n      dup3\n        /* \"#utility.yul\":16614:16623   */\n      add\n        /* \"#utility.yul\":16607:16623   */\n      swap1\n      pop\n        /* \"#utility.yul\":16642:16645   */\n      dup1\n        /* \"#utility.yul\":16639:16640   */\n      dup3\n        /* \"#utility.yul\":16636:16646   */\n      gt\n        /* \"#utility.yul\":16633:16669   */\n      iszero\n      tag_542\n      jumpi\n        /* \"#utility.yul\":16649:16667   */\n      tag_543\n      tag_369\n      jump\t// in\n    tag_543:\n        /* \"#utility.yul\":16633:16669   */\n    tag_542:\n        /* \"#utility.yul\":16485:16676   */\n      swap3\n      swap2\n      pop\n      pop\n      jump\t// out\n        /* \"#utility.yul\":16682:16862   */\n    tag_370:\n        /* \"#utility.yul\":16730:16807   */\n      0x4e487b7100000000000000000000000000000000000000000000000000000000\n        /* \"#utility.yul\":16727:16728   */\n      0x00\n        /* \"#utility.yul\":16720:16808   */\n      mstore\n        /* \"#utility.yul\":16827:16831   */\n      0x22\n        /* \"#utility.yul\":16824:16825   */\n      0x04\n        /* \"#utility.yul\":16817:16832   */\n      mstore\n        /* \"#utility.yul\":16851:16855   */\n      0x24\n        /* \"#utility.yul\":16848:16849   */\n      0x00\n        /* \"#utility.yul\":16841:16856   */\n      revert\n        /* \"#utility.yul\":16868:17188   */\n    tag_135:\n        /* \"#utility.yul\":16912:16918   */\n      0x00\n        /* \"#utility.yul\":16949:16950   */\n      0x02\n        /* \"#utility.yul\":16943:16947   */\n      dup3\n        /* \"#utility.yul\":16939:16951   */\n      div\n        /* \"#utility.yul\":16929:16951   */\n      swap1\n      pop\n        /* \"#utility.yul\":16996:16997   */\n      0x01\n        /* \"#utility.yul\":16990:16994   */\n      dup3\n        /* \"#utility.yul\":16986:16998   */\n      and\n        /* \"#utility.yul\":17017:17035   */\n      dup1\n        /* \"#utility.yul\":17007:17088   */\n      tag_546\n      jumpi\n        /* \"#utility.yul\":17073:17077   */\n      0x7f\n        /* \"#utility.yul\":17065:17071   */\n      dup3\n        /* \"#utility.yul\":17061:17078   */\n      and\n        /* \"#utility.yul\":17051:17078   */\n      swap2\n      pop\n        /* \"#utility.yul\":17007:17088   */\n    tag_546:\n        /* \"#utility.yul\":17135:17137   */\n      0x20\n        /* \"#utility.yul\":17127:17133   */\n      dup3\n        /* \"#utility.yul\":17124:17138   */\n      lt\n        /* \"#utility.yul\":17104:17122   */\n      dup2\n        /* \"#utility.yul\":17101:17139   */\n      sub\n        /* \"#utility.yul\":17098:17182   */\n      tag_547\n      jumpi\n        /* \"#utility.yul\":17154:17172   */\n      tag_548\n      tag_370\n      jump\t// in\n    tag_548:\n        /* \"#utility.yul\":17098:17182   */\n    tag_547:\n        /* \"#utility.yul\":16919:17188   */\n      pop\n        /* \"#utility.yul\":16868:17188   */\n      swap2\n      swap1\n      pop\n      jump\t// out\n        /* \"#utility.yul\":17194:17429   */\n    tag_371:\n        /* \"#utility.yul\":17334:17368   */\n      0x4f6e6c79207468652070726f6a656374206d616e616765722063616e2063616c\n        /* \"#utility.yul\":17330:17331   */\n      0x00\n        /* \"#utility.yul\":17322:17328   */\n      dup3\n        /* \"#utility.yul\":17318:17332   */\n      add\n        /* \"#utility.yul\":17311:17369   */\n      mstore\n        /* \"#utility.yul\":17403:17421   */\n      0x6c20746869732066756e6374696f6e2e00000000000000000000000000000000\n        /* \"#utility.yul\":17398:17400   */\n      0x20\n        /* \"#utility.yul\":17390:17396   */\n      dup3\n        /* \"#utility.yul\":17386:17401   */\n      add\n        /* \"#utility.yul\":17379:17422   */\n      mstore\n        /* \"#utility.yul\":17194:17429   */\n      pop\n      jump\t// out\n        /* \"#utility.yul\":17435:17801   */\n    tag_372:\n        /* \"#utility.yul\":17577:17580   */\n      0x00\n        /* \"#utility.yul\":17598:17665   */\n      tag_551\n        /* \"#utility.yul\":17662:17664   */\n      0x30\n        /* \"#utility.yul\":17657:17660   */\n      dup4\n        /* \"#utility.yul\":17598:17665   */\n      tag_330\n      jump\t// in\n    tag_551:\n        /* \"#utility.yul\":17591:17665   */\n      swap2\n      pop\n        /* \"#utility.yul\":17674:17767   */\n      tag_552\n        /* \"#utility.yul\":17763:17766   */\n      dup3\n        /* \"#utility.yul\":17674:17767   */\n      tag_371\n      jump\t// in\n    tag_552:\n        /* \"#utility.yul\":17792:17794   */\n      0x40\n        /* \"#utility.yul\":17787:17790   */\n      dup3\n        /* \"#utility.yul\":17783:17795   */\n      add\n        /* \"#utility.yul\":17776:17795   */\n      swap1\n      pop\n        /* \"#utility.yul\":17435:17801   */\n      swap2\n      swap1\n      pop\n      jump\t// out\n        /* \"#utility.yul\":17807:18226   */\n    tag_143:\n        /* \"#utility.yul\":17973:17977   */\n      0x00\n        /* \"#utility.yul\":18011:18013   */\n      0x20\n        /* \"#utility.yul\":18000:18009   */\n      dup3\n        /* \"#utility.yul\":17996:18014   */\n      add\n        /* \"#utility.yul\":17988:18014   */\n      swap1\n      pop\n        /* \"#utility.yul\":18060:18069   */\n      dup2\n        /* \"#utility.yul\":18054:18058   */\n      dup2\n        /* \"#utility.yul\":18050:18070   */\n      sub\n        /* \"#utility.yul\":18046:18047   */\n      0x00\n        /* \"#utility.yul\":18035:18044   */\n      dup4\n        /* \"#utility.yul\":18031:18048   */\n      add\n        /* \"#utility.yul\":18024:18071   */\n      mstore\n        /* \"#utility.yul\":18088:18219   */\n      tag_554\n        /* \"#utility.yul\":18214:18218   */\n      dup2\n        /* \"#utility.yul\":18088:18219   */\n      tag_372\n      jump\t// in\n    tag_554:\n        /* \"#utility.yul\":18080:18219   */\n      swap1\n      pop\n        /* \"#utility.yul\":17807:18226   */\n      swap2\n      swap1\n      pop\n      jump\t// out\n        /* \"#utility.yul\":18232:18407   */\n    tag_373:\n        /* \"#utility.yul\":18372:18399   */\n      0x566f74696e6720697320616c726561647920636c6f7365642e00000000000000\n        /* \"#utility.yul\":18368:18369   */\n      0x00\n        /* \"#utility.yul\":18360:18366   */\n      dup3\n        /* \"#utility.yul\":18356:18370   */\n      add\n        /* \"#utility.yul\":18349:18400   */\n      mstore\n        /* \"#utility.yul\":18232:18407   */\n      pop\n      jump\t// out\n        /* \"#utility.yul\":18413:18779   */\n    tag_374:\n        /* \"#utility.yul\":18555:18558   */\n      0x00\n        /* \"#utility.yul\":18576:18643   */\n      tag_557\n        /* \"#utility.yul\":18640:18642   */\n      0x19\n        /* \"#utility.yul\":18635:18638   */\n      dup4\n        /* \"#utility.yul\":18576:18643   */\n      tag_330\n      jump\t// in\n    tag_557:\n        /* \"#utility.yul\":18569:18643   */\n      swap2\n      pop\n        /* \"#utility.yul\":18652:18745   */\n      tag_558\n        /* \"#utility.yul\":18741:18744   */\n      dup3\n        /* \"#utility.yul\":18652:18745   */\n      tag_373\n      jump\t// in\n    tag_558:\n        /* \"#utility.yul\":18770:18772   */\n      0x20\n        /* \"#utility.yul\":18765:18768   */\n      dup3\n        /* \"#utility.yul\":18761:18773   */\n      add\n        /* \"#utility.yul\":18754:18773   */\n      swap1\n      pop\n        /* \"#utility.yul\":18413:18779   */\n      swap2\n      swap1\n      pop\n      jump\t// out\n        /* \"#utility.yul\":18785:19204   */\n    tag_160:\n        /* \"#utility.yul\":18951:18955   */\n      0x00\n        /* \"#utility.yul\":18989:18991   */\n      0x20\n        /* \"#utility.yul\":18978:18987   */\n      dup3\n        /* \"#utility.yul\":18974:18992   */\n      add\n        /* \"#utility.yul\":18966:18992   */\n      swap1\n      pop\n        /* \"#utility.yul\":19038:19047   */\n      dup2\n        /* \"#utility.yul\":19032:19036   */\n      dup2\n        /* \"#utility.yul\":19028:19048   */\n      sub\n        /* \"#utility.yul\":19024:19025   */\n      0x00\n        /* \"#utility.yul\":19013:19022   */\n      dup4\n        /* \"#utility.yul\":19009:19026   */\n      add\n        /* \"#utility.yul\":19002:19049   */\n      mstore\n        /* \"#utility.yul\":19066:19197   */\n      tag_560\n        /* \"#utility.yul\":19192:19196   */\n      dup2\n        /* \"#utility.yul\":19066:19197   */\n      tag_374\n      jump\t// in\n    tag_560:\n        /* \"#utility.yul\":19058:19197   */\n      swap1\n      pop\n        /* \"#utility.yul\":18785:19204   */\n      swap2\n      swap1\n      pop\n      jump\t// out\n        /* \"#utility.yul\":19210:19390   */\n    tag_195:\n        /* \"#utility.yul\":19258:19335   */\n      0x4e487b7100000000000000000000000000000000000000000000000000000000\n        /* \"#utility.yul\":19255:19256   */\n      0x00\n        /* \"#utility.yul\":19248:19336   */\n      mstore\n        /* \"#utility.yul\":19355:19359   */\n      0x41\n        /* \"#utility.yul\":19352:19353   */\n      0x04\n        /* \"#utility.yul\":19345:19360   */\n      mstore\n        /* \"#utility.yul\":19379:19383   */\n      0x24\n        /* \"#utility.yul\":19376:19377   */\n      0x00\n        /* \"#utility.yul\":19369:19384   */\n      revert\n        /* \"#utility.yul\":19396:19537   */\n    tag_375:\n        /* \"#utility.yul\":19445:19449   */\n      0x00\n        /* \"#utility.yul\":19468:19471   */\n      dup2\n        /* \"#utility.yul\":19460:19471   */\n      swap1\n      pop\n        /* \"#utility.yul\":19491:19494   */\n      dup2\n        /* \"#utility.yul\":19488:19489   */\n      0x00\n        /* \"#utility.yul\":19481:19495   */\n      mstore\n        /* \"#utility.yul\":19525:19529   */\n      0x20\n        /* \"#utility.yul\":19522:19523   */\n      0x00\n        /* \"#utility.yul\":19512:19530   */\n      keccak256\n        /* \"#utility.yul\":19504:19530   */\n      swap1\n      pop\n        /* \"#utility.yul\":19396:19537   */\n      swap2\n      swap1\n      pop\n      jump\t// out\n        /* \"#utility.yul\":19543:19636   */\n    tag_376:\n        /* \"#utility.yul\":19580:19586   */\n      0x00\n        /* \"#utility.yul\":19627:19629   */\n      0x20\n        /* \"#utility.yul\":19622:19624   */\n      0x1f\n        /* \"#utility.yul\":19615:19620   */\n      dup4\n        /* \"#utility.yul\":19611:19625   */\n      add\n        /* \"#utility.yul\":19607:19630   */\n      div\n        /* \"#utility.yul\":19597:19630   */\n      swap1\n      pop\n        /* \"#utility.yul\":19543:19636   */\n      swap2\n      swap1\n      pop\n      jump\t// out\n        /* \"#utility.yul\":19642:19749   */\n    tag_377:\n        /* \"#utility.yul\":19686:19694   */\n      0x00\n        /* \"#utility.yul\":19736:19741   */\n      dup3\n        /* \"#utility.yul\":19730:19734   */\n      dup3\n        /* \"#utility.yul\":19726:19742   */\n      shl\n        /* \"#utility.yul\":19705:19742   */\n      swap1\n      pop\n        /* \"#utility.yul\":19642:19749   */\n      swap3\n      swap2\n      pop\n      pop\n      jump\t// out\n        /* \"#utility.yul\":19755:20148   */\n    tag_378:\n        /* \"#utility.yul\":19824:19830   */\n      0x00\n        /* \"#utility.yul\":19874:19875   */\n      0x08\n        /* \"#utility.yul\":19862:19872   */\n      dup4\n        /* \"#utility.yul\":19858:19876   */\n      mul\n        /* \"#utility.yul\":19897:19994   */\n      tag_566\n        /* \"#utility.yul\":19927:19993   */\n      0xffffffffffffffffffffffffffffffffffffffffffffffffffffffffffffffff\n        /* \"#utility.yul\":19916:19925   */\n      dup3\n        /* \"#utility.yul\":19897:19994   */\n      tag_377\n      jump\t// in\n    tag_566:\n        /* \"#utility.yul\":20015:20054   */\n      tag_567\n        /* \"#utility.yul\":20045:20053   */\n      dup7\n        /* \"#utility.yul\":20034:20043   */\n      dup4\n        /* \"#utility.yul\":20015:20054   */\n      tag_377\n      jump\t// in\n    tag_567:\n        /* \"#utility.yul\":20003:20054   */\n      swap6\n      pop\n        /* \"#utility.yul\":20087:20091   */\n      dup1\n        /* \"#utility.yul\":20083:20092   */\n      not\n        /* \"#utility.yul\":20076:20081   */\n      dup5\n        /* \"#utility.yul\":20072:20093   */\n      and\n        /* \"#utility.yul\":20063:20093   */\n      swap4\n      pop\n        /* \"#utility.yul\":20136:20140   */\n      dup1\n        /* \"#utility.yul\":20126:20134   */\n      dup7\n        /* \"#utility.yul\":20122:20141   */\n      and\n        /* \"#utility.yul\":20115:20120   */\n      dup5\n        /* \"#utility.yul\":20112:20142   */\n      or\n        /* \"#utility.yul\":20102:20142   */\n      swap3\n      pop\n        /* \"#utility.yul\":19831:20148   */\n      pop\n      pop\n        /* \"#utility.yul\":19755:20148   */\n      swap4\n      swap3\n      pop\n      pop\n      pop\n      jump\t// out\n        /* \"#utility.yul\":20154:20214   */\n    tag_379:\n        /* \"#utility.yul\":20182:20185   */\n      0x00\n        /* \"#utility.yul\":20203:20208   */\n      dup2\n        /* \"#utility.yul\":20196:20208   */\n      swap1\n      pop\n        /* \"#utility.yul\":20154:20214   */\n      swap2\n      swap1\n      pop\n      jump\t// out\n        /* \"#utility.yul\":20220:20362   */\n    tag_380:\n        /* \"#utility.yul\":20270:20279   */\n      0x00\n        /* \"#utility.yul\":20303:20356   */\n      tag_570\n        /* \"#utility.yul\":20321:20355   */\n      tag_571\n        /* \"#utility.yul\":20330:20354   */\n      tag_572\n        /* \"#utility.yul\":20348:20353   */\n      dup5\n        /* \"#utility.yul\":20330:20354   */\n      tag_326\n      jump\t// in\n    tag_572:\n        /* \"#utility.yul\":20321:20355   */\n      tag_379\n      jump\t// in\n    tag_571:\n        /* \"#utility.yul\":20303:20356   */\n      tag_326\n      jump\t// in\n    tag_570:\n        /* \"#utility.yul\":20290:20356   */\n      swap1\n      pop\n        /* \"#utility.yul\":20220:20362   */\n      swap2\n      swap1\n      pop\n      jump\t// out\n        /* \"#utility.yul\":20368:20443   */\n    tag_381:\n        /* \"#utility.yul\":20411:20414   */\n      0x00\n        /* \"#utility.yul\":20432:20437   */\n      dup2\n        /* \"#utility.yul\":20425:20437   */\n      swap1\n      pop\n        /* \"#utility.yul\":20368:20443   */\n      swap2\n      swap1\n      pop\n      jump\t// out\n        /* \"#utility.yul\":20449:20718   */\n    tag_382:\n        /* \"#utility.yul\":20559:20598   */\n      tag_575\n        /* \"#utility.yul\":20590:20597   */\n      dup4\n        /* \"#utility.yul\":20559:20598   */\n      tag_380\n      jump\t// in\n    tag_575:\n        /* \"#utility.yul\":20620:20711   */\n      tag_576\n        /* \"#utility.yul\":20669:20710   */\n      tag_577\n        /* \"#utility.yul\":20693:20709   */\n      dup3\n        /* \"#utility.yul\":20669:20710   */\n      tag_381\n      jump\t// in\n    tag_577:\n        /* \"#utility.yul\":20661:20667   */\n      dup5\n        /* \"#utility.yul\":20654:20658   */\n      dup5\n        /* \"#utility.yul\":20648:20659   */\n      sload\n        /* \"#utility.yul\":20620:20711   */\n      tag_378\n      jump\t// in\n    tag_576:\n        /* \"#utility.yul\":20614:20618   */\n      dup3\n        /* \"#utility.yul\":20607:20712   */\n      sstore\n        /* \"#utility.yul\":20525:20718   */\n      pop\n        /* \"#utility.yul\":20449:20718   */\n      pop\n      pop\n      pop\n      jump\t// out\n        /* \"#utility.yul\":20724:20797   */\n    tag_383:\n        /* \"#utility.yul\":20769:20772   */\n      0x00\n        /* \"#utility.yul\":20724:20797   */\n      swap1\n      jump\t// out\n        /* \"#utility.yul\":20803:20992   */\n    tag_384:\n        /* \"#utility.yul\":20880:20912   */\n      tag_580\n      tag_383\n      jump\t// in\n    tag_580:\n        /* \"#utility.yul\":20921:20986   */\n      tag_581\n        /* \"#utility.yul\":20979:20985   */\n      dup2\n        /* \"#utility.yul\":20971:20977   */\n      dup5\n        /* \"#utility.yul\":20965:20969   */\n      dup5\n        /* \"#utility.yul\":20921:20986   */\n      tag_382\n      jump\t// in\n    tag_581:\n        /* \"#utility.yul\":20856:20992   */\n      pop\n        /* \"#utility.yul\":20803:20992   */\n      pop\n      pop\n      jump\t// out\n        /* \"#utility.yul\":20998:21184   */\n    tag_385:\n        /* \"#utility.yul\":21058:21178   */\n    tag_583:\n        /* \"#utility.yul\":21075:21078   */\n      dup2\n        /* \"#utility.yul\":21068:21073   */\n      dup2\n        /* \"#utility.yul\":21065:21079   */\n      lt\n        /* \"#utility.yul\":21058:21178   */\n      iszero\n      tag_585\n      jumpi\n        /* \"#utility.yul\":21129:21168   */\n      tag_586\n        /* \"#utility.yul\":21166:21167   */\n      0x00\n        /* \"#utility.yul\":21159:21164   */\n      dup3\n        /* \"#utility.yul\":21129:21168   */\n      tag_384\n      jump\t// in\n    tag_586:\n        /* \"#utility.yul\":21102:21103   */\n      0x01\n        /* \"#utility.yul\":21095:21100   */\n      dup2\n        /* \"#utility.yul\":21091:21104   */\n      add\n        /* \"#utility.yul\":21082:21104   */\n      swap1\n      pop\n        /* \"#utility.yul\":21058:21178   */\n      jump(tag_583)\n    tag_585:\n        /* \"#utility.yul\":20998:21184   */\n      pop\n      pop\n      jump\t// out\n        /* \"#utility.yul\":21190:21733   */\n    tag_386:\n        /* \"#utility.yul\":21291:21293   */\n      0x1f\n        /* \"#utility.yul\":21286:21289   */\n      dup3\n        /* \"#utility.yul\":21283:21294   */\n      gt\n        /* \"#utility.yul\":21280:21726   */\n      iszero\n      tag_588\n      jumpi\n        /* \"#utility.yul\":21325:21363   */\n      tag_589\n        /* \"#utility.yul\":21357:21362   */\n      dup2\n        /* \"#utility.yul\":21325:21363   */\n      tag_375\n      jump\t// in\n    tag_589:\n        /* \"#utility.yul\":21409:21438   */\n      tag_590\n        /* \"#utility.yul\":21427:21437   */\n      dup5\n        /* \"#utility.yul\":21409:21438   */\n      tag_376\n      jump\t// in\n    tag_590:\n        /* \"#utility.yul\":21399:21407   */\n      dup2\n        /* \"#utility.yul\":21395:21439   */\n      add\n        /* \"#utility.yul\":21592:21594   */\n      0x20\n        /* \"#utility.yul\":21580:21590   */\n      dup6\n        /* \"#utility.yul\":21577:21595   */\n      lt\n        /* \"#utility.yul\":21574:21623   */\n      iszero\n      tag_591\n      jumpi\n        /* \"#utility.yul\":21613:21621   */\n      dup2\n        /* \"#utility.yul\":21598:21621   */\n      swap1\n      pop\n        /* \"#utility.yul\":21574:21623   */\n    tag_591:\n        /* \"#utility.yul\":21636:21716   */\n      tag_592\n        /* \"#utility.yul\":21692:21714   */\n      tag_593\n        /* \"#utility.yul\":21710:21713   */\n      dup6\n        /* \"#utility.yul\":21692:21714   */\n      tag_376\n      jump\t// in\n    tag_593:\n        /* \"#utility.yul\":21682:21690   */\n      dup4\n        /* \"#utility.yul\":21678:21715   */\n      add\n        /* \"#utility.yul\":21665:21676   */\n      dup3\n        /* \"#utility.yul\":21636:21716   */\n      tag_385\n      jump\t// in\n    tag_592:\n        /* \"#utility.yul\":21295:21726   */\n      pop\n      pop\n        /* \"#utility.yul\":21280:21726   */\n    tag_588:\n        /* \"#utility.yul\":21190:21733   */\n      pop\n      pop\n      pop\n      jump\t// out\n        /* \"#utility.yul\":21739:21856   */\n    tag_387:\n        /* \"#utility.yul\":21793:21801   */\n      0x00\n        /* \"#utility.yul\":21843:21848   */\n      dup3\n        /* \"#utility.yul\":21837:21841   */\n      dup3\n        /* \"#utility.yul\":21833:21849   */\n      shr\n        /* \"#utility.yul\":21812:21849   */\n      swap1\n      pop\n        /* \"#utility.yul\":21739:21856   */\n      swap3\n      swap2\n      pop\n      pop\n      jump\t// out\n        /* \"#utility.yul\":21862:22031   */\n    tag_388:\n        /* \"#utility.yul\":21906:21912   */\n      0x00\n        /* \"#utility.yul\":21939:21990   */\n      tag_596\n        /* \"#utility.yul\":21987:21988   */\n      0x00\n        /* \"#utility.yul\":21983:21989   */\n      not\n        /* \"#utility.yul\":21975:21980   */\n      dup5\n        /* \"#utility.yul\":21972:21973   */\n      0x08\n        /* \"#utility.yul\":21968:21981   */\n      mul\n        /* \"#utility.yul\":21939:21990   */\n      tag_387\n      jump\t// in\n    tag_596:\n        /* \"#utility.yul\":21935:21991   */\n      not\n        /* \"#utility.yul\":22020:22024   */\n      dup1\n        /* \"#utility.yul\":22014:22018   */\n      dup4\n        /* \"#utility.yul\":22010:22025   */\n      and\n        /* \"#utility.yul\":22000:22025   */\n      swap2\n      pop\n        /* \"#utility.yul\":21913:22031   */\n      pop\n        /* \"#utility.yul\":21862:22031   */\n      swap3\n      swap2\n      pop\n      pop\n      jump\t// out\n        /* \"#utility.yul\":22036:22331   */\n    tag_389:\n        /* \"#utility.yul\":22112:22116   */\n      0x00\n        /* \"#utility.yul\":22258:22287   */\n      tag_598\n        /* \"#utility.yul\":22283:22286   */\n      dup4\n        /* \"#utility.yul\":22277:22281   */\n      dup4\n        /* \"#utility.yul\":22258:22287   */\n      tag_388\n      jump\t// in\n    tag_598:\n        /* \"#utility.yul\":22250:22287   */\n      swap2\n      pop\n        /* \"#utility.yul\":22320:22323   */\n      dup3\n        /* \"#utility.yul\":22317:22318   */\n      0x02\n        /* \"#utility.yul\":22313:22324   */\n      mul\n        /* \"#utility.yul\":22307:22311   */\n      dup3\n        /* \"#utility.yul\":22304:22325   */\n      or\n        /* \"#utility.yul\":22296:22325   */\n      swap1\n      pop\n        /* \"#utility.yul\":22036:22331   */\n      swap3\n      swap2\n      pop\n      pop\n      jump\t// out\n        /* \"#utility.yul\":22336:23731   */\n    tag_190:\n        /* \"#utility.yul\":22453:22490   */\n      tag_600\n        /* \"#utility.yul\":22486:22489   */\n      dup3\n        /* \"#utility.yul\":22453:22490   */\n      tag_329\n      jump\t// in\n    tag_600:\n        /* \"#utility.yul\":22555:22573   */\n      0xffffffffffffffff\n        /* \"#utility.yul\":22547:22553   */\n      dup2\n        /* \"#utility.yul\":22544:22574   */\n      gt\n        /* \"#utility.yul\":22541:22597   */\n      iszero\n      tag_601\n      jumpi\n        /* \"#utility.yul\":22577:22595   */\n      tag_602\n      tag_195\n      jump\t// in\n    tag_602:\n        /* \"#utility.yul\":22541:22597   */\n    tag_601:\n        /* \"#utility.yul\":22621:22659   */\n      tag_603\n        /* \"#utility.yul\":22653:22657   */\n      dup3\n        /* \"#utility.yul\":22647:22658   */\n      sload\n        /* \"#utility.yul\":22621:22659   */\n      tag_135\n      jump\t// in\n    tag_603:\n        /* \"#utility.yul\":22706:22773   */\n      tag_604\n        /* \"#utility.yul\":22766:22772   */\n      dup3\n        /* \"#utility.yul\":22758:22764   */\n      dup3\n        /* \"#utility.yul\":22752:22756   */\n      dup6\n        /* \"#utility.yul\":22706:22773   */\n      tag_386\n      jump\t// in\n    tag_604:\n        /* \"#utility.yul\":22800:22801   */\n      0x00\n        /* \"#utility.yul\":22824:22828   */\n      0x20\n        /* \"#utility.yul\":22811:22828   */\n      swap1\n      pop\n        /* \"#utility.yul\":22856:22858   */\n      0x1f\n        /* \"#utility.yul\":22848:22854   */\n      dup4\n        /* \"#utility.yul\":22845:22859   */\n      gt\n        /* \"#utility.yul\":22873:22874   */\n      0x01\n        /* \"#utility.yul\":22868:23486   */\n      dup2\n      eq\n      tag_606\n      jumpi\n        /* \"#utility.yul\":23530:23531   */\n      0x00\n        /* \"#utility.yul\":23547:23553   */\n      dup5\n        /* \"#utility.yul\":23544:23621   */\n      iszero\n      tag_607\n      jumpi\n        /* \"#utility.yul\":23596:23605   */\n      dup3\n        /* \"#utility.yul\":23591:23594   */\n      dup8\n        /* \"#utility.yul\":23587:23606   */\n      add\n        /* \"#utility.yul\":23581:23607   */\n      mload\n        /* \"#utility.yul\":23572:23607   */\n      swap1\n      pop\n        /* \"#utility.yul\":23544:23621   */\n    tag_607:\n        /* \"#utility.yul\":23647:23714   */\n      tag_608\n        /* \"#utility.yul\":23707:23713   */\n      dup6\n        /* \"#utility.yul\":23700:23705   */\n      dup3\n        /* \"#utility.yul\":23647:23714   */\n      tag_389\n      jump\t// in\n    tag_608:\n        /* \"#utility.yul\":23641:23645   */\n      dup7\n        /* \"#utility.yul\":23634:23715   */\n      sstore\n        /* \"#utility.yul\":23503:23725   */\n      pop\n        /* \"#utility.yul\":22838:23725   */\n      jump(tag_605)\n        /* \"#utility.yul\":22868:23486   */\n    tag_606:\n        /* \"#utility.yul\":22920:22924   */\n      0x1f\n        /* \"#utility.yul\":22916:22925   */\n      not\n        /* \"#utility.yul\":22908:22914   */\n      dup5\n        /* \"#utility.yul\":22904:22926   */\n      and\n        /* \"#utility.yul\":22954:22991   */\n      tag_609\n        /* \"#utility.yul\":22986:22990   */\n      dup7\n        /* \"#utility.yul\":22954:22991   */\n      tag_375\n      jump\t// in\n    tag_609:\n        /* \"#utility.yul\":23013:23014   */\n      0x00\n        /* \"#utility.yul\":23027:23235   */\n    tag_610:\n        /* \"#utility.yul\":23041:23048   */\n      dup3\n        /* \"#utility.yul\":23038:23039   */\n      dup2\n        /* \"#utility.yul\":23035:23049   */\n      lt\n        /* \"#utility.yul\":23027:23235   */\n      iszero\n      tag_612\n      jumpi\n        /* \"#utility.yul\":23120:23129   */\n      dup5\n        /* \"#utility.yul\":23115:23118   */\n      dup10\n        /* \"#utility.yul\":23111:23130   */\n      add\n        /* \"#utility.yul\":23105:23131   */\n      mload\n        /* \"#utility.yul\":23097:23103   */\n      dup3\n        /* \"#utility.yul\":23090:23132   */\n      sstore\n        /* \"#utility.yul\":23171:23172   */\n      0x01\n        /* \"#utility.yul\":23163:23169   */\n      dup3\n        /* \"#utility.yul\":23159:23173   */\n      add\n        /* \"#utility.yul\":23149:23173   */\n      swap2\n      pop\n        /* \"#utility.yul\":23218:23220   */\n      0x20\n        /* \"#utility.yul\":23207:23216   */\n      dup6\n        /* \"#utility.yul\":23203:23221   */\n      add\n        /* \"#utility.yul\":23190:23221   */\n      swap5\n      pop\n        /* \"#utility.yul\":23064:23068   */\n      0x20\n        /* \"#utility.yul\":23061:23062   */\n      dup2\n        /* \"#utility.yul\":23057:23069   */\n      add\n        /* \"#utility.yul\":23052:23069   */\n      swap1\n      pop\n        /* \"#utility.yul\":23027:23235   */\n      jump(tag_610)\n    tag_612:\n        /* \"#utility.yul\":23263:23269   */\n      dup7\n        /* \"#utility.yul\":23254:23261   */\n      dup4\n        /* \"#utility.yul\":23251:23270   */\n      lt\n        /* \"#utility.yul\":23248:23427   */\n      iszero\n      tag_613\n      jumpi\n        /* \"#utility.yul\":23321:23330   */\n      dup5\n        /* \"#utility.yul\":23316:23319   */\n      dup10\n        /* \"#utility.yul\":23312:23331   */\n      add\n        /* \"#utility.yul\":23306:23332   */\n      mload\n        /* \"#utility.yul\":23364:23412   */\n      tag_614\n        /* \"#utility.yul\":23406:23410   */\n      0x1f\n        /* \"#utility.yul\":23398:23404   */\n      dup10\n        /* \"#utility.yul\":23394:23411   */\n      and\n        /* \"#utility.yul\":23383:23392   */\n      dup3\n        /* \"#utility.yul\":23364:23412   */\n      tag_388\n      jump\t// in\n    tag_614:\n        /* \"#utility.yul\":23356:23362   */\n      dup4\n        /* \"#utility.yul\":23349:23413   */\n      sstore\n        /* \"#utility.yul\":23271:23427   */\n      pop\n        /* \"#utility.yul\":23248:23427   */\n    tag_613:\n        /* \"#utility.yul\":23473:23474   */\n      0x01\n        /* \"#utility.yul\":23469:23470   */\n      0x02\n        /* \"#utility.yul\":23461:23467   */\n      dup9\n        /* \"#utility.yul\":23457:23471   */\n      mul\n        /* \"#utility.yul\":23453:23475   */\n      add\n        /* \"#utility.yul\":23447:23451   */\n      dup9\n        /* \"#utility.yul\":23440:23476   */\n      sstore\n        /* \"#utility.yul\":22875:23486   */\n      pop\n      pop\n      pop\n        /* \"#utility.yul\":22838:23725   */\n    tag_605:\n      pop\n        /* \"#utility.yul\":22428:23731   */\n      pop\n      pop\n      pop\n        /* \"#utility.yul\":22336:23731   */\n      pop\n      pop\n      jump\t// out\n        /* \"#utility.yul\":23737:23967   */\n    tag_390:\n        /* \"#utility.yul\":23877:23911   */\n      0x4f6e6c792074686520636f6e7472616374206f776e65722063616e2072657365\n        /* \"#utility.yul\":23873:23874   */\n      0x00\n        /* \"#utility.yul\":23865:23871   */\n      dup3\n        /* \"#utility.yul\":23861:23875   */\n      add\n        /* \"#utility.yul\":23854:23912   */\n      mstore\n        /* \"#utility.yul\":23946:23959   */\n      0x742074686520766f74652e000000000000000000000000000000000000000000\n        /* \"#utility.yul\":23941:23943   */\n      0x20\n        /* \"#utility.yul\":23933:23939   */\n      dup3\n        /* \"#utility.yul\":23929:23944   */\n      add\n        /* \"#utility.yul\":23922:23960   */\n      mstore\n        /* \"#utility.yul\":23737:23967   */\n      pop\n      jump\t// out\n        /* \"#utility.yul\":23973:24339   */\n    tag_391:\n        /* \"#utility.yul\":24115:24118   */\n      0x00\n        /* \"#utility.yul\":24136:24203   */\n      tag_617\n        /* \"#utility.yul\":24200:24202   */\n      0x2b\n        /* \"#utility.yul\":24195:24198   */\n      dup4\n        /* \"#utility.yul\":24136:24203   */\n      tag_330\n      jump\t// in\n    tag_617:\n        /* \"#utility.yul\":24129:24203   */\n      swap2\n      pop\n        /* \"#utility.yul\":24212:24305   */\n      tag_618\n        /* \"#utility.yul\":24301:24304   */\n      dup3\n        /* \"#utility.yul\":24212:24305   */\n      tag_390\n      jump\t// in\n    tag_618:\n        /* \"#utility.yul\":24330:24332   */\n      0x40\n        /* \"#utility.yul\":24325:24328   */\n      dup3\n        /* \"#utility.yul\":24321:24333   */\n      add\n        /* \"#utility.yul\":24314:24333   */\n      swap1\n      pop\n        /* \"#utility.yul\":23973:24339   */\n      swap2\n      swap1\n      pop\n      jump\t// out\n        /* \"#utility.yul\":24345:24764   */\n    tag_233:\n        /* \"#utility.yul\":24511:24515   */\n      0x00\n        /* \"#utility.yul\":24549:24551   */\n      0x20\n        /* \"#utility.yul\":24538:24547   */\n      dup3\n        /* \"#utility.yul\":24534:24552   */\n      add\n        /* \"#utility.yul\":24526:24552   */\n      swap1\n      pop\n        /* \"#utility.yul\":24598:24607   */\n      dup2\n        /* \"#utility.yul\":24592:24596   */\n      dup2\n        /* \"#utility.yul\":24588:24608   */\n      sub\n        /* \"#utility.yul\":24584:24585   */\n      0x00\n        /* \"#utility.yul\":24573:24582   */\n      dup4\n        /* \"#utility.yul\":24569:24586   */\n      add\n        /* \"#utility.yul\":24562:24609   */\n      mstore\n        /* \"#utility.yul\":24626:24757   */\n      tag_620\n        /* \"#utility.yul\":24752:24756   */\n      dup2\n        /* \"#utility.yul\":24626:24757   */\n      tag_391\n      jump\t// in\n    tag_620:\n        /* \"#utility.yul\":24618:24757   */\n      swap1\n      pop\n        /* \"#utility.yul\":24345:24764   */\n      swap2\n      swap1\n      pop\n      jump\t// out\n        /* \"#utility.yul\":24770:24949   */\n    tag_392:\n        /* \"#utility.yul\":24910:24941   */\n      0x566f74696e672070726f63657373206973207374696c6c206f70656e2e000000\n        /* \"#utility.yul\":24906:24907   */\n      0x00\n        /* \"#utility.yul\":24898:24904   */\n      dup3\n        /* \"#utility.yul\":24894:24908   */\n      add\n        /* \"#utility.yul\":24887:24942   */\n      mstore\n        /* \"#utility.yul\":24770:24949   */\n      pop\n      jump\t// out\n        /* \"#utility.yul\":24955:25321   */\n    tag_393:\n        /* \"#utility.yul\":25097:25100   */\n      0x00\n        /* \"#utility.yul\":25118:25185   */\n      tag_623\n        /* \"#utility.yul\":25182:25184   */\n      0x1d\n        /* \"#utility.yul\":25177:25180   */\n      dup4\n        /* \"#utility.yul\":25118:25185   */\n      tag_330\n      jump\t// in\n    tag_623:\n        /* \"#utility.yul\":25111:25185   */\n      swap2\n      pop\n        /* \"#utility.yul\":25194:25287   */\n      tag_624\n        /* \"#utility.yul\":25283:25286   */\n      dup3\n        /* \"#utility.yul\":25194:25287   */\n      tag_392\n      jump\t// in\n    tag_624:\n        /* \"#utility.yul\":25312:25314   */\n      0x20\n        /* \"#utility.yul\":25307:25310   */\n      dup3\n        /* \"#utility.yul\":25303:25315   */\n      add\n        /* \"#utility.yul\":25296:25315   */\n      swap1\n      pop\n        /* \"#utility.yul\":24955:25321   */\n      swap2\n      swap1\n      pop\n      jump\t// out\n        /* \"#utility.yul\":25327:25746   */\n    tag_236:\n        /* \"#utility.yul\":25493:25497   */\n      0x00\n        /* \"#utility.yul\":25531:25533   */\n      0x20\n        /* \"#utility.yul\":25520:25529   */\n      dup3\n        /* \"#utility.yul\":25516:25534   */\n      add\n        /* \"#utility.yul\":25508:25534   */\n      swap1\n      pop\n        /* \"#utility.yul\":25580:25589   */\n      dup2\n        /* \"#utility.yul\":25574:25578   */\n      dup2\n        /* \"#utility.yul\":25570:25590   */\n      sub\n        /* \"#utility.yul\":25566:25567   */\n      0x00\n        /* \"#utility.yul\":25555:25564   */\n      dup4\n        /* \"#utility.yul\":25551:25568   */\n      add\n        /* \"#utility.yul\":25544:25591   */\n      mstore\n        /* \"#utility.yul\":25608:25739   */\n      tag_626\n        /* \"#utility.yul\":25734:25738   */\n      dup2\n        /* \"#utility.yul\":25608:25739   */\n      tag_393\n      jump\t// in\n    tag_626:\n        /* \"#utility.yul\":25600:25739   */\n      swap1\n      pop\n        /* \"#utility.yul\":25327:25746   */\n      swap2\n      swap1\n      pop\n      jump\t// out\n        /* \"#utility.yul\":25752:25923   */\n    tag_394:\n        /* \"#utility.yul\":25892:25915   */\n      0x4e6f2066756e647320746f2077697468647261772e0000000000000000000000\n        /* \"#utility.yul\":25888:25889   */\n      0x00\n        /* \"#utility.yul\":25880:25886   */\n      dup3\n        /* \"#utility.yul\":25876:25890   */\n      add\n        /* \"#utility.yul\":25869:25916   */\n      mstore\n        /* \"#utility.yul\":25752:25923   */\n      pop\n      jump\t// out\n        /* \"#utility.yul\":25929:26295   */\n    tag_395:\n        /* \"#utility.yul\":26071:26074   */\n      0x00\n        /* \"#utility.yul\":26092:26159   */\n      tag_629\n        /* \"#utility.yul\":26156:26158   */\n      0x15\n        /* \"#utility.yul\":26151:26154   */\n      dup4\n        /* \"#utility.yul\":26092:26159   */\n      tag_330\n      jump\t// in\n    tag_629:\n        /* \"#utility.yul\":26085:26159   */\n      swap2\n      pop\n        /* \"#utility.yul\":26168:26261   */\n      tag_630\n        /* \"#utility.yul\":26257:26260   */\n      dup3\n        /* \"#utility.yul\":26168:26261   */\n      tag_394\n      jump\t// in\n    tag_630:\n        /* \"#utility.yul\":26286:26288   */\n      0x20\n        /* \"#utility.yul\":26281:26284   */\n      dup3\n        /* \"#utility.yul\":26277:26289   */\n      add\n        /* \"#utility.yul\":26270:26289   */\n      swap1\n      pop\n        /* \"#utility.yul\":25929:26295   */\n      swap2\n      swap1\n      pop\n      jump\t// out\n        /* \"#utility.yul\":26301:26720   */\n    tag_265:\n        /* \"#utility.yul\":26467:26471   */\n      0x00\n        /* \"#utility.yul\":26505:26507   */\n      0x20\n        /* \"#utility.yul\":26494:26503   */\n      dup3\n        /* \"#utility.yul\":26490:26508   */\n      add\n        /* \"#utility.yul\":26482:26508   */\n      swap1\n      pop\n        /* \"#utility.yul\":26554:26563   */\n      dup2\n        /* \"#utility.yul\":26548:26552   */\n      dup2\n        /* \"#utility.yul\":26544:26564   */\n      sub\n        /* \"#utility.yul\":26540:26541   */\n      0x00\n        /* \"#utility.yul\":26529:26538   */\n      dup4\n        /* \"#utility.yul\":26525:26542   */\n      add\n        /* \"#utility.yul\":26518:26565   */\n      mstore\n        /* \"#utility.yul\":26582:26713   */\n      tag_632\n        /* \"#utility.yul\":26708:26712   */\n      dup2\n        /* \"#utility.yul\":26582:26713   */\n      tag_395\n      jump\t// in\n    tag_632:\n        /* \"#utility.yul\":26574:26713   */\n      swap1\n      pop\n        /* \"#utility.yul\":26301:26720   */\n      swap2\n      swap1\n      pop\n      jump\t// out\n        /* \"#utility.yul\":26726:26920   */\n    tag_273:\n        /* \"#utility.yul\":26766:26770   */\n      0x00\n        /* \"#utility.yul\":26786:26806   */\n      tag_634\n        /* \"#utility.yul\":26804:26805   */\n      dup3\n        /* \"#utility.yul\":26786:26806   */\n      tag_326\n      jump\t// in\n    tag_634:\n        /* \"#utility.yul\":26781:26806   */\n      swap2\n      pop\n        /* \"#utility.yul\":26820:26840   */\n      tag_635\n        /* \"#utility.yul\":26838:26839   */\n      dup4\n        /* \"#utility.yul\":26820:26840   */\n      tag_326\n      jump\t// in\n    tag_635:\n        /* \"#utility.yul\":26815:26840   */\n      swap3\n      pop\n        /* \"#utility.yul\":26864:26865   */\n      dup3\n        /* \"#utility.yul\":26861:26862   */\n      dup3\n        /* \"#utility.yul\":26857:26866   */\n      sub\n        /* \"#utility.yul\":26849:26866   */\n      swap1\n      pop\n        /* \"#utility.yul\":26888:26889   */\n      dup2\n        /* \"#utility.yul\":26882:26886   */\n      dup2\n        /* \"#utility.yul\":26879:26890   */\n      gt\n        /* \"#utility.yul\":26876:26913   */\n      iszero\n      tag_636\n      jumpi\n        /* \"#utility.yul\":26893:26911   */\n      tag_637\n      tag_369\n      jump\t// in\n    tag_637:\n        /* \"#utility.yul\":26876:26913   */\n    tag_636:\n        /* \"#utility.yul\":26726:26920   */\n      swap3\n      swap2\n      pop\n      pop\n      jump\t// out\n        /* \"#utility.yul\":26926:27108   */\n    tag_396:\n        /* \"#utility.yul\":27066:27100   */\n      0x4e6577206f776e657220616464726573732063616e6e6f74206265207a65726f\n        /* \"#utility.yul\":27062:27063   */\n      0x00\n        /* \"#utility.yul\":27054:27060   */\n      dup3\n        /* \"#utility.yul\":27050:27064   */\n      add\n        /* \"#utility.yul\":27043:27101   */\n      mstore\n        /* \"#utility.yul\":26926:27108   */\n      pop\n      jump\t// out\n        /* \"#utility.yul\":27114:27480   */\n    tag_397:\n        /* \"#utility.yul\":27256:27259   */\n      0x00\n        /* \"#utility.yul\":27277:27344   */\n      tag_640\n        /* \"#utility.yul\":27341:27343   */\n      0x20\n        /* \"#utility.yul\":27336:27339   */\n      dup4\n        /* \"#utility.yul\":27277:27344   */\n      tag_330\n      jump\t// in\n    tag_640:\n        /* \"#utility.yul\":27270:27344   */\n      swap2\n      pop\n        /* \"#utility.yul\":27353:27446   */\n      tag_641\n        /* \"#utility.yul\":27442:27445   */\n      dup3\n        /* \"#utility.yul\":27353:27446   */\n      tag_396\n      jump\t// in\n    tag_641:\n        /* \"#utility.yul\":27471:27473   */\n      0x20\n        /* \"#utility.yul\":27466:27469   */\n      dup3\n        /* \"#utility.yul\":27462:27474   */\n      add\n        /* \"#utility.yul\":27455:27474   */\n      swap1\n      pop\n        /* \"#utility.yul\":27114:27480   */\n      swap2\n      swap1\n      pop\n      jump\t// out\n        /* \"#utility.yul\":27486:27905   */\n    tag_283:\n        /* \"#utility.yul\":27652:27656   */\n      0x00\n        /* \"#utility.yul\":27690:27692   */\n      0x20\n        /* \"#utility.yul\":27679:27688   */\n      dup3\n        /* \"#utility.yul\":27675:27693   */\n      add\n        /* \"#utility.yul\":27667:27693   */\n      swap1\n      pop\n        /* \"#utility.yul\":27739:27748   */\n      dup2\n        /* \"#utility.yul\":27733:27737   */\n      dup2\n        /* \"#utility.yul\":27729:27749   */\n      sub\n        /* \"#utility.yul\":27725:27726   */\n      0x00\n        /* \"#utility.yul\":27714:27723   */\n      dup4\n        /* \"#utility.yul\":27710:27727   */\n      add\n        /* \"#utility.yul\":27703:27750   */\n      mstore\n        /* \"#utility.yul\":27767:27898   */\n      tag_643\n        /* \"#utility.yul\":27893:27897   */\n      dup2\n        /* \"#utility.yul\":27767:27898   */\n      tag_397\n      jump\t// in\n    tag_643:\n        /* \"#utility.yul\":27759:27898   */\n      swap1\n      pop\n        /* \"#utility.yul\":27486:27905   */\n      swap2\n      swap1\n      pop\n      jump\t// out\n        /* \"#utility.yul\":27911:28144   */\n    tag_317:\n        /* \"#utility.yul\":27950:27953   */\n      0x00\n        /* \"#utility.yul\":27973:27997   */\n      tag_645\n        /* \"#utility.yul\":27991:27996   */\n      dup3\n        /* \"#utility.yul\":27973:27997   */\n      tag_326\n      jump\t// in\n    tag_645:\n        /* \"#utility.yul\":27964:27997   */\n      swap2\n      pop\n        /* \"#utility.yul\":28019:28085   */\n      0xffffffffffffffffffffffffffffffffffffffffffffffffffffffffffffffff\n        /* \"#utility.yul\":28012:28017   */\n      dup3\n        /* \"#utility.yul\":28009:28086   */\n      sub\n        /* \"#utility.yul\":28006:28109   */\n      tag_646\n      jumpi\n        /* \"#utility.yul\":28089:28107   */\n      tag_647\n      tag_369\n      jump\t// in\n    tag_647:\n        /* \"#utility.yul\":28006:28109   */\n    tag_646:\n        /* \"#utility.yul\":28136:28137   */\n      0x01\n        /* \"#utility.yul\":28129:28134   */\n      dup3\n        /* \"#utility.yul\":28125:28138   */\n      add\n        /* \"#utility.yul\":28118:28138   */\n      swap1\n      pop\n        /* \"#utility.yul\":27911:28144   */\n      swap2\n      swap1\n      pop\n      jump\t// out\n        /* \"#utility.yul\":28150:28330   */\n    tag_398:\n        /* \"#utility.yul\":28198:28275   */\n      0x4e487b7100000000000000000000000000000000000000000000000000000000\n        /* \"#utility.yul\":28195:28196   */\n      0x00\n        /* \"#utility.yul\":28188:28276   */\n      mstore\n        /* \"#utility.yul\":28295:28299   */\n      0x12\n        /* \"#utility.yul\":28292:28293   */\n      0x04\n        /* \"#utility.yul\":28285:28300   */\n      mstore\n        /* \"#utility.yul\":28319:28323   */\n      0x24\n        /* \"#utility.yul\":28316:28317   */\n      0x00\n        /* \"#utility.yul\":28309:28324   */\n      revert\n        /* \"#utility.yul\":28336:28512   */\n    tag_320:\n        /* \"#utility.yul\":28368:28369   */\n      0x00\n        /* \"#utility.yul\":28385:28405   */\n      tag_650\n        /* \"#utility.yul\":28403:28404   */\n      dup3\n        /* \"#utility.yul\":28385:28405   */\n      tag_326\n      jump\t// in\n    tag_650:\n        /* \"#utility.yul\":28380:28405   */\n      swap2\n      pop\n        /* \"#utility.yul\":28419:28439   */\n      tag_651\n        /* \"#utility.yul\":28437:28438   */\n      dup4\n        /* \"#utility.yul\":28419:28439   */\n      tag_326\n      jump\t// in\n    tag_651:\n        /* \"#utility.yul\":28414:28439   */\n      swap3\n      pop\n        /* \"#utility.yul\":28458:28459   */\n      dup3\n        /* \"#utility.yul\":28448:28483   */\n      tag_652\n      jumpi\n        /* \"#utility.yul\":28463:28481   */\n      tag_653\n      tag_398\n      jump\t// in\n    tag_653:\n        /* \"#utility.yul\":28448:28483   */\n    tag_652:\n        /* \"#utility.yul\":28504:28505   */\n      dup3\n        /* \"#utility.yul\":28501:28502   */\n      dup3\n        /* \"#utility.yul\":28497:28506   */\n      mod\n        /* \"#utility.yul\":28492:28506   */\n      swap1\n      pop\n        /* \"#utility.yul\":28336:28512   */\n      swap3\n      swap2\n      pop\n      pop\n      jump\t// out\n\n    auxdata: 0xa26469706673582212200ffb203d7b8cf012c544b35fa99be73e24b5f537b22b5f31165d4de619024ec264736f6c63430008190033\n}\n",
				"bytecode": {
					"linkReferences": {},
					"object": "608060405234801561001057600080fd5b50336000806101000a81548173ffffffffffffffffffffffffffffffffffffffff021916908373ffffffffffffffffffffffffffffffffffffffff160217905550600160405180604001604052806040518060400160405280600481526020017f456c6f6e0000000000000000000000000000000000000000000000000000000081525081526020016000815250908060018154018082558091505060019003906000526020600020906002020160009091909190915060008201518160000190816100dc91906104a2565b50602082015181600101555050600160405180604001604052806040518060400160405280600481526020017f4d61726b00000000000000000000000000000000000000000000000000000000815250815260200160008152509080600181540180825580915050600190039060005260206000209060020201600090919091909150600082015181600001908161017491906104a2565b50602082015181600101555050600160405180604001604052806040518060400160405280600381526020017f53616d0000000000000000000000000000000000000000000000000000000000815250815260200160008152509080600181540180825580915050600190039060005260206000209060020201600090919091909150600082015181600001908161020c91906104a2565b5060208201518160010155505060008060146101000a81548160ff02191690831515021790555060008060156101000a81548160ff021916908315150217905550610574565b600081519050919050565b7f4e487b7100000000000000000000000000000000000000000000000000000000600052604160045260246000fd5b7f4e487b7100000000000000000000000000000000000000000000000000000000600052602260045260246000fd5b600060028204905060018216806102d357607f821691505b6020821081036102e6576102e561028c565b5b50919050565b60008190508160005260206000209050919050565b60006020601f8301049050919050565b600082821b905092915050565b60006008830261034e7fffffffffffffffffffffffffffffffffffffffffffffffffffffffffffffffff82610311565b6103588683610311565b95508019841693508086168417925050509392505050565b6000819050919050565b6000819050919050565b600061039f61039a61039584610370565b61037a565b610370565b9050919050565b6000819050919050565b6103b983610384565b6103cd6103c5826103a6565b84845461031e565b825550505050565b600090565b6103e26103d5565b6103ed8184846103b0565b505050565b5b81811015610411576104066000826103da565b6001810190506103f3565b5050565b601f82111561045657610427816102ec565b61043084610301565b8101602085101561043f578190505b61045361044b85610301565b8301826103f2565b50505b505050565b600082821c905092915050565b60006104796000198460080261045b565b1980831691505092915050565b60006104928383610468565b9150826002028217905092915050565b6104ab82610252565b67ffffffffffffffff8111156104c4576104c361025d565b5b6104ce82546102bb565b6104d9828285610415565b600060209050601f83116001811461050c57600084156104fa578287015190505b6105048582610486565b86555061056c565b601f19841661051a866102ec565b60005b828110156105425784890151825560018201915060208501945060208101905061051d565b8683101561055f578489015161055b601f891682610468565b8355505b6001600288020188555050505b505050505050565b612815806105836000396000f3fe6080604052600436106100fe5760003560e01c806336704f5e11610095578063a6151a8411610064578063a6151a841461031d578063a6f9dae114610348578063a95824b414610371578063b2c2f2e81461039c578063da58c7d9146103d9576100fe565b806336704f5e1461024d5780633ccfd60b1461028c578063950c7822146102a35780639753f432146102e0576100fe565b806314034bd2116100d157806314034bd2146101b35780632479ecb8146101de5780632e13096414610209578063329a8cfa14610236576100fe565b80630121b93f14610103578063013cf08b1461011f578063029eb76e1461015d578063092a5cce14610188575b600080fd5b61011d60048036038101906101189190611990565b610416565b005b34801561012b57600080fd5b5061014660048036038101906101419190611990565b61079d565b604051610154929190611a5c565b60405180910390f35b34801561016957600080fd5b50610172610859565b60405161017f9190611acd565b60405180910390f35b34801561019457600080fd5b5061019d61087d565b6040516101aa9190611b03565b60405180910390f35b3480156101bf57600080fd5b506101c86109ad565b6040516101d59190611b1e565b60405180910390f35b3480156101ea57600080fd5b506101f3610d29565b6040516102009190611b03565b60405180910390f35b34801561021557600080fd5b5061021e610d3c565b60405161022d93929190611d0a565b60405180910390f35b34801561024257600080fd5b5061024b610fc1565b005b34801561025957600080fd5b50610274600480360381019061026f9190611990565b6111f4565b60405161028393929190611d56565b60405180910390f35b34801561029857600080fd5b506102a16112b6565b005b3480156102af57600080fd5b506102ca60048036038101906102c59190611dc0565b611446565b6040516102d79190611ded565b60405180910390f35b3480156102ec57600080fd5b5061030760048036038101906103029190611dc0565b6114ea565b6040516103149190611ded565b60405180910390f35b34801561032957600080fd5b50610332611502565b60405161033f9190611b03565b60405180910390f35b34801561035457600080fd5b5061036f600480360381019061036a9190611dc0565b611515565b005b34801561037d57600080fd5b506103866116a5565b6040516103939190611b03565b60405180910390f35b3480156103a857600080fd5b506103c360048036038101906103be9190611990565b61170c565b6040516103d09190611ded565b60405180910390f35b3480156103e557600080fd5b5061040060048036038101906103fb9190611990565b61178a565b60405161040d9190611acd565b60405180910390f35b600060159054906101000a900460ff1615610466576040517f08c379a000000000000000000000000000000000000000000000000000000000815260040161045d90611e54565b60405180910390fd5b600060149054906101000a900460ff16156104b6576040517f08c379a00000000000000000000000000000000000000000000000000000000081526004016104ad90611ec0565b60405180910390fd5b662386f26fc1000034146104ff576040517f08c379a00000000000000000000000000000000000000000000000000000000081526004016104f690611f2c565b60405180910390fd5b60008054906101000a900473ffffffffffffffffffffffffffffffffffffffff1673ffffffffffffffffffffffffffffffffffffffff163373ffffffffffffffffffffffffffffffffffffffff160361058d576040517f08c379a000000000000000000000000000000000000000000000000000000000815260040161058490611f98565b60405180910390fd5b60018054905081106105d4576040517f08c379a00000000000000000000000000000000000000000000000000000000081526004016105cb90612004565b60405180910390fd5b6005600360003373ffffffffffffffffffffffffffffffffffffffff1673ffffffffffffffffffffffffffffffffffffffff1681526020019081526020016000205410610656576040517f08c379a000000000000000000000000000000000000000000000000000000000815260040161064d90612070565b60405180910390fd5b600180828154811061066b5761066a612090565b5b9060005260206000209060020201600101600082825461068b91906120ee565b925050819055506001600360003373ffffffffffffffffffffffffffffffffffffffff1673ffffffffffffffffffffffffffffffffffffffff16815260200190815260200160002060008282546106e291906120ee565b925050819055506004339080600181540180825580915050600190039060005260206000200160009091909190916101000a81548173ffffffffffffffffffffffffffffffffffffffff021916908373ffffffffffffffffffffffffffffffffffffffff1602179055503373ffffffffffffffffffffffffffffffffffffffff167fa36cc2bebb74db33e9f88110a07ef56e1b31b24b4c4f51b54b1664266e29f45b826040516107929190611ded565b60405180910390a250565b600181815481106107ad57600080fd5b90600052602060002090600202016000915090508060000180546107d090612151565b80601f01602080910402602001604051908101604052809291908181526020018280546107fc90612151565b80156108495780601f1061081e57610100808354040283529160200191610849565b820191906000526020600020905b81548152906001019060200180831161082c57829003601f168201915b5050505050908060010154905082565b60008054906101000a900473ffffffffffffffffffffffffffffffffffffffff1681565b60008060009054906101000a900473ffffffffffffffffffffffffffffffffffffffff1673ffffffffffffffffffffffffffffffffffffffff163373ffffffffffffffffffffffffffffffffffffffff161461090e576040517f08c379a0000000000000000000000000000000000000000000000000000000008152600401610905906121f4565b60405180910390fd5b600060159054906101000a900460ff161561095e576040517f08c379a000000000000000000000000000000000000000000000000000000000815260040161095590611e54565b60405180910390fd5b600047905060008114610974576109736112b6565b5b60008054906101000a900473ffffffffffffffffffffffffffffffffffffffff1673ffffffffffffffffffffffffffffffffffffffff16ff5b606060008054906101000a900473ffffffffffffffffffffffffffffffffffffffff1673ffffffffffffffffffffffffffffffffffffffff163373ffffffffffffffffffffffffffffffffffffffff1614610a3d576040517f08c379a0000000000000000000000000000000000000000000000000000000008152600401610a34906121f4565b60405180910390fd5b600060159054906101000a900460ff1615610a8d576040517f08c379a0000000000000000000000000000000000000000000000000000000008152600401610a8490611e54565b60405180910390fd5b610a956116a5565b610ad4576040517f08c379a0000000000000000000000000000000000000000000000000000000008152600401610acb90612260565b60405180910390fd5b600080806000905060005b600180549050811015610b8c578360018281548110610b0157610b00612090565b5b9060005260206000209060020201600101541115610b4d5760018181548110610b2d57610b2c612090565b5b906000526020600020906002020160010154935080925060009150610b7f565b8360018281548110610b6257610b61612090565b5b90600052602060002090600202016001015403610b7e57600191505b5b8080600101915050610adf565b508015610b9e57610b9b6117c9565b91505b60018281548110610bb257610bb1612090565b5b90600052602060002090600202016000018054610bce90612151565b80601f0160208091040260200160405190810160405280929190818152602001828054610bfa90612151565b8015610c475780601f10610c1c57610100808354040283529160200191610c47565b820191906000526020600020905b815481529060010190602001808311610c2a57829003601f168201915b50505050509350600260405180606001604052806001600280549050610c6d91906120ee565b8152602001868152602001858152509080600181540180825580915050600190039060005260206000209060030201600090919091909150600082015181600001556020820151816001019081610cc4919061245b565b506040820151816002015550506001600060146101000a81548160ff0219169083151502179055507f2836fc1569f2cf0eafa6bae027d7b993edbe7762df0ab247aecfcf12f412244d84604051610d1b9190611b1e565b60405180910390a150505090565b600060149054906101000a900460ff1681565b6060806060600060028054905067ffffffffffffffff811115610d6257610d61612280565b5b604051908082528060200260200182016040528015610d905781602001602082028036833780820191505090505b509050600060028054905067ffffffffffffffff811115610db457610db3612280565b5b604051908082528060200260200182016040528015610de757816020015b6060815260200190600190039081610dd25790505b509050600060028054905067ffffffffffffffff811115610e0b57610e0a612280565b5b604051908082528060200260200182016040528015610e395781602001602082028036833780820191505090505b50905060005b600280549050811015610faf5760028181548110610e6057610e5f612090565b5b906000526020600020906003020160000154848281518110610e8557610e84612090565b5b60200260200101818152505060028181548110610ea557610ea4612090565b5b90600052602060002090600302016001018054610ec190612151565b80601f0160208091040260200160405190810160405280929190818152602001828054610eed90612151565b8015610f3a5780601f10610f0f57610100808354040283529160200191610f3a565b820191906000526020600020905b815481529060010190602001808311610f1d57829003601f168201915b5050505050838281518110610f5257610f51612090565b5b602002602001018190525060028181548110610f7157610f70612090565b5b906000526020600020906003020160020154828281518110610f9657610f95612090565b5b6020026020010181815250508080600101915050610e3f565b50828282955095509550505050909192565b600060159054906101000a900460ff1615611011576040517f08c379a000000000000000000000000000000000000000000000000000000000815260040161100890611e54565b60405180910390fd5b60008054906101000a900473ffffffffffffffffffffffffffffffffffffffff1673ffffffffffffffffffffffffffffffffffffffff163373ffffffffffffffffffffffffffffffffffffffff161461109f576040517f08c379a00000000000000000000000000000000000000000000000000000000081526004016110969061259f565b60405180910390fd5b600060149054906101000a900460ff166110ee576040517f08c379a00000000000000000000000000000000000000000000000000000000081526004016110e59061260b565b60405180910390fd5b60005b6001805490508110156111365760006001828154811061111457611113612090565b5b90600052602060002090600202016001018190555080806001019150506110f1565b5060005b6004805490508110156111d7576000600360006004848154811061116157611160612090565b5b9060005260206000200160009054906101000a900473ffffffffffffffffffffffffffffffffffffffff1673ffffffffffffffffffffffffffffffffffffffff1673ffffffffffffffffffffffffffffffffffffffff16815260200190815260200160002081905550808060010191505061113a565b5060008060146101000a81548160ff021916908315150217905550565b6002818154811061120457600080fd5b906000526020600020906003020160009150905080600001549080600101805461122d90612151565b80601f016020809104026020016040519081016040528092919081815260200182805461125990612151565b80156112a65780601f1061127b576101008083540402835291602001916112a6565b820191906000526020600020905b81548152906001019060200180831161128957829003601f168201915b5050505050908060020154905083565b60008054906101000a900473ffffffffffffffffffffffffffffffffffffffff1673ffffffffffffffffffffffffffffffffffffffff163373ffffffffffffffffffffffffffffffffffffffff1614611344576040517f08c379a000000000000000000000000000000000000000000000000000000000815260040161133b906121f4565b60405180910390fd5b600060159054906101000a900460ff1615611394576040517f08c379a000000000000000000000000000000000000000000000000000000000815260040161138b90611e54565b60405180910390fd5b6000479050600081116113dc576040517f08c379a00000000000000000000000000000000000000000000000000000000081526004016113d390612677565b60405180910390fd5b60008054906101000a900473ffffffffffffffffffffffffffffffffffffffff1673ffffffffffffffffffffffffffffffffffffffff166108fc829081150290604051600060405180830381858888f19350505050158015611442573d6000803e3d6000fd5b5050565b60008060159054906101000a900460ff1615611497576040517f08c379a000000000000000000000000000000000000000000000000000000000815260040161148e90611e54565b60405180910390fd5b600360008373ffffffffffffffffffffffffffffffffffffffff1673ffffffffffffffffffffffffffffffffffffffff1681526020019081526020016000205460056114e39190612697565b9050919050565b60036020528060005260406000206000915090505481565b600060159054906101000a900460ff1681565b60008054906101000a900473ffffffffffffffffffffffffffffffffffffffff1673ffffffffffffffffffffffffffffffffffffffff163373ffffffffffffffffffffffffffffffffffffffff16146115a3576040517f08c379a000000000000000000000000000000000000000000000000000000000815260040161159a906121f4565b60405180910390fd5b600060159054906101000a900460ff16156115f3576040517f08c379a00000000000000000000000000000000000000000000000000000000081526004016115ea90611e54565b60405180910390fd5b600073ffffffffffffffffffffffffffffffffffffffff168173ffffffffffffffffffffffffffffffffffffffff1603611662576040517f08c379a000000000000000000000000000000000000000000000000000000000815260040161165990612717565b60405180910390fd5b806000806101000a81548173ffffffffffffffffffffffffffffffffffffffff021916908373ffffffffffffffffffffffffffffffffffffffff16021790555050565b60008060159054906101000a900460ff16156116f6576040517f08c379a00000000000000000000000000000000000000000000000000000000081526004016116ed90611e54565b60405180910390fd5b600060149054906101000a900460ff1615905090565b60008060159054906101000a900460ff161561175d576040517f08c379a000000000000000000000000000000000000000000000000000000000815260040161175490611e54565b60405180910390fd5b6001828154811061177157611770612090565b5b9060005260206000209060020201600101549050919050565b6004818154811061179a57600080fd5b906000526020600020016000915054906101000a900473ffffffffffffffffffffffffffffffffffffffff1681565b60008060159054906101000a900460ff161561181a576040517f08c379a000000000000000000000000000000000000000000000000000000000815260040161181190611e54565b60405180910390fd5b600060018054905067ffffffffffffffff81111561183b5761183a612280565b5b6040519080825280602002602001820160405280156118695781602001602082028036833780820191505090505b509050600080600160008154811061188457611883612090565b5b906000526020600020906002020160010154905060005b6001805490508110156119105781600182815481106118bd576118bc612090565b5b9060005260206000209060020201600101540361190357808484815181106118e8576118e7612090565b5b60200260200101818152505082806118ff90612737565b9350505b808060010191505061189b565b506000826001436119219190612697565b4060001c61192f91906127ae565b905083818151811061194457611943612090565b5b602002602001015194505050505090565b600080fd5b6000819050919050565b61196d8161195a565b811461197857600080fd5b50565b60008135905061198a81611964565b92915050565b6000602082840312156119a6576119a5611955565b5b60006119b48482850161197b565b91505092915050565b600081519050919050565b600082825260208201905092915050565b60005b838110156119f75780820151818401526020810190506119dc565b60008484015250505050565b6000601f19601f8301169050919050565b6000611a1f826119bd565b611a2981856119c8565b9350611a398185602086016119d9565b611a4281611a03565b840191505092915050565b611a568161195a565b82525050565b60006040820190508181036000830152611a768185611a14565b9050611a856020830184611a4d565b9392505050565b600073ffffffffffffffffffffffffffffffffffffffff82169050919050565b6000611ab782611a8c565b9050919050565b611ac781611aac565b82525050565b6000602082019050611ae26000830184611abe565b92915050565b60008115159050919050565b611afd81611ae8565b82525050565b6000602082019050611b186000830184611af4565b92915050565b60006020820190508181036000830152611b388184611a14565b905092915050565b600081519050919050565b600082825260208201905092915050565b6000819050602082019050919050565b611b758161195a565b82525050565b6000611b878383611b6c565b60208301905092915050565b6000602082019050919050565b6000611bab82611b40565b611bb58185611b4b565b9350611bc083611b5c565b8060005b83811015611bf1578151611bd88882611b7b565b9750611be383611b93565b925050600181019050611bc4565b5085935050505092915050565b600081519050919050565b600082825260208201905092915050565b6000819050602082019050919050565b600082825260208201905092915050565b6000611c46826119bd565b611c508185611c2a565b9350611c608185602086016119d9565b611c6981611a03565b840191505092915050565b6000611c808383611c3b565b905092915050565b6000602082019050919050565b6000611ca082611bfe565b611caa8185611c09565b935083602082028501611cbc85611c1a565b8060005b85811015611cf85784840389528151611cd98582611c74565b9450611ce483611c88565b925060208a01995050600181019050611cc0565b50829750879550505050505092915050565b60006060820190508181036000830152611d248186611ba0565b90508181036020830152611d388185611c95565b90508181036040830152611d4c8184611ba0565b9050949350505050565b6000606082019050611d6b6000830186611a4d565b8181036020830152611d7d8185611a14565b9050611d8c6040830184611a4d565b949350505050565b611d9d81611aac565b8114611da857600080fd5b50565b600081359050611dba81611d94565b92915050565b600060208284031215611dd657611dd5611955565b5b6000611de484828501611dab565b91505092915050565b6000602082019050611e026000830184611a4d565b92915050565b7f436f6e74726163742069732064657374726f7965640000000000000000000000600082015250565b6000611e3e6015836119c8565b9150611e4982611e08565b602082019050919050565b60006020820190508181036000830152611e6d81611e31565b9050919050565b7f566f74696e6720697320636c6f7365642e000000000000000000000000000000600082015250565b6000611eaa6011836119c8565b9150611eb582611e74565b602082019050919050565b60006020820190508181036000830152611ed981611e9d565b9050919050565b7f496e636f72726563742065746865722076616c75652073656e742e0000000000600082015250565b6000611f16601b836119c8565b9150611f2182611ee0565b602082019050919050565b60006020820190508181036000830152611f4581611f09565b9050919050565b7f50726f6a656374206d616e616765722063616e6e6f7420766f74652e00000000600082015250565b6000611f82601c836119c8565b9150611f8d82611f4c565b602082019050919050565b60006020820190508181036000830152611fb181611f75565b9050919050565b7f496e76616c69642070726f706f73616c20696e6465782e000000000000000000600082015250565b6000611fee6017836119c8565b9150611ff982611fb8565b602082019050919050565b6000602082019050818103600083015261201d81611fe1565b9050919050565b7f45786365656473206d6178696d756d20766f7465732070657220766f7465722e600082015250565b600061205a6020836119c8565b915061206582612024565b602082019050919050565b600060208201905081810360008301526120898161204d565b9050919050565b7f4e487b7100000000000000000000000000000000000000000000000000000000600052603260045260246000fd5b7f4e487b7100000000000000000000000000000000000000000000000000000000600052601160045260246000fd5b60006120f98261195a565b91506121048361195a565b925082820190508082111561211c5761211b6120bf565b5b92915050565b7f4e487b7100000000000000000000000000000000000000000000000000000000600052602260045260246000fd5b6000600282049050600182168061216957607f821691505b60208210810361217c5761217b612122565b5b50919050565b7f4f6e6c79207468652070726f6a656374206d616e616765722063616e2063616c60008201527f6c20746869732066756e6374696f6e2e00000000000000000000000000000000602082015250565b60006121de6030836119c8565b91506121e982612182565b604082019050919050565b6000602082019050818103600083015261220d816121d1565b9050919050565b7f566f74696e6720697320616c726561647920636c6f7365642e00000000000000600082015250565b600061224a6019836119c8565b915061225582612214565b602082019050919050565b600060208201905081810360008301526122798161223d565b9050919050565b7f4e487b7100000000000000000000000000000000000000000000000000000000600052604160045260246000fd5b60008190508160005260206000209050919050565b60006020601f8301049050919050565b600082821b905092915050565b6000600883026123117fffffffffffffffffffffffffffffffffffffffffffffffffffffffffffffffff826122d4565b61231b86836122d4565b95508019841693508086168417925050509392505050565b6000819050919050565b600061235861235361234e8461195a565b612333565b61195a565b9050919050565b6000819050919050565b6123728361233d565b61238661237e8261235f565b8484546122e1565b825550505050565b600090565b61239b61238e565b6123a6818484612369565b505050565b5b818110156123ca576123bf600082612393565b6001810190506123ac565b5050565b601f82111561240f576123e0816122af565b6123e9846122c4565b810160208510156123f8578190505b61240c612404856122c4565b8301826123ab565b50505b505050565b600082821c905092915050565b600061243260001984600802612414565b1980831691505092915050565b600061244b8383612421565b9150826002028217905092915050565b612464826119bd565b67ffffffffffffffff81111561247d5761247c612280565b5b6124878254612151565b6124928282856123ce565b600060209050601f8311600181146124c557600084156124b3578287015190505b6124bd858261243f565b865550612525565b601f1984166124d3866122af565b60005b828110156124fb578489015182556001820191506020850194506020810190506124d6565b868310156125185784890151612514601f891682612421565b8355505b6001600288020188555050505b505050505050565b7f4f6e6c792074686520636f6e7472616374206f776e65722063616e207265736560008201527f742074686520766f74652e000000000000000000000000000000000000000000602082015250565b6000612589602b836119c8565b91506125948261252d565b604082019050919050565b600060208201905081810360008301526125b88161257c565b9050919050565b7f566f74696e672070726f63657373206973207374696c6c206f70656e2e000000600082015250565b60006125f5601d836119c8565b9150612600826125bf565b602082019050919050565b60006020820190508181036000830152612624816125e8565b9050919050565b7f4e6f2066756e647320746f2077697468647261772e0000000000000000000000600082015250565b60006126616015836119c8565b915061266c8261262b565b602082019050919050565b6000602082019050818103600083015261269081612654565b9050919050565b60006126a28261195a565b91506126ad8361195a565b92508282039050818111156126c5576126c46120bf565b5b92915050565b7f4e6577206f776e657220616464726573732063616e6e6f74206265207a65726f600082015250565b60006127016020836119c8565b915061270c826126cb565b602082019050919050565b60006020820190508181036000830152612730816126f4565b9050919050565b60006127428261195a565b91507fffffffffffffffffffffffffffffffffffffffffffffffffffffffffffffffff8203612774576127736120bf565b5b600182019050919050565b7f4e487b7100000000000000000000000000000000000000000000000000000000600052601260045260246000fd5b60006127b98261195a565b91506127c48361195a565b9250826127d4576127d361277f565b5b82820690509291505056fea26469706673582212200ffb203d7b8cf012c544b35fa99be73e24b5f537b22b5f31165d4de619024ec264736f6c63430008190033",
					"opcodes": "PUSH1 0x80 PUSH1 0x40 MSTORE CALLVALUE DUP1 ISZERO PUSH2 0x10 JUMPI PUSH1 0x0 DUP1 REVERT JUMPDEST POP CALLER PUSH1 0x0 DUP1 PUSH2 0x100 EXP DUP2 SLOAD DUP2 PUSH20 0xFFFFFFFFFFFFFFFFFFFFFFFFFFFFFFFFFFFFFFFF MUL NOT AND SWAP1 DUP4 PUSH20 0xFFFFFFFFFFFFFFFFFFFFFFFFFFFFFFFFFFFFFFFF AND MUL OR SWAP1 SSTORE POP PUSH1 0x1 PUSH1 0x40 MLOAD DUP1 PUSH1 0x40 ADD PUSH1 0x40 MSTORE DUP1 PUSH1 0x40 MLOAD DUP1 PUSH1 0x40 ADD PUSH1 0x40 MSTORE DUP1 PUSH1 0x4 DUP2 MSTORE PUSH1 0x20 ADD PUSH32 0x456C6F6E00000000000000000000000000000000000000000000000000000000 DUP2 MSTORE POP DUP2 MSTORE PUSH1 0x20 ADD PUSH1 0x0 DUP2 MSTORE POP SWAP1 DUP1 PUSH1 0x1 DUP2 SLOAD ADD DUP1 DUP3 SSTORE DUP1 SWAP2 POP POP PUSH1 0x1 SWAP1 SUB SWAP1 PUSH1 0x0 MSTORE PUSH1 0x20 PUSH1 0x0 KECCAK256 SWAP1 PUSH1 0x2 MUL ADD PUSH1 0x0 SWAP1 SWAP2 SWAP1 SWAP2 SWAP1 SWAP2 POP PUSH1 0x0 DUP3 ADD MLOAD DUP2 PUSH1 0x0 ADD SWAP1 DUP2 PUSH2 0xDC SWAP2 SWAP1 PUSH2 0x4A2 JUMP JUMPDEST POP PUSH1 0x20 DUP3 ADD MLOAD DUP2 PUSH1 0x1 ADD SSTORE POP POP PUSH1 0x1 PUSH1 0x40 MLOAD DUP1 PUSH1 0x40 ADD PUSH1 0x40 MSTORE DUP1 PUSH1 0x40 MLOAD DUP1 PUSH1 0x40 ADD PUSH1 0x40 MSTORE DUP1 PUSH1 0x4 DUP2 MSTORE PUSH1 0x20 ADD PUSH32 0x4D61726B00000000000000000000000000000000000000000000000000000000 DUP2 MSTORE POP DUP2 MSTORE PUSH1 0x20 ADD PUSH1 0x0 DUP2 MSTORE POP SWAP1 DUP1 PUSH1 0x1 DUP2 SLOAD ADD DUP1 DUP3 SSTORE DUP1 SWAP2 POP POP PUSH1 0x1 SWAP1 SUB SWAP1 PUSH1 0x0 MSTORE PUSH1 0x20 PUSH1 0x0 KECCAK256 SWAP1 PUSH1 0x2 MUL ADD PUSH1 0x0 SWAP1 SWAP2 SWAP1 SWAP2 SWAP1 SWAP2 POP PUSH1 0x0 DUP3 ADD MLOAD DUP2 PUSH1 0x0 ADD SWAP1 DUP2 PUSH2 0x174 SWAP2 SWAP1 PUSH2 0x4A2 JUMP JUMPDEST POP PUSH1 0x20 DUP3 ADD MLOAD DUP2 PUSH1 0x1 ADD SSTORE POP POP PUSH1 0x1 PUSH1 0x40 MLOAD DUP1 PUSH1 0x40 ADD PUSH1 0x40 MSTORE DUP1 PUSH1 0x40 MLOAD DUP1 PUSH1 0x40 ADD PUSH1 0x40 MSTORE DUP1 PUSH1 0x3 DUP2 MSTORE PUSH1 0x20 ADD PUSH32 0x53616D0000000000000000000000000000000000000000000000000000000000 DUP2 MSTORE POP DUP2 MSTORE PUSH1 0x20 ADD PUSH1 0x0 DUP2 MSTORE POP SWAP1 DUP1 PUSH1 0x1 DUP2 SLOAD ADD DUP1 DUP3 SSTORE DUP1 SWAP2 POP POP PUSH1 0x1 SWAP1 SUB SWAP1 PUSH1 0x0 MSTORE PUSH1 0x20 PUSH1 0x0 KECCAK256 SWAP1 PUSH1 0x2 MUL ADD PUSH1 0x0 SWAP1 SWAP2 SWAP1 SWAP2 SWAP1 SWAP2 POP PUSH1 0x0 DUP3 ADD MLOAD DUP2 PUSH1 0x0 ADD SWAP1 DUP2 PUSH2 0x20C SWAP2 SWAP1 PUSH2 0x4A2 JUMP JUMPDEST POP PUSH1 0x20 DUP3 ADD MLOAD DUP2 PUSH1 0x1 ADD SSTORE POP POP PUSH1 0x0 DUP1 PUSH1 0x14 PUSH2 0x100 EXP DUP2 SLOAD DUP2 PUSH1 0xFF MUL NOT AND SWAP1 DUP4 ISZERO ISZERO MUL OR SWAP1 SSTORE POP PUSH1 0x0 DUP1 PUSH1 0x15 PUSH2 0x100 EXP DUP2 SLOAD DUP2 PUSH1 0xFF MUL NOT AND SWAP1 DUP4 ISZERO ISZERO MUL OR SWAP1 SSTORE POP PUSH2 0x574 JUMP JUMPDEST PUSH1 0x0 DUP2 MLOAD SWAP1 POP SWAP2 SWAP1 POP JUMP JUMPDEST PUSH32 0x4E487B7100000000000000000000000000000000000000000000000000000000 PUSH1 0x0 MSTORE PUSH1 0x41 PUSH1 0x4 MSTORE PUSH1 0x24 PUSH1 0x0 REVERT JUMPDEST PUSH32 0x4E487B7100000000000000000000000000000000000000000000000000000000 PUSH1 0x0 MSTORE PUSH1 0x22 PUSH1 0x4 MSTORE PUSH1 0x24 PUSH1 0x0 REVERT JUMPDEST PUSH1 0x0 PUSH1 0x2 DUP3 DIV SWAP1 POP PUSH1 0x1 DUP3 AND DUP1 PUSH2 0x2D3 JUMPI PUSH1 0x7F DUP3 AND SWAP2 POP JUMPDEST PUSH1 0x20 DUP3 LT DUP2 SUB PUSH2 0x2E6 JUMPI PUSH2 0x2E5 PUSH2 0x28C JUMP JUMPDEST JUMPDEST POP SWAP2 SWAP1 POP JUMP JUMPDEST PUSH1 0x0 DUP2 SWAP1 POP DUP2 PUSH1 0x0 MSTORE PUSH1 0x20 PUSH1 0x0 KECCAK256 SWAP1 POP SWAP2 SWAP1 POP JUMP JUMPDEST PUSH1 0x0 PUSH1 0x20 PUSH1 0x1F DUP4 ADD DIV SWAP1 POP SWAP2 SWAP1 POP JUMP JUMPDEST PUSH1 0x0 DUP3 DUP3 SHL SWAP1 POP SWAP3 SWAP2 POP POP JUMP JUMPDEST PUSH1 0x0 PUSH1 0x8 DUP4 MUL PUSH2 0x34E PUSH32 0xFFFFFFFFFFFFFFFFFFFFFFFFFFFFFFFFFFFFFFFFFFFFFFFFFFFFFFFFFFFFFFFF DUP3 PUSH2 0x311 JUMP JUMPDEST PUSH2 0x358 DUP7 DUP4 PUSH2 0x311 JUMP JUMPDEST SWAP6 POP DUP1 NOT DUP5 AND SWAP4 POP DUP1 DUP7 AND DUP5 OR SWAP3 POP POP POP SWAP4 SWAP3 POP POP POP JUMP JUMPDEST PUSH1 0x0 DUP2 SWAP1 POP SWAP2 SWAP1 POP JUMP JUMPDEST PUSH1 0x0 DUP2 SWAP1 POP SWAP2 SWAP1 POP JUMP JUMPDEST PUSH1 0x0 PUSH2 0x39F PUSH2 0x39A PUSH2 0x395 DUP5 PUSH2 0x370 JUMP JUMPDEST PUSH2 0x37A JUMP JUMPDEST PUSH2 0x370 JUMP JUMPDEST SWAP1 POP SWAP2 SWAP1 POP JUMP JUMPDEST PUSH1 0x0 DUP2 SWAP1 POP SWAP2 SWAP1 POP JUMP JUMPDEST PUSH2 0x3B9 DUP4 PUSH2 0x384 JUMP JUMPDEST PUSH2 0x3CD PUSH2 0x3C5 DUP3 PUSH2 0x3A6 JUMP JUMPDEST DUP5 DUP5 SLOAD PUSH2 0x31E JUMP JUMPDEST DUP3 SSTORE POP POP POP POP JUMP JUMPDEST PUSH1 0x0 SWAP1 JUMP JUMPDEST PUSH2 0x3E2 PUSH2 0x3D5 JUMP JUMPDEST PUSH2 0x3ED DUP2 DUP5 DUP5 PUSH2 0x3B0 JUMP JUMPDEST POP POP POP JUMP JUMPDEST JUMPDEST DUP2 DUP2 LT ISZERO PUSH2 0x411 JUMPI PUSH2 0x406 PUSH1 0x0 DUP3 PUSH2 0x3DA JUMP JUMPDEST PUSH1 0x1 DUP2 ADD SWAP1 POP PUSH2 0x3F3 JUMP JUMPDEST POP POP JUMP JUMPDEST PUSH1 0x1F DUP3 GT ISZERO PUSH2 0x456 JUMPI PUSH2 0x427 DUP2 PUSH2 0x2EC JUMP JUMPDEST PUSH2 0x430 DUP5 PUSH2 0x301 JUMP JUMPDEST DUP2 ADD PUSH1 0x20 DUP6 LT ISZERO PUSH2 0x43F JUMPI DUP2 SWAP1 POP JUMPDEST PUSH2 0x453 PUSH2 0x44B DUP6 PUSH2 0x301 JUMP JUMPDEST DUP4 ADD DUP3 PUSH2 0x3F2 JUMP JUMPDEST POP POP JUMPDEST POP POP POP JUMP JUMPDEST PUSH1 0x0 DUP3 DUP3 SHR SWAP1 POP SWAP3 SWAP2 POP POP JUMP JUMPDEST PUSH1 0x0 PUSH2 0x479 PUSH1 0x0 NOT DUP5 PUSH1 0x8 MUL PUSH2 0x45B JUMP JUMPDEST NOT DUP1 DUP4 AND SWAP2 POP POP SWAP3 SWAP2 POP POP JUMP JUMPDEST PUSH1 0x0 PUSH2 0x492 DUP4 DUP4 PUSH2 0x468 JUMP JUMPDEST SWAP2 POP DUP3 PUSH1 0x2 MUL DUP3 OR SWAP1 POP SWAP3 SWAP2 POP POP JUMP JUMPDEST PUSH2 0x4AB DUP3 PUSH2 0x252 JUMP JUMPDEST PUSH8 0xFFFFFFFFFFFFFFFF DUP2 GT ISZERO PUSH2 0x4C4 JUMPI PUSH2 0x4C3 PUSH2 0x25D JUMP JUMPDEST JUMPDEST PUSH2 0x4CE DUP3 SLOAD PUSH2 0x2BB JUMP JUMPDEST PUSH2 0x4D9 DUP3 DUP3 DUP6 PUSH2 0x415 JUMP JUMPDEST PUSH1 0x0 PUSH1 0x20 SWAP1 POP PUSH1 0x1F DUP4 GT PUSH1 0x1 DUP2 EQ PUSH2 0x50C JUMPI PUSH1 0x0 DUP5 ISZERO PUSH2 0x4FA JUMPI DUP3 DUP8 ADD MLOAD SWAP1 POP JUMPDEST PUSH2 0x504 DUP6 DUP3 PUSH2 0x486 JUMP JUMPDEST DUP7 SSTORE POP PUSH2 0x56C JUMP JUMPDEST PUSH1 0x1F NOT DUP5 AND PUSH2 0x51A DUP7 PUSH2 0x2EC JUMP JUMPDEST PUSH1 0x0 JUMPDEST DUP3 DUP2 LT ISZERO PUSH2 0x542 JUMPI DUP5 DUP10 ADD MLOAD DUP3 SSTORE PUSH1 0x1 DUP3 ADD SWAP2 POP PUSH1 0x20 DUP6 ADD SWAP5 POP PUSH1 0x20 DUP2 ADD SWAP1 POP PUSH2 0x51D JUMP JUMPDEST DUP7 DUP4 LT ISZERO PUSH2 0x55F JUMPI DUP5 DUP10 ADD MLOAD PUSH2 0x55B PUSH1 0x1F DUP10 AND DUP3 PUSH2 0x468 JUMP JUMPDEST DUP4 SSTORE POP JUMPDEST PUSH1 0x1 PUSH1 0x2 DUP9 MUL ADD DUP9 SSTORE POP POP POP JUMPDEST POP POP POP POP POP POP JUMP JUMPDEST PUSH2 0x2815 DUP1 PUSH2 0x583 PUSH1 0x0 CODECOPY PUSH1 0x0 RETURN INVALID PUSH1 0x80 PUSH1 0x40 MSTORE PUSH1 0x4 CALLDATASIZE LT PUSH2 0xFE JUMPI PUSH1 0x0 CALLDATALOAD PUSH1 0xE0 SHR DUP1 PUSH4 0x36704F5E GT PUSH2 0x95 JUMPI DUP1 PUSH4 0xA6151A84 GT PUSH2 0x64 JUMPI DUP1 PUSH4 0xA6151A84 EQ PUSH2 0x31D JUMPI DUP1 PUSH4 0xA6F9DAE1 EQ PUSH2 0x348 JUMPI DUP1 PUSH4 0xA95824B4 EQ PUSH2 0x371 JUMPI DUP1 PUSH4 0xB2C2F2E8 EQ PUSH2 0x39C JUMPI DUP1 PUSH4 0xDA58C7D9 EQ PUSH2 0x3D9 JUMPI PUSH2 0xFE JUMP JUMPDEST DUP1 PUSH4 0x36704F5E EQ PUSH2 0x24D JUMPI DUP1 PUSH4 0x3CCFD60B EQ PUSH2 0x28C JUMPI DUP1 PUSH4 0x950C7822 EQ PUSH2 0x2A3 JUMPI DUP1 PUSH4 0x9753F432 EQ PUSH2 0x2E0 JUMPI PUSH2 0xFE JUMP JUMPDEST DUP1 PUSH4 0x14034BD2 GT PUSH2 0xD1 JUMPI DUP1 PUSH4 0x14034BD2 EQ PUSH2 0x1B3 JUMPI DUP1 PUSH4 0x2479ECB8 EQ PUSH2 0x1DE JUMPI DUP1 PUSH4 0x2E130964 EQ PUSH2 0x209 JUMPI DUP1 PUSH4 0x329A8CFA EQ PUSH2 0x236 JUMPI PUSH2 0xFE JUMP JUMPDEST DUP1 PUSH4 0x121B93F EQ PUSH2 0x103 JUMPI DUP1 PUSH4 0x13CF08B EQ PUSH2 0x11F JUMPI DUP1 PUSH4 0x29EB76E EQ PUSH2 0x15D JUMPI DUP1 PUSH4 0x92A5CCE EQ PUSH2 0x188 JUMPI JUMPDEST PUSH1 0x0 DUP1 REVERT JUMPDEST PUSH2 0x11D PUSH1 0x4 DUP1 CALLDATASIZE SUB DUP2 ADD SWAP1 PUSH2 0x118 SWAP2 SWAP1 PUSH2 0x1990 JUMP JUMPDEST PUSH2 0x416 JUMP JUMPDEST STOP JUMPDEST CALLVALUE DUP1 ISZERO PUSH2 0x12B JUMPI PUSH1 0x0 DUP1 REVERT JUMPDEST POP PUSH2 0x146 PUSH1 0x4 DUP1 CALLDATASIZE SUB DUP2 ADD SWAP1 PUSH2 0x141 SWAP2 SWAP1 PUSH2 0x1990 JUMP JUMPDEST PUSH2 0x79D JUMP JUMPDEST PUSH1 0x40 MLOAD PUSH2 0x154 SWAP3 SWAP2 SWAP1 PUSH2 0x1A5C JUMP JUMPDEST PUSH1 0x40 MLOAD DUP1 SWAP2 SUB SWAP1 RETURN JUMPDEST CALLVALUE DUP1 ISZERO PUSH2 0x169 JUMPI PUSH1 0x0 DUP1 REVERT JUMPDEST POP PUSH2 0x172 PUSH2 0x859 JUMP JUMPDEST PUSH1 0x40 MLOAD PUSH2 0x17F SWAP2 SWAP1 PUSH2 0x1ACD JUMP JUMPDEST PUSH1 0x40 MLOAD DUP1 SWAP2 SUB SWAP1 RETURN JUMPDEST CALLVALUE DUP1 ISZERO PUSH2 0x194 JUMPI PUSH1 0x0 DUP1 REVERT JUMPDEST POP PUSH2 0x19D PUSH2 0x87D JUMP JUMPDEST PUSH1 0x40 MLOAD PUSH2 0x1AA SWAP2 SWAP1 PUSH2 0x1B03 JUMP JUMPDEST PUSH1 0x40 MLOAD DUP1 SWAP2 SUB SWAP1 RETURN JUMPDEST CALLVALUE DUP1 ISZERO PUSH2 0x1BF JUMPI PUSH1 0x0 DUP1 REVERT JUMPDEST POP PUSH2 0x1C8 PUSH2 0x9AD JUMP JUMPDEST PUSH1 0x40 MLOAD PUSH2 0x1D5 SWAP2 SWAP1 PUSH2 0x1B1E JUMP JUMPDEST PUSH1 0x40 MLOAD DUP1 SWAP2 SUB SWAP1 RETURN JUMPDEST CALLVALUE DUP1 ISZERO PUSH2 0x1EA JUMPI PUSH1 0x0 DUP1 REVERT JUMPDEST POP PUSH2 0x1F3 PUSH2 0xD29 JUMP JUMPDEST PUSH1 0x40 MLOAD PUSH2 0x200 SWAP2 SWAP1 PUSH2 0x1B03 JUMP JUMPDEST PUSH1 0x40 MLOAD DUP1 SWAP2 SUB SWAP1 RETURN JUMPDEST CALLVALUE DUP1 ISZERO PUSH2 0x215 JUMPI PUSH1 0x0 DUP1 REVERT JUMPDEST POP PUSH2 0x21E PUSH2 0xD3C JUMP JUMPDEST PUSH1 0x40 MLOAD PUSH2 0x22D SWAP4 SWAP3 SWAP2 SWAP1 PUSH2 0x1D0A JUMP JUMPDEST PUSH1 0x40 MLOAD DUP1 SWAP2 SUB SWAP1 RETURN JUMPDEST CALLVALUE DUP1 ISZERO PUSH2 0x242 JUMPI PUSH1 0x0 DUP1 REVERT JUMPDEST POP PUSH2 0x24B PUSH2 0xFC1 JUMP JUMPDEST STOP JUMPDEST CALLVALUE DUP1 ISZERO PUSH2 0x259 JUMPI PUSH1 0x0 DUP1 REVERT JUMPDEST POP PUSH2 0x274 PUSH1 0x4 DUP1 CALLDATASIZE SUB DUP2 ADD SWAP1 PUSH2 0x26F SWAP2 SWAP1 PUSH2 0x1990 JUMP JUMPDEST PUSH2 0x11F4 JUMP JUMPDEST PUSH1 0x40 MLOAD PUSH2 0x283 SWAP4 SWAP3 SWAP2 SWAP1 PUSH2 0x1D56 JUMP JUMPDEST PUSH1 0x40 MLOAD DUP1 SWAP2 SUB SWAP1 RETURN JUMPDEST CALLVALUE DUP1 ISZERO PUSH2 0x298 JUMPI PUSH1 0x0 DUP1 REVERT JUMPDEST POP PUSH2 0x2A1 PUSH2 0x12B6 JUMP JUMPDEST STOP JUMPDEST CALLVALUE DUP1 ISZERO PUSH2 0x2AF JUMPI PUSH1 0x0 DUP1 REVERT JUMPDEST POP PUSH2 0x2CA PUSH1 0x4 DUP1 CALLDATASIZE SUB DUP2 ADD SWAP1 PUSH2 0x2C5 SWAP2 SWAP1 PUSH2 0x1DC0 JUMP JUMPDEST PUSH2 0x1446 JUMP JUMPDEST PUSH1 0x40 MLOAD PUSH2 0x2D7 SWAP2 SWAP1 PUSH2 0x1DED JUMP JUMPDEST PUSH1 0x40 MLOAD DUP1 SWAP2 SUB SWAP1 RETURN JUMPDEST CALLVALUE DUP1 ISZERO PUSH2 0x2EC JUMPI PUSH1 0x0 DUP1 REVERT JUMPDEST POP PUSH2 0x307 PUSH1 0x4 DUP1 CALLDATASIZE SUB DUP2 ADD SWAP1 PUSH2 0x302 SWAP2 SWAP1 PUSH2 0x1DC0 JUMP JUMPDEST PUSH2 0x14EA JUMP JUMPDEST PUSH1 0x40 MLOAD PUSH2 0x314 SWAP2 SWAP1 PUSH2 0x1DED JUMP JUMPDEST PUSH1 0x40 MLOAD DUP1 SWAP2 SUB SWAP1 RETURN JUMPDEST CALLVALUE DUP1 ISZERO PUSH2 0x329 JUMPI PUSH1 0x0 DUP1 REVERT JUMPDEST POP PUSH2 0x332 PUSH2 0x1502 JUMP JUMPDEST PUSH1 0x40 MLOAD PUSH2 0x33F SWAP2 SWAP1 PUSH2 0x1B03 JUMP JUMPDEST PUSH1 0x40 MLOAD DUP1 SWAP2 SUB SWAP1 RETURN JUMPDEST CALLVALUE DUP1 ISZERO PUSH2 0x354 JUMPI PUSH1 0x0 DUP1 REVERT JUMPDEST POP PUSH2 0x36F PUSH1 0x4 DUP1 CALLDATASIZE SUB DUP2 ADD SWAP1 PUSH2 0x36A SWAP2 SWAP1 PUSH2 0x1DC0 JUMP JUMPDEST PUSH2 0x1515 JUMP JUMPDEST STOP JUMPDEST CALLVALUE DUP1 ISZERO PUSH2 0x37D JUMPI PUSH1 0x0 DUP1 REVERT JUMPDEST POP PUSH2 0x386 PUSH2 0x16A5 JUMP JUMPDEST PUSH1 0x40 MLOAD PUSH2 0x393 SWAP2 SWAP1 PUSH2 0x1B03 JUMP JUMPDEST PUSH1 0x40 MLOAD DUP1 SWAP2 SUB SWAP1 RETURN JUMPDEST CALLVALUE DUP1 ISZERO PUSH2 0x3A8 JUMPI PUSH1 0x0 DUP1 REVERT JUMPDEST POP PUSH2 0x3C3 PUSH1 0x4 DUP1 CALLDATASIZE SUB DUP2 ADD SWAP1 PUSH2 0x3BE SWAP2 SWAP1 PUSH2 0x1990 JUMP JUMPDEST PUSH2 0x170C JUMP JUMPDEST PUSH1 0x40 MLOAD PUSH2 0x3D0 SWAP2 SWAP1 PUSH2 0x1DED JUMP JUMPDEST PUSH1 0x40 MLOAD DUP1 SWAP2 SUB SWAP1 RETURN JUMPDEST CALLVALUE DUP1 ISZERO PUSH2 0x3E5 JUMPI PUSH1 0x0 DUP1 REVERT JUMPDEST POP PUSH2 0x400 PUSH1 0x4 DUP1 CALLDATASIZE SUB DUP2 ADD SWAP1 PUSH2 0x3FB SWAP2 SWAP1 PUSH2 0x1990 JUMP JUMPDEST PUSH2 0x178A JUMP JUMPDEST PUSH1 0x40 MLOAD PUSH2 0x40D SWAP2 SWAP1 PUSH2 0x1ACD JUMP JUMPDEST PUSH1 0x40 MLOAD DUP1 SWAP2 SUB SWAP1 RETURN JUMPDEST PUSH1 0x0 PUSH1 0x15 SWAP1 SLOAD SWAP1 PUSH2 0x100 EXP SWAP1 DIV PUSH1 0xFF AND ISZERO PUSH2 0x466 JUMPI PUSH1 0x40 MLOAD PUSH32 0x8C379A000000000000000000000000000000000000000000000000000000000 DUP2 MSTORE PUSH1 0x4 ADD PUSH2 0x45D SWAP1 PUSH2 0x1E54 JUMP JUMPDEST PUSH1 0x40 MLOAD DUP1 SWAP2 SUB SWAP1 REVERT JUMPDEST PUSH1 0x0 PUSH1 0x14 SWAP1 SLOAD SWAP1 PUSH2 0x100 EXP SWAP1 DIV PUSH1 0xFF AND ISZERO PUSH2 0x4B6 JUMPI PUSH1 0x40 MLOAD PUSH32 0x8C379A000000000000000000000000000000000000000000000000000000000 DUP2 MSTORE PUSH1 0x4 ADD PUSH2 0x4AD SWAP1 PUSH2 0x1EC0 JUMP JUMPDEST PUSH1 0x40 MLOAD DUP1 SWAP2 SUB SWAP1 REVERT JUMPDEST PUSH7 0x2386F26FC10000 CALLVALUE EQ PUSH2 0x4FF JUMPI PUSH1 0x40 MLOAD PUSH32 0x8C379A000000000000000000000000000000000000000000000000000000000 DUP2 MSTORE PUSH1 0x4 ADD PUSH2 0x4F6 SWAP1 PUSH2 0x1F2C JUMP JUMPDEST PUSH1 0x40 MLOAD DUP1 SWAP2 SUB SWAP1 REVERT JUMPDEST PUSH1 0x0 DUP1 SLOAD SWAP1 PUSH2 0x100 EXP SWAP1 DIV PUSH20 0xFFFFFFFFFFFFFFFFFFFFFFFFFFFFFFFFFFFFFFFF AND PUSH20 0xFFFFFFFFFFFFFFFFFFFFFFFFFFFFFFFFFFFFFFFF AND CALLER PUSH20 0xFFFFFFFFFFFFFFFFFFFFFFFFFFFFFFFFFFFFFFFF AND SUB PUSH2 0x58D JUMPI PUSH1 0x40 MLOAD PUSH32 0x8C379A000000000000000000000000000000000000000000000000000000000 DUP2 MSTORE PUSH1 0x4 ADD PUSH2 0x584 SWAP1 PUSH2 0x1F98 JUMP JUMPDEST PUSH1 0x40 MLOAD DUP1 SWAP2 SUB SWAP1 REVERT JUMPDEST PUSH1 0x1 DUP1 SLOAD SWAP1 POP DUP2 LT PUSH2 0x5D4 JUMPI PUSH1 0x40 MLOAD PUSH32 0x8C379A000000000000000000000000000000000000000000000000000000000 DUP2 MSTORE PUSH1 0x4 ADD PUSH2 0x5CB SWAP1 PUSH2 0x2004 JUMP JUMPDEST PUSH1 0x40 MLOAD DUP1 SWAP2 SUB SWAP1 REVERT JUMPDEST PUSH1 0x5 PUSH1 0x3 PUSH1 0x0 CALLER PUSH20 0xFFFFFFFFFFFFFFFFFFFFFFFFFFFFFFFFFFFFFFFF AND PUSH20 0xFFFFFFFFFFFFFFFFFFFFFFFFFFFFFFFFFFFFFFFF AND DUP2 MSTORE PUSH1 0x20 ADD SWAP1 DUP2 MSTORE PUSH1 0x20 ADD PUSH1 0x0 KECCAK256 SLOAD LT PUSH2 0x656 JUMPI PUSH1 0x40 MLOAD PUSH32 0x8C379A000000000000000000000000000000000000000000000000000000000 DUP2 MSTORE PUSH1 0x4 ADD PUSH2 0x64D SWAP1 PUSH2 0x2070 JUMP JUMPDEST PUSH1 0x40 MLOAD DUP1 SWAP2 SUB SWAP1 REVERT JUMPDEST PUSH1 0x1 DUP1 DUP3 DUP2 SLOAD DUP2 LT PUSH2 0x66B JUMPI PUSH2 0x66A PUSH2 0x2090 JUMP JUMPDEST JUMPDEST SWAP1 PUSH1 0x0 MSTORE PUSH1 0x20 PUSH1 0x0 KECCAK256 SWAP1 PUSH1 0x2 MUL ADD PUSH1 0x1 ADD PUSH1 0x0 DUP3 DUP3 SLOAD PUSH2 0x68B SWAP2 SWAP1 PUSH2 0x20EE JUMP JUMPDEST SWAP3 POP POP DUP2 SWAP1 SSTORE POP PUSH1 0x1 PUSH1 0x3 PUSH1 0x0 CALLER PUSH20 0xFFFFFFFFFFFFFFFFFFFFFFFFFFFFFFFFFFFFFFFF AND PUSH20 0xFFFFFFFFFFFFFFFFFFFFFFFFFFFFFFFFFFFFFFFF AND DUP2 MSTORE PUSH1 0x20 ADD SWAP1 DUP2 MSTORE PUSH1 0x20 ADD PUSH1 0x0 KECCAK256 PUSH1 0x0 DUP3 DUP3 SLOAD PUSH2 0x6E2 SWAP2 SWAP1 PUSH2 0x20EE JUMP JUMPDEST SWAP3 POP POP DUP2 SWAP1 SSTORE POP PUSH1 0x4 CALLER SWAP1 DUP1 PUSH1 0x1 DUP2 SLOAD ADD DUP1 DUP3 SSTORE DUP1 SWAP2 POP POP PUSH1 0x1 SWAP1 SUB SWAP1 PUSH1 0x0 MSTORE PUSH1 0x20 PUSH1 0x0 KECCAK256 ADD PUSH1 0x0 SWAP1 SWAP2 SWAP1 SWAP2 SWAP1 SWAP2 PUSH2 0x100 EXP DUP2 SLOAD DUP2 PUSH20 0xFFFFFFFFFFFFFFFFFFFFFFFFFFFFFFFFFFFFFFFF MUL NOT AND SWAP1 DUP4 PUSH20 0xFFFFFFFFFFFFFFFFFFFFFFFFFFFFFFFFFFFFFFFF AND MUL OR SWAP1 SSTORE POP CALLER PUSH20 0xFFFFFFFFFFFFFFFFFFFFFFFFFFFFFFFFFFFFFFFF AND PUSH32 0xA36CC2BEBB74DB33E9F88110A07EF56E1B31B24B4C4F51B54B1664266E29F45B DUP3 PUSH1 0x40 MLOAD PUSH2 0x792 SWAP2 SWAP1 PUSH2 0x1DED JUMP JUMPDEST PUSH1 0x40 MLOAD DUP1 SWAP2 SUB SWAP1 LOG2 POP JUMP JUMPDEST PUSH1 0x1 DUP2 DUP2 SLOAD DUP2 LT PUSH2 0x7AD JUMPI PUSH1 0x0 DUP1 REVERT JUMPDEST SWAP1 PUSH1 0x0 MSTORE PUSH1 0x20 PUSH1 0x0 KECCAK256 SWAP1 PUSH1 0x2 MUL ADD PUSH1 0x0 SWAP2 POP SWAP1 POP DUP1 PUSH1 0x0 ADD DUP1 SLOAD PUSH2 0x7D0 SWAP1 PUSH2 0x2151 JUMP JUMPDEST DUP1 PUSH1 0x1F ADD PUSH1 0x20 DUP1 SWAP2 DIV MUL PUSH1 0x20 ADD PUSH1 0x40 MLOAD SWAP1 DUP2 ADD PUSH1 0x40 MSTORE DUP1 SWAP3 SWAP2 SWAP1 DUP2 DUP2 MSTORE PUSH1 0x20 ADD DUP3 DUP1 SLOAD PUSH2 0x7FC SWAP1 PUSH2 0x2151 JUMP JUMPDEST DUP1 ISZERO PUSH2 0x849 JUMPI DUP1 PUSH1 0x1F LT PUSH2 0x81E JUMPI PUSH2 0x100 DUP1 DUP4 SLOAD DIV MUL DUP4 MSTORE SWAP2 PUSH1 0x20 ADD SWAP2 PUSH2 0x849 JUMP JUMPDEST DUP3 ADD SWAP2 SWAP1 PUSH1 0x0 MSTORE PUSH1 0x20 PUSH1 0x0 KECCAK256 SWAP1 JUMPDEST DUP2 SLOAD DUP2 MSTORE SWAP1 PUSH1 0x1 ADD SWAP1 PUSH1 0x20 ADD DUP1 DUP4 GT PUSH2 0x82C JUMPI DUP3 SWAP1 SUB PUSH1 0x1F AND DUP3 ADD SWAP2 JUMPDEST POP POP POP POP POP SWAP1 DUP1 PUSH1 0x1 ADD SLOAD SWAP1 POP DUP3 JUMP JUMPDEST PUSH1 0x0 DUP1 SLOAD SWAP1 PUSH2 0x100 EXP SWAP1 DIV PUSH20 0xFFFFFFFFFFFFFFFFFFFFFFFFFFFFFFFFFFFFFFFF AND DUP2 JUMP JUMPDEST PUSH1 0x0 DUP1 PUSH1 0x0 SWAP1 SLOAD SWAP1 PUSH2 0x100 EXP SWAP1 DIV PUSH20 0xFFFFFFFFFFFFFFFFFFFFFFFFFFFFFFFFFFFFFFFF AND PUSH20 0xFFFFFFFFFFFFFFFFFFFFFFFFFFFFFFFFFFFFFFFF AND CALLER PUSH20 0xFFFFFFFFFFFFFFFFFFFFFFFFFFFFFFFFFFFFFFFF AND EQ PUSH2 0x90E JUMPI PUSH1 0x40 MLOAD PUSH32 0x8C379A000000000000000000000000000000000000000000000000000000000 DUP2 MSTORE PUSH1 0x4 ADD PUSH2 0x905 SWAP1 PUSH2 0x21F4 JUMP JUMPDEST PUSH1 0x40 MLOAD DUP1 SWAP2 SUB SWAP1 REVERT JUMPDEST PUSH1 0x0 PUSH1 0x15 SWAP1 SLOAD SWAP1 PUSH2 0x100 EXP SWAP1 DIV PUSH1 0xFF AND ISZERO PUSH2 0x95E JUMPI PUSH1 0x40 MLOAD PUSH32 0x8C379A000000000000000000000000000000000000000000000000000000000 DUP2 MSTORE PUSH1 0x4 ADD PUSH2 0x955 SWAP1 PUSH2 0x1E54 JUMP JUMPDEST PUSH1 0x40 MLOAD DUP1 SWAP2 SUB SWAP1 REVERT JUMPDEST PUSH1 0x0 SELFBALANCE SWAP1 POP PUSH1 0x0 DUP2 EQ PUSH2 0x974 JUMPI PUSH2 0x973 PUSH2 0x12B6 JUMP JUMPDEST JUMPDEST PUSH1 0x0 DUP1 SLOAD SWAP1 PUSH2 0x100 EXP SWAP1 DIV PUSH20 0xFFFFFFFFFFFFFFFFFFFFFFFFFFFFFFFFFFFFFFFF AND PUSH20 0xFFFFFFFFFFFFFFFFFFFFFFFFFFFFFFFFFFFFFFFF AND SELFDESTRUCT JUMPDEST PUSH1 0x60 PUSH1 0x0 DUP1 SLOAD SWAP1 PUSH2 0x100 EXP SWAP1 DIV PUSH20 0xFFFFFFFFFFFFFFFFFFFFFFFFFFFFFFFFFFFFFFFF AND PUSH20 0xFFFFFFFFFFFFFFFFFFFFFFFFFFFFFFFFFFFFFFFF AND CALLER PUSH20 0xFFFFFFFFFFFFFFFFFFFFFFFFFFFFFFFFFFFFFFFF AND EQ PUSH2 0xA3D JUMPI PUSH1 0x40 MLOAD PUSH32 0x8C379A000000000000000000000000000000000000000000000000000000000 DUP2 MSTORE PUSH1 0x4 ADD PUSH2 0xA34 SWAP1 PUSH2 0x21F4 JUMP JUMPDEST PUSH1 0x40 MLOAD DUP1 SWAP2 SUB SWAP1 REVERT JUMPDEST PUSH1 0x0 PUSH1 0x15 SWAP1 SLOAD SWAP1 PUSH2 0x100 EXP SWAP1 DIV PUSH1 0xFF AND ISZERO PUSH2 0xA8D JUMPI PUSH1 0x40 MLOAD PUSH32 0x8C379A000000000000000000000000000000000000000000000000000000000 DUP2 MSTORE PUSH1 0x4 ADD PUSH2 0xA84 SWAP1 PUSH2 0x1E54 JUMP JUMPDEST PUSH1 0x40 MLOAD DUP1 SWAP2 SUB SWAP1 REVERT JUMPDEST PUSH2 0xA95 PUSH2 0x16A5 JUMP JUMPDEST PUSH2 0xAD4 JUMPI PUSH1 0x40 MLOAD PUSH32 0x8C379A000000000000000000000000000000000000000000000000000000000 DUP2 MSTORE PUSH1 0x4 ADD PUSH2 0xACB SWAP1 PUSH2 0x2260 JUMP JUMPDEST PUSH1 0x40 MLOAD DUP1 SWAP2 SUB SWAP1 REVERT JUMPDEST PUSH1 0x0 DUP1 DUP1 PUSH1 0x0 SWAP1 POP PUSH1 0x0 JUMPDEST PUSH1 0x1 DUP1 SLOAD SWAP1 POP DUP2 LT ISZERO PUSH2 0xB8C JUMPI DUP4 PUSH1 0x1 DUP3 DUP2 SLOAD DUP2 LT PUSH2 0xB01 JUMPI PUSH2 0xB00 PUSH2 0x2090 JUMP JUMPDEST JUMPDEST SWAP1 PUSH1 0x0 MSTORE PUSH1 0x20 PUSH1 0x0 KECCAK256 SWAP1 PUSH1 0x2 MUL ADD PUSH1 0x1 ADD SLOAD GT ISZERO PUSH2 0xB4D JUMPI PUSH1 0x1 DUP2 DUP2 SLOAD DUP2 LT PUSH2 0xB2D JUMPI PUSH2 0xB2C PUSH2 0x2090 JUMP JUMPDEST JUMPDEST SWAP1 PUSH1 0x0 MSTORE PUSH1 0x20 PUSH1 0x0 KECCAK256 SWAP1 PUSH1 0x2 MUL ADD PUSH1 0x1 ADD SLOAD SWAP4 POP DUP1 SWAP3 POP PUSH1 0x0 SWAP2 POP PUSH2 0xB7F JUMP JUMPDEST DUP4 PUSH1 0x1 DUP3 DUP2 SLOAD DUP2 LT PUSH2 0xB62 JUMPI PUSH2 0xB61 PUSH2 0x2090 JUMP JUMPDEST JUMPDEST SWAP1 PUSH1 0x0 MSTORE PUSH1 0x20 PUSH1 0x0 KECCAK256 SWAP1 PUSH1 0x2 MUL ADD PUSH1 0x1 ADD SLOAD SUB PUSH2 0xB7E JUMPI PUSH1 0x1 SWAP2 POP JUMPDEST JUMPDEST DUP1 DUP1 PUSH1 0x1 ADD SWAP2 POP POP PUSH2 0xADF JUMP JUMPDEST POP DUP1 ISZERO PUSH2 0xB9E JUMPI PUSH2 0xB9B PUSH2 0x17C9 JUMP JUMPDEST SWAP2 POP JUMPDEST PUSH1 0x1 DUP3 DUP2 SLOAD DUP2 LT PUSH2 0xBB2 JUMPI PUSH2 0xBB1 PUSH2 0x2090 JUMP JUMPDEST JUMPDEST SWAP1 PUSH1 0x0 MSTORE PUSH1 0x20 PUSH1 0x0 KECCAK256 SWAP1 PUSH1 0x2 MUL ADD PUSH1 0x0 ADD DUP1 SLOAD PUSH2 0xBCE SWAP1 PUSH2 0x2151 JUMP JUMPDEST DUP1 PUSH1 0x1F ADD PUSH1 0x20 DUP1 SWAP2 DIV MUL PUSH1 0x20 ADD PUSH1 0x40 MLOAD SWAP1 DUP2 ADD PUSH1 0x40 MSTORE DUP1 SWAP3 SWAP2 SWAP1 DUP2 DUP2 MSTORE PUSH1 0x20 ADD DUP3 DUP1 SLOAD PUSH2 0xBFA SWAP1 PUSH2 0x2151 JUMP JUMPDEST DUP1 ISZERO PUSH2 0xC47 JUMPI DUP1 PUSH1 0x1F LT PUSH2 0xC1C JUMPI PUSH2 0x100 DUP1 DUP4 SLOAD DIV MUL DUP4 MSTORE SWAP2 PUSH1 0x20 ADD SWAP2 PUSH2 0xC47 JUMP JUMPDEST DUP3 ADD SWAP2 SWAP1 PUSH1 0x0 MSTORE PUSH1 0x20 PUSH1 0x0 KECCAK256 SWAP1 JUMPDEST DUP2 SLOAD DUP2 MSTORE SWAP1 PUSH1 0x1 ADD SWAP1 PUSH1 0x20 ADD DUP1 DUP4 GT PUSH2 0xC2A JUMPI DUP3 SWAP1 SUB PUSH1 0x1F AND DUP3 ADD SWAP2 JUMPDEST POP POP POP POP POP SWAP4 POP PUSH1 0x2 PUSH1 0x40 MLOAD DUP1 PUSH1 0x60 ADD PUSH1 0x40 MSTORE DUP1 PUSH1 0x1 PUSH1 0x2 DUP1 SLOAD SWAP1 POP PUSH2 0xC6D SWAP2 SWAP1 PUSH2 0x20EE JUMP JUMPDEST DUP2 MSTORE PUSH1 0x20 ADD DUP7 DUP2 MSTORE PUSH1 0x20 ADD DUP6 DUP2 MSTORE POP SWAP1 DUP1 PUSH1 0x1 DUP2 SLOAD ADD DUP1 DUP3 SSTORE DUP1 SWAP2 POP POP PUSH1 0x1 SWAP1 SUB SWAP1 PUSH1 0x0 MSTORE PUSH1 0x20 PUSH1 0x0 KECCAK256 SWAP1 PUSH1 0x3 MUL ADD PUSH1 0x0 SWAP1 SWAP2 SWAP1 SWAP2 SWAP1 SWAP2 POP PUSH1 0x0 DUP3 ADD MLOAD DUP2 PUSH1 0x0 ADD SSTORE PUSH1 0x20 DUP3 ADD MLOAD DUP2 PUSH1 0x1 ADD SWAP1 DUP2 PUSH2 0xCC4 SWAP2 SWAP1 PUSH2 0x245B JUMP JUMPDEST POP PUSH1 0x40 DUP3 ADD MLOAD DUP2 PUSH1 0x2 ADD SSTORE POP POP PUSH1 0x1 PUSH1 0x0 PUSH1 0x14 PUSH2 0x100 EXP DUP2 SLOAD DUP2 PUSH1 0xFF MUL NOT AND SWAP1 DUP4 ISZERO ISZERO MUL OR SWAP1 SSTORE POP PUSH32 0x2836FC1569F2CF0EAFA6BAE027D7B993EDBE7762DF0AB247AECFCF12F412244D DUP5 PUSH1 0x40 MLOAD PUSH2 0xD1B SWAP2 SWAP1 PUSH2 0x1B1E JUMP JUMPDEST PUSH1 0x40 MLOAD DUP1 SWAP2 SUB SWAP1 LOG1 POP POP POP SWAP1 JUMP JUMPDEST PUSH1 0x0 PUSH1 0x14 SWAP1 SLOAD SWAP1 PUSH2 0x100 EXP SWAP1 DIV PUSH1 0xFF AND DUP2 JUMP JUMPDEST PUSH1 0x60 DUP1 PUSH1 0x60 PUSH1 0x0 PUSH1 0x2 DUP1 SLOAD SWAP1 POP PUSH8 0xFFFFFFFFFFFFFFFF DUP2 GT ISZERO PUSH2 0xD62 JUMPI PUSH2 0xD61 PUSH2 0x2280 JUMP JUMPDEST JUMPDEST PUSH1 0x40 MLOAD SWAP1 DUP1 DUP3 MSTORE DUP1 PUSH1 0x20 MUL PUSH1 0x20 ADD DUP3 ADD PUSH1 0x40 MSTORE DUP1 ISZERO PUSH2 0xD90 JUMPI DUP2 PUSH1 0x20 ADD PUSH1 0x20 DUP3 MUL DUP1 CALLDATASIZE DUP4 CALLDATACOPY DUP1 DUP3 ADD SWAP2 POP POP SWAP1 POP JUMPDEST POP SWAP1 POP PUSH1 0x0 PUSH1 0x2 DUP1 SLOAD SWAP1 POP PUSH8 0xFFFFFFFFFFFFFFFF DUP2 GT ISZERO PUSH2 0xDB4 JUMPI PUSH2 0xDB3 PUSH2 0x2280 JUMP JUMPDEST JUMPDEST PUSH1 0x40 MLOAD SWAP1 DUP1 DUP3 MSTORE DUP1 PUSH1 0x20 MUL PUSH1 0x20 ADD DUP3 ADD PUSH1 0x40 MSTORE DUP1 ISZERO PUSH2 0xDE7 JUMPI DUP2 PUSH1 0x20 ADD JUMPDEST PUSH1 0x60 DUP2 MSTORE PUSH1 0x20 ADD SWAP1 PUSH1 0x1 SWAP1 SUB SWAP1 DUP2 PUSH2 0xDD2 JUMPI SWAP1 POP JUMPDEST POP SWAP1 POP PUSH1 0x0 PUSH1 0x2 DUP1 SLOAD SWAP1 POP PUSH8 0xFFFFFFFFFFFFFFFF DUP2 GT ISZERO PUSH2 0xE0B JUMPI PUSH2 0xE0A PUSH2 0x2280 JUMP JUMPDEST JUMPDEST PUSH1 0x40 MLOAD SWAP1 DUP1 DUP3 MSTORE DUP1 PUSH1 0x20 MUL PUSH1 0x20 ADD DUP3 ADD PUSH1 0x40 MSTORE DUP1 ISZERO PUSH2 0xE39 JUMPI DUP2 PUSH1 0x20 ADD PUSH1 0x20 DUP3 MUL DUP1 CALLDATASIZE DUP4 CALLDATACOPY DUP1 DUP3 ADD SWAP2 POP POP SWAP1 POP JUMPDEST POP SWAP1 POP PUSH1 0x0 JUMPDEST PUSH1 0x2 DUP1 SLOAD SWAP1 POP DUP2 LT ISZERO PUSH2 0xFAF JUMPI PUSH1 0x2 DUP2 DUP2 SLOAD DUP2 LT PUSH2 0xE60 JUMPI PUSH2 0xE5F PUSH2 0x2090 JUMP JUMPDEST JUMPDEST SWAP1 PUSH1 0x0 MSTORE PUSH1 0x20 PUSH1 0x0 KECCAK256 SWAP1 PUSH1 0x3 MUL ADD PUSH1 0x0 ADD SLOAD DUP5 DUP3 DUP2 MLOAD DUP2 LT PUSH2 0xE85 JUMPI PUSH2 0xE84 PUSH2 0x2090 JUMP JUMPDEST JUMPDEST PUSH1 0x20 MUL PUSH1 0x20 ADD ADD DUP2 DUP2 MSTORE POP POP PUSH1 0x2 DUP2 DUP2 SLOAD DUP2 LT PUSH2 0xEA5 JUMPI PUSH2 0xEA4 PUSH2 0x2090 JUMP JUMPDEST JUMPDEST SWAP1 PUSH1 0x0 MSTORE PUSH1 0x20 PUSH1 0x0 KECCAK256 SWAP1 PUSH1 0x3 MUL ADD PUSH1 0x1 ADD DUP1 SLOAD PUSH2 0xEC1 SWAP1 PUSH2 0x2151 JUMP JUMPDEST DUP1 PUSH1 0x1F ADD PUSH1 0x20 DUP1 SWAP2 DIV MUL PUSH1 0x20 ADD PUSH1 0x40 MLOAD SWAP1 DUP2 ADD PUSH1 0x40 MSTORE DUP1 SWAP3 SWAP2 SWAP1 DUP2 DUP2 MSTORE PUSH1 0x20 ADD DUP3 DUP1 SLOAD PUSH2 0xEED SWAP1 PUSH2 0x2151 JUMP JUMPDEST DUP1 ISZERO PUSH2 0xF3A JUMPI DUP1 PUSH1 0x1F LT PUSH2 0xF0F JUMPI PUSH2 0x100 DUP1 DUP4 SLOAD DIV MUL DUP4 MSTORE SWAP2 PUSH1 0x20 ADD SWAP2 PUSH2 0xF3A JUMP JUMPDEST DUP3 ADD SWAP2 SWAP1 PUSH1 0x0 MSTORE PUSH1 0x20 PUSH1 0x0 KECCAK256 SWAP1 JUMPDEST DUP2 SLOAD DUP2 MSTORE SWAP1 PUSH1 0x1 ADD SWAP1 PUSH1 0x20 ADD DUP1 DUP4 GT PUSH2 0xF1D JUMPI DUP3 SWAP1 SUB PUSH1 0x1F AND DUP3 ADD SWAP2 JUMPDEST POP POP POP POP POP DUP4 DUP3 DUP2 MLOAD DUP2 LT PUSH2 0xF52 JUMPI PUSH2 0xF51 PUSH2 0x2090 JUMP JUMPDEST JUMPDEST PUSH1 0x20 MUL PUSH1 0x20 ADD ADD DUP2 SWAP1 MSTORE POP PUSH1 0x2 DUP2 DUP2 SLOAD DUP2 LT PUSH2 0xF71 JUMPI PUSH2 0xF70 PUSH2 0x2090 JUMP JUMPDEST JUMPDEST SWAP1 PUSH1 0x0 MSTORE PUSH1 0x20 PUSH1 0x0 KECCAK256 SWAP1 PUSH1 0x3 MUL ADD PUSH1 0x2 ADD SLOAD DUP3 DUP3 DUP2 MLOAD DUP2 LT PUSH2 0xF96 JUMPI PUSH2 0xF95 PUSH2 0x2090 JUMP JUMPDEST JUMPDEST PUSH1 0x20 MUL PUSH1 0x20 ADD ADD DUP2 DUP2 MSTORE POP POP DUP1 DUP1 PUSH1 0x1 ADD SWAP2 POP POP PUSH2 0xE3F JUMP JUMPDEST POP DUP3 DUP3 DUP3 SWAP6 POP SWAP6 POP SWAP6 POP POP POP POP SWAP1 SWAP2 SWAP3 JUMP JUMPDEST PUSH1 0x0 PUSH1 0x15 SWAP1 SLOAD SWAP1 PUSH2 0x100 EXP SWAP1 DIV PUSH1 0xFF AND ISZERO PUSH2 0x1011 JUMPI PUSH1 0x40 MLOAD PUSH32 0x8C379A000000000000000000000000000000000000000000000000000000000 DUP2 MSTORE PUSH1 0x4 ADD PUSH2 0x1008 SWAP1 PUSH2 0x1E54 JUMP JUMPDEST PUSH1 0x40 MLOAD DUP1 SWAP2 SUB SWAP1 REVERT JUMPDEST PUSH1 0x0 DUP1 SLOAD SWAP1 PUSH2 0x100 EXP SWAP1 DIV PUSH20 0xFFFFFFFFFFFFFFFFFFFFFFFFFFFFFFFFFFFFFFFF AND PUSH20 0xFFFFFFFFFFFFFFFFFFFFFFFFFFFFFFFFFFFFFFFF AND CALLER PUSH20 0xFFFFFFFFFFFFFFFFFFFFFFFFFFFFFFFFFFFFFFFF AND EQ PUSH2 0x109F JUMPI PUSH1 0x40 MLOAD PUSH32 0x8C379A000000000000000000000000000000000000000000000000000000000 DUP2 MSTORE PUSH1 0x4 ADD PUSH2 0x1096 SWAP1 PUSH2 0x259F JUMP JUMPDEST PUSH1 0x40 MLOAD DUP1 SWAP2 SUB SWAP1 REVERT JUMPDEST PUSH1 0x0 PUSH1 0x14 SWAP1 SLOAD SWAP1 PUSH2 0x100 EXP SWAP1 DIV PUSH1 0xFF AND PUSH2 0x10EE JUMPI PUSH1 0x40 MLOAD PUSH32 0x8C379A000000000000000000000000000000000000000000000000000000000 DUP2 MSTORE PUSH1 0x4 ADD PUSH2 0x10E5 SWAP1 PUSH2 0x260B JUMP JUMPDEST PUSH1 0x40 MLOAD DUP1 SWAP2 SUB SWAP1 REVERT JUMPDEST PUSH1 0x0 JUMPDEST PUSH1 0x1 DUP1 SLOAD SWAP1 POP DUP2 LT ISZERO PUSH2 0x1136 JUMPI PUSH1 0x0 PUSH1 0x1 DUP3 DUP2 SLOAD DUP2 LT PUSH2 0x1114 JUMPI PUSH2 0x1113 PUSH2 0x2090 JUMP JUMPDEST JUMPDEST SWAP1 PUSH1 0x0 MSTORE PUSH1 0x20 PUSH1 0x0 KECCAK256 SWAP1 PUSH1 0x2 MUL ADD PUSH1 0x1 ADD DUP2 SWAP1 SSTORE POP DUP1 DUP1 PUSH1 0x1 ADD SWAP2 POP POP PUSH2 0x10F1 JUMP JUMPDEST POP PUSH1 0x0 JUMPDEST PUSH1 0x4 DUP1 SLOAD SWAP1 POP DUP2 LT ISZERO PUSH2 0x11D7 JUMPI PUSH1 0x0 PUSH1 0x3 PUSH1 0x0 PUSH1 0x4 DUP5 DUP2 SLOAD DUP2 LT PUSH2 0x1161 JUMPI PUSH2 0x1160 PUSH2 0x2090 JUMP JUMPDEST JUMPDEST SWAP1 PUSH1 0x0 MSTORE PUSH1 0x20 PUSH1 0x0 KECCAK256 ADD PUSH1 0x0 SWAP1 SLOAD SWAP1 PUSH2 0x100 EXP SWAP1 DIV PUSH20 0xFFFFFFFFFFFFFFFFFFFFFFFFFFFFFFFFFFFFFFFF AND PUSH20 0xFFFFFFFFFFFFFFFFFFFFFFFFFFFFFFFFFFFFFFFF AND PUSH20 0xFFFFFFFFFFFFFFFFFFFFFFFFFFFFFFFFFFFFFFFF AND DUP2 MSTORE PUSH1 0x20 ADD SWAP1 DUP2 MSTORE PUSH1 0x20 ADD PUSH1 0x0 KECCAK256 DUP2 SWAP1 SSTORE POP DUP1 DUP1 PUSH1 0x1 ADD SWAP2 POP POP PUSH2 0x113A JUMP JUMPDEST POP PUSH1 0x0 DUP1 PUSH1 0x14 PUSH2 0x100 EXP DUP2 SLOAD DUP2 PUSH1 0xFF MUL NOT AND SWAP1 DUP4 ISZERO ISZERO MUL OR SWAP1 SSTORE POP JUMP JUMPDEST PUSH1 0x2 DUP2 DUP2 SLOAD DUP2 LT PUSH2 0x1204 JUMPI PUSH1 0x0 DUP1 REVERT JUMPDEST SWAP1 PUSH1 0x0 MSTORE PUSH1 0x20 PUSH1 0x0 KECCAK256 SWAP1 PUSH1 0x3 MUL ADD PUSH1 0x0 SWAP2 POP SWAP1 POP DUP1 PUSH1 0x0 ADD SLOAD SWAP1 DUP1 PUSH1 0x1 ADD DUP1 SLOAD PUSH2 0x122D SWAP1 PUSH2 0x2151 JUMP JUMPDEST DUP1 PUSH1 0x1F ADD PUSH1 0x20 DUP1 SWAP2 DIV MUL PUSH1 0x20 ADD PUSH1 0x40 MLOAD SWAP1 DUP2 ADD PUSH1 0x40 MSTORE DUP1 SWAP3 SWAP2 SWAP1 DUP2 DUP2 MSTORE PUSH1 0x20 ADD DUP3 DUP1 SLOAD PUSH2 0x1259 SWAP1 PUSH2 0x2151 JUMP JUMPDEST DUP1 ISZERO PUSH2 0x12A6 JUMPI DUP1 PUSH1 0x1F LT PUSH2 0x127B JUMPI PUSH2 0x100 DUP1 DUP4 SLOAD DIV MUL DUP4 MSTORE SWAP2 PUSH1 0x20 ADD SWAP2 PUSH2 0x12A6 JUMP JUMPDEST DUP3 ADD SWAP2 SWAP1 PUSH1 0x0 MSTORE PUSH1 0x20 PUSH1 0x0 KECCAK256 SWAP1 JUMPDEST DUP2 SLOAD DUP2 MSTORE SWAP1 PUSH1 0x1 ADD SWAP1 PUSH1 0x20 ADD DUP1 DUP4 GT PUSH2 0x1289 JUMPI DUP3 SWAP1 SUB PUSH1 0x1F AND DUP3 ADD SWAP2 JUMPDEST POP POP POP POP POP SWAP1 DUP1 PUSH1 0x2 ADD SLOAD SWAP1 POP DUP4 JUMP JUMPDEST PUSH1 0x0 DUP1 SLOAD SWAP1 PUSH2 0x100 EXP SWAP1 DIV PUSH20 0xFFFFFFFFFFFFFFFFFFFFFFFFFFFFFFFFFFFFFFFF AND PUSH20 0xFFFFFFFFFFFFFFFFFFFFFFFFFFFFFFFFFFFFFFFF AND CALLER PUSH20 0xFFFFFFFFFFFFFFFFFFFFFFFFFFFFFFFFFFFFFFFF AND EQ PUSH2 0x1344 JUMPI PUSH1 0x40 MLOAD PUSH32 0x8C379A000000000000000000000000000000000000000000000000000000000 DUP2 MSTORE PUSH1 0x4 ADD PUSH2 0x133B SWAP1 PUSH2 0x21F4 JUMP JUMPDEST PUSH1 0x40 MLOAD DUP1 SWAP2 SUB SWAP1 REVERT JUMPDEST PUSH1 0x0 PUSH1 0x15 SWAP1 SLOAD SWAP1 PUSH2 0x100 EXP SWAP1 DIV PUSH1 0xFF AND ISZERO PUSH2 0x1394 JUMPI PUSH1 0x40 MLOAD PUSH32 0x8C379A000000000000000000000000000000000000000000000000000000000 DUP2 MSTORE PUSH1 0x4 ADD PUSH2 0x138B SWAP1 PUSH2 0x1E54 JUMP JUMPDEST PUSH1 0x40 MLOAD DUP1 SWAP2 SUB SWAP1 REVERT JUMPDEST PUSH1 0x0 SELFBALANCE SWAP1 POP PUSH1 0x0 DUP2 GT PUSH2 0x13DC JUMPI PUSH1 0x40 MLOAD PUSH32 0x8C379A000000000000000000000000000000000000000000000000000000000 DUP2 MSTORE PUSH1 0x4 ADD PUSH2 0x13D3 SWAP1 PUSH2 0x2677 JUMP JUMPDEST PUSH1 0x40 MLOAD DUP1 SWAP2 SUB SWAP1 REVERT JUMPDEST PUSH1 0x0 DUP1 SLOAD SWAP1 PUSH2 0x100 EXP SWAP1 DIV PUSH20 0xFFFFFFFFFFFFFFFFFFFFFFFFFFFFFFFFFFFFFFFF AND PUSH20 0xFFFFFFFFFFFFFFFFFFFFFFFFFFFFFFFFFFFFFFFF AND PUSH2 0x8FC DUP3 SWAP1 DUP2 ISZERO MUL SWAP1 PUSH1 0x40 MLOAD PUSH1 0x0 PUSH1 0x40 MLOAD DUP1 DUP4 SUB DUP2 DUP6 DUP9 DUP9 CALL SWAP4 POP POP POP POP ISZERO DUP1 ISZERO PUSH2 0x1442 JUMPI RETURNDATASIZE PUSH1 0x0 DUP1 RETURNDATACOPY RETURNDATASIZE PUSH1 0x0 REVERT JUMPDEST POP POP JUMP JUMPDEST PUSH1 0x0 DUP1 PUSH1 0x15 SWAP1 SLOAD SWAP1 PUSH2 0x100 EXP SWAP1 DIV PUSH1 0xFF AND ISZERO PUSH2 0x1497 JUMPI PUSH1 0x40 MLOAD PUSH32 0x8C379A000000000000000000000000000000000000000000000000000000000 DUP2 MSTORE PUSH1 0x4 ADD PUSH2 0x148E SWAP1 PUSH2 0x1E54 JUMP JUMPDEST PUSH1 0x40 MLOAD DUP1 SWAP2 SUB SWAP1 REVERT JUMPDEST PUSH1 0x3 PUSH1 0x0 DUP4 PUSH20 0xFFFFFFFFFFFFFFFFFFFFFFFFFFFFFFFFFFFFFFFF AND PUSH20 0xFFFFFFFFFFFFFFFFFFFFFFFFFFFFFFFFFFFFFFFF AND DUP2 MSTORE PUSH1 0x20 ADD SWAP1 DUP2 MSTORE PUSH1 0x20 ADD PUSH1 0x0 KECCAK256 SLOAD PUSH1 0x5 PUSH2 0x14E3 SWAP2 SWAP1 PUSH2 0x2697 JUMP JUMPDEST SWAP1 POP SWAP2 SWAP1 POP JUMP JUMPDEST PUSH1 0x3 PUSH1 0x20 MSTORE DUP1 PUSH1 0x0 MSTORE PUSH1 0x40 PUSH1 0x0 KECCAK256 PUSH1 0x0 SWAP2 POP SWAP1 POP SLOAD DUP2 JUMP JUMPDEST PUSH1 0x0 PUSH1 0x15 SWAP1 SLOAD SWAP1 PUSH2 0x100 EXP SWAP1 DIV PUSH1 0xFF AND DUP2 JUMP JUMPDEST PUSH1 0x0 DUP1 SLOAD SWAP1 PUSH2 0x100 EXP SWAP1 DIV PUSH20 0xFFFFFFFFFFFFFFFFFFFFFFFFFFFFFFFFFFFFFFFF AND PUSH20 0xFFFFFFFFFFFFFFFFFFFFFFFFFFFFFFFFFFFFFFFF AND CALLER PUSH20 0xFFFFFFFFFFFFFFFFFFFFFFFFFFFFFFFFFFFFFFFF AND EQ PUSH2 0x15A3 JUMPI PUSH1 0x40 MLOAD PUSH32 0x8C379A000000000000000000000000000000000000000000000000000000000 DUP2 MSTORE PUSH1 0x4 ADD PUSH2 0x159A SWAP1 PUSH2 0x21F4 JUMP JUMPDEST PUSH1 0x40 MLOAD DUP1 SWAP2 SUB SWAP1 REVERT JUMPDEST PUSH1 0x0 PUSH1 0x15 SWAP1 SLOAD SWAP1 PUSH2 0x100 EXP SWAP1 DIV PUSH1 0xFF AND ISZERO PUSH2 0x15F3 JUMPI PUSH1 0x40 MLOAD PUSH32 0x8C379A000000000000000000000000000000000000000000000000000000000 DUP2 MSTORE PUSH1 0x4 ADD PUSH2 0x15EA SWAP1 PUSH2 0x1E54 JUMP JUMPDEST PUSH1 0x40 MLOAD DUP1 SWAP2 SUB SWAP1 REVERT JUMPDEST PUSH1 0x0 PUSH20 0xFFFFFFFFFFFFFFFFFFFFFFFFFFFFFFFFFFFFFFFF AND DUP2 PUSH20 0xFFFFFFFFFFFFFFFFFFFFFFFFFFFFFFFFFFFFFFFF AND SUB PUSH2 0x1662 JUMPI PUSH1 0x40 MLOAD PUSH32 0x8C379A000000000000000000000000000000000000000000000000000000000 DUP2 MSTORE PUSH1 0x4 ADD PUSH2 0x1659 SWAP1 PUSH2 0x2717 JUMP JUMPDEST PUSH1 0x40 MLOAD DUP1 SWAP2 SUB SWAP1 REVERT JUMPDEST DUP1 PUSH1 0x0 DUP1 PUSH2 0x100 EXP DUP2 SLOAD DUP2 PUSH20 0xFFFFFFFFFFFFFFFFFFFFFFFFFFFFFFFFFFFFFFFF MUL NOT AND SWAP1 DUP4 PUSH20 0xFFFFFFFFFFFFFFFFFFFFFFFFFFFFFFFFFFFFFFFF AND MUL OR SWAP1 SSTORE POP POP JUMP JUMPDEST PUSH1 0x0 DUP1 PUSH1 0x15 SWAP1 SLOAD SWAP1 PUSH2 0x100 EXP SWAP1 DIV PUSH1 0xFF AND ISZERO PUSH2 0x16F6 JUMPI PUSH1 0x40 MLOAD PUSH32 0x8C379A000000000000000000000000000000000000000000000000000000000 DUP2 MSTORE PUSH1 0x4 ADD PUSH2 0x16ED SWAP1 PUSH2 0x1E54 JUMP JUMPDEST PUSH1 0x40 MLOAD DUP1 SWAP2 SUB SWAP1 REVERT JUMPDEST PUSH1 0x0 PUSH1 0x14 SWAP1 SLOAD SWAP1 PUSH2 0x100 EXP SWAP1 DIV PUSH1 0xFF AND ISZERO SWAP1 POP SWAP1 JUMP JUMPDEST PUSH1 0x0 DUP1 PUSH1 0x15 SWAP1 SLOAD SWAP1 PUSH2 0x100 EXP SWAP1 DIV PUSH1 0xFF AND ISZERO PUSH2 0x175D JUMPI PUSH1 0x40 MLOAD PUSH32 0x8C379A000000000000000000000000000000000000000000000000000000000 DUP2 MSTORE PUSH1 0x4 ADD PUSH2 0x1754 SWAP1 PUSH2 0x1E54 JUMP JUMPDEST PUSH1 0x40 MLOAD DUP1 SWAP2 SUB SWAP1 REVERT JUMPDEST PUSH1 0x1 DUP3 DUP2 SLOAD DUP2 LT PUSH2 0x1771 JUMPI PUSH2 0x1770 PUSH2 0x2090 JUMP JUMPDEST JUMPDEST SWAP1 PUSH1 0x0 MSTORE PUSH1 0x20 PUSH1 0x0 KECCAK256 SWAP1 PUSH1 0x2 MUL ADD PUSH1 0x1 ADD SLOAD SWAP1 POP SWAP2 SWAP1 POP JUMP JUMPDEST PUSH1 0x4 DUP2 DUP2 SLOAD DUP2 LT PUSH2 0x179A JUMPI PUSH1 0x0 DUP1 REVERT JUMPDEST SWAP1 PUSH1 0x0 MSTORE PUSH1 0x20 PUSH1 0x0 KECCAK256 ADD PUSH1 0x0 SWAP2 POP SLOAD SWAP1 PUSH2 0x100 EXP SWAP1 DIV PUSH20 0xFFFFFFFFFFFFFFFFFFFFFFFFFFFFFFFFFFFFFFFF AND DUP2 JUMP JUMPDEST PUSH1 0x0 DUP1 PUSH1 0x15 SWAP1 SLOAD SWAP1 PUSH2 0x100 EXP SWAP1 DIV PUSH1 0xFF AND ISZERO PUSH2 0x181A JUMPI PUSH1 0x40 MLOAD PUSH32 0x8C379A000000000000000000000000000000000000000000000000000000000 DUP2 MSTORE PUSH1 0x4 ADD PUSH2 0x1811 SWAP1 PUSH2 0x1E54 JUMP JUMPDEST PUSH1 0x40 MLOAD DUP1 SWAP2 SUB SWAP1 REVERT JUMPDEST PUSH1 0x0 PUSH1 0x1 DUP1 SLOAD SWAP1 POP PUSH8 0xFFFFFFFFFFFFFFFF DUP2 GT ISZERO PUSH2 0x183B JUMPI PUSH2 0x183A PUSH2 0x2280 JUMP JUMPDEST JUMPDEST PUSH1 0x40 MLOAD SWAP1 DUP1 DUP3 MSTORE DUP1 PUSH1 0x20 MUL PUSH1 0x20 ADD DUP3 ADD PUSH1 0x40 MSTORE DUP1 ISZERO PUSH2 0x1869 JUMPI DUP2 PUSH1 0x20 ADD PUSH1 0x20 DUP3 MUL DUP1 CALLDATASIZE DUP4 CALLDATACOPY DUP1 DUP3 ADD SWAP2 POP POP SWAP1 POP JUMPDEST POP SWAP1 POP PUSH1 0x0 DUP1 PUSH1 0x1 PUSH1 0x0 DUP2 SLOAD DUP2 LT PUSH2 0x1884 JUMPI PUSH2 0x1883 PUSH2 0x2090 JUMP JUMPDEST JUMPDEST SWAP1 PUSH1 0x0 MSTORE PUSH1 0x20 PUSH1 0x0 KECCAK256 SWAP1 PUSH1 0x2 MUL ADD PUSH1 0x1 ADD SLOAD SWAP1 POP PUSH1 0x0 JUMPDEST PUSH1 0x1 DUP1 SLOAD SWAP1 POP DUP2 LT ISZERO PUSH2 0x1910 JUMPI DUP2 PUSH1 0x1 DUP3 DUP2 SLOAD DUP2 LT PUSH2 0x18BD JUMPI PUSH2 0x18BC PUSH2 0x2090 JUMP JUMPDEST JUMPDEST SWAP1 PUSH1 0x0 MSTORE PUSH1 0x20 PUSH1 0x0 KECCAK256 SWAP1 PUSH1 0x2 MUL ADD PUSH1 0x1 ADD SLOAD SUB PUSH2 0x1903 JUMPI DUP1 DUP5 DUP5 DUP2 MLOAD DUP2 LT PUSH2 0x18E8 JUMPI PUSH2 0x18E7 PUSH2 0x2090 JUMP JUMPDEST JUMPDEST PUSH1 0x20 MUL PUSH1 0x20 ADD ADD DUP2 DUP2 MSTORE POP POP DUP3 DUP1 PUSH2 0x18FF SWAP1 PUSH2 0x2737 JUMP JUMPDEST SWAP4 POP POP JUMPDEST DUP1 DUP1 PUSH1 0x1 ADD SWAP2 POP POP PUSH2 0x189B JUMP JUMPDEST POP PUSH1 0x0 DUP3 PUSH1 0x1 NUMBER PUSH2 0x1921 SWAP2 SWAP1 PUSH2 0x2697 JUMP JUMPDEST BLOCKHASH PUSH1 0x0 SHR PUSH2 0x192F SWAP2 SWAP1 PUSH2 0x27AE JUMP JUMPDEST SWAP1 POP DUP4 DUP2 DUP2 MLOAD DUP2 LT PUSH2 0x1944 JUMPI PUSH2 0x1943 PUSH2 0x2090 JUMP JUMPDEST JUMPDEST PUSH1 0x20 MUL PUSH1 0x20 ADD ADD MLOAD SWAP5 POP POP POP POP POP SWAP1 JUMP JUMPDEST PUSH1 0x0 DUP1 REVERT JUMPDEST PUSH1 0x0 DUP2 SWAP1 POP SWAP2 SWAP1 POP JUMP JUMPDEST PUSH2 0x196D DUP2 PUSH2 0x195A JUMP JUMPDEST DUP2 EQ PUSH2 0x1978 JUMPI PUSH1 0x0 DUP1 REVERT JUMPDEST POP JUMP JUMPDEST PUSH1 0x0 DUP2 CALLDATALOAD SWAP1 POP PUSH2 0x198A DUP2 PUSH2 0x1964 JUMP JUMPDEST SWAP3 SWAP2 POP POP JUMP JUMPDEST PUSH1 0x0 PUSH1 0x20 DUP3 DUP5 SUB SLT ISZERO PUSH2 0x19A6 JUMPI PUSH2 0x19A5 PUSH2 0x1955 JUMP JUMPDEST JUMPDEST PUSH1 0x0 PUSH2 0x19B4 DUP5 DUP3 DUP6 ADD PUSH2 0x197B JUMP JUMPDEST SWAP2 POP POP SWAP3 SWAP2 POP POP JUMP JUMPDEST PUSH1 0x0 DUP2 MLOAD SWAP1 POP SWAP2 SWAP1 POP JUMP JUMPDEST PUSH1 0x0 DUP3 DUP3 MSTORE PUSH1 0x20 DUP3 ADD SWAP1 POP SWAP3 SWAP2 POP POP JUMP JUMPDEST PUSH1 0x0 JUMPDEST DUP4 DUP2 LT ISZERO PUSH2 0x19F7 JUMPI DUP1 DUP3 ADD MLOAD DUP2 DUP5 ADD MSTORE PUSH1 0x20 DUP2 ADD SWAP1 POP PUSH2 0x19DC JUMP JUMPDEST PUSH1 0x0 DUP5 DUP5 ADD MSTORE POP POP POP POP JUMP JUMPDEST PUSH1 0x0 PUSH1 0x1F NOT PUSH1 0x1F DUP4 ADD AND SWAP1 POP SWAP2 SWAP1 POP JUMP JUMPDEST PUSH1 0x0 PUSH2 0x1A1F DUP3 PUSH2 0x19BD JUMP JUMPDEST PUSH2 0x1A29 DUP2 DUP6 PUSH2 0x19C8 JUMP JUMPDEST SWAP4 POP PUSH2 0x1A39 DUP2 DUP6 PUSH1 0x20 DUP7 ADD PUSH2 0x19D9 JUMP JUMPDEST PUSH2 0x1A42 DUP2 PUSH2 0x1A03 JUMP JUMPDEST DUP5 ADD SWAP2 POP POP SWAP3 SWAP2 POP POP JUMP JUMPDEST PUSH2 0x1A56 DUP2 PUSH2 0x195A JUMP JUMPDEST DUP3 MSTORE POP POP JUMP JUMPDEST PUSH1 0x0 PUSH1 0x40 DUP3 ADD SWAP1 POP DUP2 DUP2 SUB PUSH1 0x0 DUP4 ADD MSTORE PUSH2 0x1A76 DUP2 DUP6 PUSH2 0x1A14 JUMP JUMPDEST SWAP1 POP PUSH2 0x1A85 PUSH1 0x20 DUP4 ADD DUP5 PUSH2 0x1A4D JUMP JUMPDEST SWAP4 SWAP3 POP POP POP JUMP JUMPDEST PUSH1 0x0 PUSH20 0xFFFFFFFFFFFFFFFFFFFFFFFFFFFFFFFFFFFFFFFF DUP3 AND SWAP1 POP SWAP2 SWAP1 POP JUMP JUMPDEST PUSH1 0x0 PUSH2 0x1AB7 DUP3 PUSH2 0x1A8C JUMP JUMPDEST SWAP1 POP SWAP2 SWAP1 POP JUMP JUMPDEST PUSH2 0x1AC7 DUP2 PUSH2 0x1AAC JUMP JUMPDEST DUP3 MSTORE POP POP JUMP JUMPDEST PUSH1 0x0 PUSH1 0x20 DUP3 ADD SWAP1 POP PUSH2 0x1AE2 PUSH1 0x0 DUP4 ADD DUP5 PUSH2 0x1ABE JUMP JUMPDEST SWAP3 SWAP2 POP POP JUMP JUMPDEST PUSH1 0x0 DUP2 ISZERO ISZERO SWAP1 POP SWAP2 SWAP1 POP JUMP JUMPDEST PUSH2 0x1AFD DUP2 PUSH2 0x1AE8 JUMP JUMPDEST DUP3 MSTORE POP POP JUMP JUMPDEST PUSH1 0x0 PUSH1 0x20 DUP3 ADD SWAP1 POP PUSH2 0x1B18 PUSH1 0x0 DUP4 ADD DUP5 PUSH2 0x1AF4 JUMP JUMPDEST SWAP3 SWAP2 POP POP JUMP JUMPDEST PUSH1 0x0 PUSH1 0x20 DUP3 ADD SWAP1 POP DUP2 DUP2 SUB PUSH1 0x0 DUP4 ADD MSTORE PUSH2 0x1B38 DUP2 DUP5 PUSH2 0x1A14 JUMP JUMPDEST SWAP1 POP SWAP3 SWAP2 POP POP JUMP JUMPDEST PUSH1 0x0 DUP2 MLOAD SWAP1 POP SWAP2 SWAP1 POP JUMP JUMPDEST PUSH1 0x0 DUP3 DUP3 MSTORE PUSH1 0x20 DUP3 ADD SWAP1 POP SWAP3 SWAP2 POP POP JUMP JUMPDEST PUSH1 0x0 DUP2 SWAP1 POP PUSH1 0x20 DUP3 ADD SWAP1 POP SWAP2 SWAP1 POP JUMP JUMPDEST PUSH2 0x1B75 DUP2 PUSH2 0x195A JUMP JUMPDEST DUP3 MSTORE POP POP JUMP JUMPDEST PUSH1 0x0 PUSH2 0x1B87 DUP4 DUP4 PUSH2 0x1B6C JUMP JUMPDEST PUSH1 0x20 DUP4 ADD SWAP1 POP SWAP3 SWAP2 POP POP JUMP JUMPDEST PUSH1 0x0 PUSH1 0x20 DUP3 ADD SWAP1 POP SWAP2 SWAP1 POP JUMP JUMPDEST PUSH1 0x0 PUSH2 0x1BAB DUP3 PUSH2 0x1B40 JUMP JUMPDEST PUSH2 0x1BB5 DUP2 DUP6 PUSH2 0x1B4B JUMP JUMPDEST SWAP4 POP PUSH2 0x1BC0 DUP4 PUSH2 0x1B5C JUMP JUMPDEST DUP1 PUSH1 0x0 JUMPDEST DUP4 DUP2 LT ISZERO PUSH2 0x1BF1 JUMPI DUP2 MLOAD PUSH2 0x1BD8 DUP9 DUP3 PUSH2 0x1B7B JUMP JUMPDEST SWAP8 POP PUSH2 0x1BE3 DUP4 PUSH2 0x1B93 JUMP JUMPDEST SWAP3 POP POP PUSH1 0x1 DUP2 ADD SWAP1 POP PUSH2 0x1BC4 JUMP JUMPDEST POP DUP6 SWAP4 POP POP POP POP SWAP3 SWAP2 POP POP JUMP JUMPDEST PUSH1 0x0 DUP2 MLOAD SWAP1 POP SWAP2 SWAP1 POP JUMP JUMPDEST PUSH1 0x0 DUP3 DUP3 MSTORE PUSH1 0x20 DUP3 ADD SWAP1 POP SWAP3 SWAP2 POP POP JUMP JUMPDEST PUSH1 0x0 DUP2 SWAP1 POP PUSH1 0x20 DUP3 ADD SWAP1 POP SWAP2 SWAP1 POP JUMP JUMPDEST PUSH1 0x0 DUP3 DUP3 MSTORE PUSH1 0x20 DUP3 ADD SWAP1 POP SWAP3 SWAP2 POP POP JUMP JUMPDEST PUSH1 0x0 PUSH2 0x1C46 DUP3 PUSH2 0x19BD JUMP JUMPDEST PUSH2 0x1C50 DUP2 DUP6 PUSH2 0x1C2A JUMP JUMPDEST SWAP4 POP PUSH2 0x1C60 DUP2 DUP6 PUSH1 0x20 DUP7 ADD PUSH2 0x19D9 JUMP JUMPDEST PUSH2 0x1C69 DUP2 PUSH2 0x1A03 JUMP JUMPDEST DUP5 ADD SWAP2 POP POP SWAP3 SWAP2 POP POP JUMP JUMPDEST PUSH1 0x0 PUSH2 0x1C80 DUP4 DUP4 PUSH2 0x1C3B JUMP JUMPDEST SWAP1 POP SWAP3 SWAP2 POP POP JUMP JUMPDEST PUSH1 0x0 PUSH1 0x20 DUP3 ADD SWAP1 POP SWAP2 SWAP1 POP JUMP JUMPDEST PUSH1 0x0 PUSH2 0x1CA0 DUP3 PUSH2 0x1BFE JUMP JUMPDEST PUSH2 0x1CAA DUP2 DUP6 PUSH2 0x1C09 JUMP JUMPDEST SWAP4 POP DUP4 PUSH1 0x20 DUP3 MUL DUP6 ADD PUSH2 0x1CBC DUP6 PUSH2 0x1C1A JUMP JUMPDEST DUP1 PUSH1 0x0 JUMPDEST DUP6 DUP2 LT ISZERO PUSH2 0x1CF8 JUMPI DUP5 DUP5 SUB DUP10 MSTORE DUP2 MLOAD PUSH2 0x1CD9 DUP6 DUP3 PUSH2 0x1C74 JUMP JUMPDEST SWAP5 POP PUSH2 0x1CE4 DUP4 PUSH2 0x1C88 JUMP JUMPDEST SWAP3 POP PUSH1 0x20 DUP11 ADD SWAP10 POP POP PUSH1 0x1 DUP2 ADD SWAP1 POP PUSH2 0x1CC0 JUMP JUMPDEST POP DUP3 SWAP8 POP DUP8 SWAP6 POP POP POP POP POP POP SWAP3 SWAP2 POP POP JUMP JUMPDEST PUSH1 0x0 PUSH1 0x60 DUP3 ADD SWAP1 POP DUP2 DUP2 SUB PUSH1 0x0 DUP4 ADD MSTORE PUSH2 0x1D24 DUP2 DUP7 PUSH2 0x1BA0 JUMP JUMPDEST SWAP1 POP DUP2 DUP2 SUB PUSH1 0x20 DUP4 ADD MSTORE PUSH2 0x1D38 DUP2 DUP6 PUSH2 0x1C95 JUMP JUMPDEST SWAP1 POP DUP2 DUP2 SUB PUSH1 0x40 DUP4 ADD MSTORE PUSH2 0x1D4C DUP2 DUP5 PUSH2 0x1BA0 JUMP JUMPDEST SWAP1 POP SWAP5 SWAP4 POP POP POP POP JUMP JUMPDEST PUSH1 0x0 PUSH1 0x60 DUP3 ADD SWAP1 POP PUSH2 0x1D6B PUSH1 0x0 DUP4 ADD DUP7 PUSH2 0x1A4D JUMP JUMPDEST DUP2 DUP2 SUB PUSH1 0x20 DUP4 ADD MSTORE PUSH2 0x1D7D DUP2 DUP6 PUSH2 0x1A14 JUMP JUMPDEST SWAP1 POP PUSH2 0x1D8C PUSH1 0x40 DUP4 ADD DUP5 PUSH2 0x1A4D JUMP JUMPDEST SWAP5 SWAP4 POP POP POP POP JUMP JUMPDEST PUSH2 0x1D9D DUP2 PUSH2 0x1AAC JUMP JUMPDEST DUP2 EQ PUSH2 0x1DA8 JUMPI PUSH1 0x0 DUP1 REVERT JUMPDEST POP JUMP JUMPDEST PUSH1 0x0 DUP2 CALLDATALOAD SWAP1 POP PUSH2 0x1DBA DUP2 PUSH2 0x1D94 JUMP JUMPDEST SWAP3 SWAP2 POP POP JUMP JUMPDEST PUSH1 0x0 PUSH1 0x20 DUP3 DUP5 SUB SLT ISZERO PUSH2 0x1DD6 JUMPI PUSH2 0x1DD5 PUSH2 0x1955 JUMP JUMPDEST JUMPDEST PUSH1 0x0 PUSH2 0x1DE4 DUP5 DUP3 DUP6 ADD PUSH2 0x1DAB JUMP JUMPDEST SWAP2 POP POP SWAP3 SWAP2 POP POP JUMP JUMPDEST PUSH1 0x0 PUSH1 0x20 DUP3 ADD SWAP1 POP PUSH2 0x1E02 PUSH1 0x0 DUP4 ADD DUP5 PUSH2 0x1A4D JUMP JUMPDEST SWAP3 SWAP2 POP POP JUMP JUMPDEST PUSH32 0x436F6E74726163742069732064657374726F7965640000000000000000000000 PUSH1 0x0 DUP3 ADD MSTORE POP JUMP JUMPDEST PUSH1 0x0 PUSH2 0x1E3E PUSH1 0x15 DUP4 PUSH2 0x19C8 JUMP JUMPDEST SWAP2 POP PUSH2 0x1E49 DUP3 PUSH2 0x1E08 JUMP JUMPDEST PUSH1 0x20 DUP3 ADD SWAP1 POP SWAP2 SWAP1 POP JUMP JUMPDEST PUSH1 0x0 PUSH1 0x20 DUP3 ADD SWAP1 POP DUP2 DUP2 SUB PUSH1 0x0 DUP4 ADD MSTORE PUSH2 0x1E6D DUP2 PUSH2 0x1E31 JUMP JUMPDEST SWAP1 POP SWAP2 SWAP1 POP JUMP JUMPDEST PUSH32 0x566F74696E6720697320636C6F7365642E000000000000000000000000000000 PUSH1 0x0 DUP3 ADD MSTORE POP JUMP JUMPDEST PUSH1 0x0 PUSH2 0x1EAA PUSH1 0x11 DUP4 PUSH2 0x19C8 JUMP JUMPDEST SWAP2 POP PUSH2 0x1EB5 DUP3 PUSH2 0x1E74 JUMP JUMPDEST PUSH1 0x20 DUP3 ADD SWAP1 POP SWAP2 SWAP1 POP JUMP JUMPDEST PUSH1 0x0 PUSH1 0x20 DUP3 ADD SWAP1 POP DUP2 DUP2 SUB PUSH1 0x0 DUP4 ADD MSTORE PUSH2 0x1ED9 DUP2 PUSH2 0x1E9D JUMP JUMPDEST SWAP1 POP SWAP2 SWAP1 POP JUMP JUMPDEST PUSH32 0x496E636F72726563742065746865722076616C75652073656E742E0000000000 PUSH1 0x0 DUP3 ADD MSTORE POP JUMP JUMPDEST PUSH1 0x0 PUSH2 0x1F16 PUSH1 0x1B DUP4 PUSH2 0x19C8 JUMP JUMPDEST SWAP2 POP PUSH2 0x1F21 DUP3 PUSH2 0x1EE0 JUMP JUMPDEST PUSH1 0x20 DUP3 ADD SWAP1 POP SWAP2 SWAP1 POP JUMP JUMPDEST PUSH1 0x0 PUSH1 0x20 DUP3 ADD SWAP1 POP DUP2 DUP2 SUB PUSH1 0x0 DUP4 ADD MSTORE PUSH2 0x1F45 DUP2 PUSH2 0x1F09 JUMP JUMPDEST SWAP1 POP SWAP2 SWAP1 POP JUMP JUMPDEST PUSH32 0x50726F6A656374206D616E616765722063616E6E6F7420766F74652E00000000 PUSH1 0x0 DUP3 ADD MSTORE POP JUMP JUMPDEST PUSH1 0x0 PUSH2 0x1F82 PUSH1 0x1C DUP4 PUSH2 0x19C8 JUMP JUMPDEST SWAP2 POP PUSH2 0x1F8D DUP3 PUSH2 0x1F4C JUMP JUMPDEST PUSH1 0x20 DUP3 ADD SWAP1 POP SWAP2 SWAP1 POP JUMP JUMPDEST PUSH1 0x0 PUSH1 0x20 DUP3 ADD SWAP1 POP DUP2 DUP2 SUB PUSH1 0x0 DUP4 ADD MSTORE PUSH2 0x1FB1 DUP2 PUSH2 0x1F75 JUMP JUMPDEST SWAP1 POP SWAP2 SWAP1 POP JUMP JUMPDEST PUSH32 0x496E76616C69642070726F706F73616C20696E6465782E000000000000000000 PUSH1 0x0 DUP3 ADD MSTORE POP JUMP JUMPDEST PUSH1 0x0 PUSH2 0x1FEE PUSH1 0x17 DUP4 PUSH2 0x19C8 JUMP JUMPDEST SWAP2 POP PUSH2 0x1FF9 DUP3 PUSH2 0x1FB8 JUMP JUMPDEST PUSH1 0x20 DUP3 ADD SWAP1 POP SWAP2 SWAP1 POP JUMP JUMPDEST PUSH1 0x0 PUSH1 0x20 DUP3 ADD SWAP1 POP DUP2 DUP2 SUB PUSH1 0x0 DUP4 ADD MSTORE PUSH2 0x201D DUP2 PUSH2 0x1FE1 JUMP JUMPDEST SWAP1 POP SWAP2 SWAP1 POP JUMP JUMPDEST PUSH32 0x45786365656473206D6178696D756D20766F7465732070657220766F7465722E PUSH1 0x0 DUP3 ADD MSTORE POP JUMP JUMPDEST PUSH1 0x0 PUSH2 0x205A PUSH1 0x20 DUP4 PUSH2 0x19C8 JUMP JUMPDEST SWAP2 POP PUSH2 0x2065 DUP3 PUSH2 0x2024 JUMP JUMPDEST PUSH1 0x20 DUP3 ADD SWAP1 POP SWAP2 SWAP1 POP JUMP JUMPDEST PUSH1 0x0 PUSH1 0x20 DUP3 ADD SWAP1 POP DUP2 DUP2 SUB PUSH1 0x0 DUP4 ADD MSTORE PUSH2 0x2089 DUP2 PUSH2 0x204D JUMP JUMPDEST SWAP1 POP SWAP2 SWAP1 POP JUMP JUMPDEST PUSH32 0x4E487B7100000000000000000000000000000000000000000000000000000000 PUSH1 0x0 MSTORE PUSH1 0x32 PUSH1 0x4 MSTORE PUSH1 0x24 PUSH1 0x0 REVERT JUMPDEST PUSH32 0x4E487B7100000000000000000000000000000000000000000000000000000000 PUSH1 0x0 MSTORE PUSH1 0x11 PUSH1 0x4 MSTORE PUSH1 0x24 PUSH1 0x0 REVERT JUMPDEST PUSH1 0x0 PUSH2 0x20F9 DUP3 PUSH2 0x195A JUMP JUMPDEST SWAP2 POP PUSH2 0x2104 DUP4 PUSH2 0x195A JUMP JUMPDEST SWAP3 POP DUP3 DUP3 ADD SWAP1 POP DUP1 DUP3 GT ISZERO PUSH2 0x211C JUMPI PUSH2 0x211B PUSH2 0x20BF JUMP JUMPDEST JUMPDEST SWAP3 SWAP2 POP POP JUMP JUMPDEST PUSH32 0x4E487B7100000000000000000000000000000000000000000000000000000000 PUSH1 0x0 MSTORE PUSH1 0x22 PUSH1 0x4 MSTORE PUSH1 0x24 PUSH1 0x0 REVERT JUMPDEST PUSH1 0x0 PUSH1 0x2 DUP3 DIV SWAP1 POP PUSH1 0x1 DUP3 AND DUP1 PUSH2 0x2169 JUMPI PUSH1 0x7F DUP3 AND SWAP2 POP JUMPDEST PUSH1 0x20 DUP3 LT DUP2 SUB PUSH2 0x217C JUMPI PUSH2 0x217B PUSH2 0x2122 JUMP JUMPDEST JUMPDEST POP SWAP2 SWAP1 POP JUMP JUMPDEST PUSH32 0x4F6E6C79207468652070726F6A656374206D616E616765722063616E2063616C PUSH1 0x0 DUP3 ADD MSTORE PUSH32 0x6C20746869732066756E6374696F6E2E00000000000000000000000000000000 PUSH1 0x20 DUP3 ADD MSTORE POP JUMP JUMPDEST PUSH1 0x0 PUSH2 0x21DE PUSH1 0x30 DUP4 PUSH2 0x19C8 JUMP JUMPDEST SWAP2 POP PUSH2 0x21E9 DUP3 PUSH2 0x2182 JUMP JUMPDEST PUSH1 0x40 DUP3 ADD SWAP1 POP SWAP2 SWAP1 POP JUMP JUMPDEST PUSH1 0x0 PUSH1 0x20 DUP3 ADD SWAP1 POP DUP2 DUP2 SUB PUSH1 0x0 DUP4 ADD MSTORE PUSH2 0x220D DUP2 PUSH2 0x21D1 JUMP JUMPDEST SWAP1 POP SWAP2 SWAP1 POP JUMP JUMPDEST PUSH32 0x566F74696E6720697320616C726561647920636C6F7365642E00000000000000 PUSH1 0x0 DUP3 ADD MSTORE POP JUMP JUMPDEST PUSH1 0x0 PUSH2 0x224A PUSH1 0x19 DUP4 PUSH2 0x19C8 JUMP JUMPDEST SWAP2 POP PUSH2 0x2255 DUP3 PUSH2 0x2214 JUMP JUMPDEST PUSH1 0x20 DUP3 ADD SWAP1 POP SWAP2 SWAP1 POP JUMP JUMPDEST PUSH1 0x0 PUSH1 0x20 DUP3 ADD SWAP1 POP DUP2 DUP2 SUB PUSH1 0x0 DUP4 ADD MSTORE PUSH2 0x2279 DUP2 PUSH2 0x223D JUMP JUMPDEST SWAP1 POP SWAP2 SWAP1 POP JUMP JUMPDEST PUSH32 0x4E487B7100000000000000000000000000000000000000000000000000000000 PUSH1 0x0 MSTORE PUSH1 0x41 PUSH1 0x4 MSTORE PUSH1 0x24 PUSH1 0x0 REVERT JUMPDEST PUSH1 0x0 DUP2 SWAP1 POP DUP2 PUSH1 0x0 MSTORE PUSH1 0x20 PUSH1 0x0 KECCAK256 SWAP1 POP SWAP2 SWAP1 POP JUMP JUMPDEST PUSH1 0x0 PUSH1 0x20 PUSH1 0x1F DUP4 ADD DIV SWAP1 POP SWAP2 SWAP1 POP JUMP JUMPDEST PUSH1 0x0 DUP3 DUP3 SHL SWAP1 POP SWAP3 SWAP2 POP POP JUMP JUMPDEST PUSH1 0x0 PUSH1 0x8 DUP4 MUL PUSH2 0x2311 PUSH32 0xFFFFFFFFFFFFFFFFFFFFFFFFFFFFFFFFFFFFFFFFFFFFFFFFFFFFFFFFFFFFFFFF DUP3 PUSH2 0x22D4 JUMP JUMPDEST PUSH2 0x231B DUP7 DUP4 PUSH2 0x22D4 JUMP JUMPDEST SWAP6 POP DUP1 NOT DUP5 AND SWAP4 POP DUP1 DUP7 AND DUP5 OR SWAP3 POP POP POP SWAP4 SWAP3 POP POP POP JUMP JUMPDEST PUSH1 0x0 DUP2 SWAP1 POP SWAP2 SWAP1 POP JUMP JUMPDEST PUSH1 0x0 PUSH2 0x2358 PUSH2 0x2353 PUSH2 0x234E DUP5 PUSH2 0x195A JUMP JUMPDEST PUSH2 0x2333 JUMP JUMPDEST PUSH2 0x195A JUMP JUMPDEST SWAP1 POP SWAP2 SWAP1 POP JUMP JUMPDEST PUSH1 0x0 DUP2 SWAP1 POP SWAP2 SWAP1 POP JUMP JUMPDEST PUSH2 0x2372 DUP4 PUSH2 0x233D JUMP JUMPDEST PUSH2 0x2386 PUSH2 0x237E DUP3 PUSH2 0x235F JUMP JUMPDEST DUP5 DUP5 SLOAD PUSH2 0x22E1 JUMP JUMPDEST DUP3 SSTORE POP POP POP POP JUMP JUMPDEST PUSH1 0x0 SWAP1 JUMP JUMPDEST PUSH2 0x239B PUSH2 0x238E JUMP JUMPDEST PUSH2 0x23A6 DUP2 DUP5 DUP5 PUSH2 0x2369 JUMP JUMPDEST POP POP POP JUMP JUMPDEST JUMPDEST DUP2 DUP2 LT ISZERO PUSH2 0x23CA JUMPI PUSH2 0x23BF PUSH1 0x0 DUP3 PUSH2 0x2393 JUMP JUMPDEST PUSH1 0x1 DUP2 ADD SWAP1 POP PUSH2 0x23AC JUMP JUMPDEST POP POP JUMP JUMPDEST PUSH1 0x1F DUP3 GT ISZERO PUSH2 0x240F JUMPI PUSH2 0x23E0 DUP2 PUSH2 0x22AF JUMP JUMPDEST PUSH2 0x23E9 DUP5 PUSH2 0x22C4 JUMP JUMPDEST DUP2 ADD PUSH1 0x20 DUP6 LT ISZERO PUSH2 0x23F8 JUMPI DUP2 SWAP1 POP JUMPDEST PUSH2 0x240C PUSH2 0x2404 DUP6 PUSH2 0x22C4 JUMP JUMPDEST DUP4 ADD DUP3 PUSH2 0x23AB JUMP JUMPDEST POP POP JUMPDEST POP POP POP JUMP JUMPDEST PUSH1 0x0 DUP3 DUP3 SHR SWAP1 POP SWAP3 SWAP2 POP POP JUMP JUMPDEST PUSH1 0x0 PUSH2 0x2432 PUSH1 0x0 NOT DUP5 PUSH1 0x8 MUL PUSH2 0x2414 JUMP JUMPDEST NOT DUP1 DUP4 AND SWAP2 POP POP SWAP3 SWAP2 POP POP JUMP JUMPDEST PUSH1 0x0 PUSH2 0x244B DUP4 DUP4 PUSH2 0x2421 JUMP JUMPDEST SWAP2 POP DUP3 PUSH1 0x2 MUL DUP3 OR SWAP1 POP SWAP3 SWAP2 POP POP JUMP JUMPDEST PUSH2 0x2464 DUP3 PUSH2 0x19BD JUMP JUMPDEST PUSH8 0xFFFFFFFFFFFFFFFF DUP2 GT ISZERO PUSH2 0x247D JUMPI PUSH2 0x247C PUSH2 0x2280 JUMP JUMPDEST JUMPDEST PUSH2 0x2487 DUP3 SLOAD PUSH2 0x2151 JUMP JUMPDEST PUSH2 0x2492 DUP3 DUP3 DUP6 PUSH2 0x23CE JUMP JUMPDEST PUSH1 0x0 PUSH1 0x20 SWAP1 POP PUSH1 0x1F DUP4 GT PUSH1 0x1 DUP2 EQ PUSH2 0x24C5 JUMPI PUSH1 0x0 DUP5 ISZERO PUSH2 0x24B3 JUMPI DUP3 DUP8 ADD MLOAD SWAP1 POP JUMPDEST PUSH2 0x24BD DUP6 DUP3 PUSH2 0x243F JUMP JUMPDEST DUP7 SSTORE POP PUSH2 0x2525 JUMP JUMPDEST PUSH1 0x1F NOT DUP5 AND PUSH2 0x24D3 DUP7 PUSH2 0x22AF JUMP JUMPDEST PUSH1 0x0 JUMPDEST DUP3 DUP2 LT ISZERO PUSH2 0x24FB JUMPI DUP5 DUP10 ADD MLOAD DUP3 SSTORE PUSH1 0x1 DUP3 ADD SWAP2 POP PUSH1 0x20 DUP6 ADD SWAP5 POP PUSH1 0x20 DUP2 ADD SWAP1 POP PUSH2 0x24D6 JUMP JUMPDEST DUP7 DUP4 LT ISZERO PUSH2 0x2518 JUMPI DUP5 DUP10 ADD MLOAD PUSH2 0x2514 PUSH1 0x1F DUP10 AND DUP3 PUSH2 0x2421 JUMP JUMPDEST DUP4 SSTORE POP JUMPDEST PUSH1 0x1 PUSH1 0x2 DUP9 MUL ADD DUP9 SSTORE POP POP POP JUMPDEST POP POP POP POP POP POP JUMP JUMPDEST PUSH32 0x4F6E6C792074686520636F6E7472616374206F776E65722063616E2072657365 PUSH1 0x0 DUP3 ADD MSTORE PUSH32 0x742074686520766F74652E000000000000000000000000000000000000000000 PUSH1 0x20 DUP3 ADD MSTORE POP JUMP JUMPDEST PUSH1 0x0 PUSH2 0x2589 PUSH1 0x2B DUP4 PUSH2 0x19C8 JUMP JUMPDEST SWAP2 POP PUSH2 0x2594 DUP3 PUSH2 0x252D JUMP JUMPDEST PUSH1 0x40 DUP3 ADD SWAP1 POP SWAP2 SWAP1 POP JUMP JUMPDEST PUSH1 0x0 PUSH1 0x20 DUP3 ADD SWAP1 POP DUP2 DUP2 SUB PUSH1 0x0 DUP4 ADD MSTORE PUSH2 0x25B8 DUP2 PUSH2 0x257C JUMP JUMPDEST SWAP1 POP SWAP2 SWAP1 POP JUMP JUMPDEST PUSH32 0x566F74696E672070726F63657373206973207374696C6C206F70656E2E000000 PUSH1 0x0 DUP3 ADD MSTORE POP JUMP JUMPDEST PUSH1 0x0 PUSH2 0x25F5 PUSH1 0x1D DUP4 PUSH2 0x19C8 JUMP JUMPDEST SWAP2 POP PUSH2 0x2600 DUP3 PUSH2 0x25BF JUMP JUMPDEST PUSH1 0x20 DUP3 ADD SWAP1 POP SWAP2 SWAP1 POP JUMP JUMPDEST PUSH1 0x0 PUSH1 0x20 DUP3 ADD SWAP1 POP DUP2 DUP2 SUB PUSH1 0x0 DUP4 ADD MSTORE PUSH2 0x2624 DUP2 PUSH2 0x25E8 JUMP JUMPDEST SWAP1 POP SWAP2 SWAP1 POP JUMP JUMPDEST PUSH32 0x4E6F2066756E647320746F2077697468647261772E0000000000000000000000 PUSH1 0x0 DUP3 ADD MSTORE POP JUMP JUMPDEST PUSH1 0x0 PUSH2 0x2661 PUSH1 0x15 DUP4 PUSH2 0x19C8 JUMP JUMPDEST SWAP2 POP PUSH2 0x266C DUP3 PUSH2 0x262B JUMP JUMPDEST PUSH1 0x20 DUP3 ADD SWAP1 POP SWAP2 SWAP1 POP JUMP JUMPDEST PUSH1 0x0 PUSH1 0x20 DUP3 ADD SWAP1 POP DUP2 DUP2 SUB PUSH1 0x0 DUP4 ADD MSTORE PUSH2 0x2690 DUP2 PUSH2 0x2654 JUMP JUMPDEST SWAP1 POP SWAP2 SWAP1 POP JUMP JUMPDEST PUSH1 0x0 PUSH2 0x26A2 DUP3 PUSH2 0x195A JUMP JUMPDEST SWAP2 POP PUSH2 0x26AD DUP4 PUSH2 0x195A JUMP JUMPDEST SWAP3 POP DUP3 DUP3 SUB SWAP1 POP DUP2 DUP2 GT ISZERO PUSH2 0x26C5 JUMPI PUSH2 0x26C4 PUSH2 0x20BF JUMP JUMPDEST JUMPDEST SWAP3 SWAP2 POP POP JUMP JUMPDEST PUSH32 0x4E6577206F776E657220616464726573732063616E6E6F74206265207A65726F PUSH1 0x0 DUP3 ADD MSTORE POP JUMP JUMPDEST PUSH1 0x0 PUSH2 0x2701 PUSH1 0x20 DUP4 PUSH2 0x19C8 JUMP JUMPDEST SWAP2 POP PUSH2 0x270C DUP3 PUSH2 0x26CB JUMP JUMPDEST PUSH1 0x20 DUP3 ADD SWAP1 POP SWAP2 SWAP1 POP JUMP JUMPDEST PUSH1 0x0 PUSH1 0x20 DUP3 ADD SWAP1 POP DUP2 DUP2 SUB PUSH1 0x0 DUP4 ADD MSTORE PUSH2 0x2730 DUP2 PUSH2 0x26F4 JUMP JUMPDEST SWAP1 POP SWAP2 SWAP1 POP JUMP JUMPDEST PUSH1 0x0 PUSH2 0x2742 DUP3 PUSH2 0x195A JUMP JUMPDEST SWAP2 POP PUSH32 0xFFFFFFFFFFFFFFFFFFFFFFFFFFFFFFFFFFFFFFFFFFFFFFFFFFFFFFFFFFFFFFFF DUP3 SUB PUSH2 0x2774 JUMPI PUSH2 0x2773 PUSH2 0x20BF JUMP JUMPDEST JUMPDEST PUSH1 0x1 DUP3 ADD SWAP1 POP SWAP2 SWAP1 POP JUMP JUMPDEST PUSH32 0x4E487B7100000000000000000000000000000000000000000000000000000000 PUSH1 0x0 MSTORE PUSH1 0x12 PUSH1 0x4 MSTORE PUSH1 0x24 PUSH1 0x0 REVERT JUMPDEST PUSH1 0x0 PUSH2 0x27B9 DUP3 PUSH2 0x195A JUMP JUMPDEST SWAP2 POP PUSH2 0x27C4 DUP4 PUSH2 0x195A JUMP JUMPDEST SWAP3 POP DUP3 PUSH2 0x27D4 JUMPI PUSH2 0x27D3 PUSH2 0x277F JUMP JUMPDEST JUMPDEST DUP3 DUP3 MOD SWAP1 POP SWAP3 SWAP2 POP POP JUMP INVALID LOG2 PUSH5 0x6970667358 0x22 SLT KECCAK256 0xF 0xFB KECCAK256 RETURNDATASIZE PUSH28 0x8CF012C544B35FA99BE73E24B5F537B22B5F31165D4DE619024EC264 PUSH20 0x6F6C634300081900330000000000000000000000 "
				},
				"gasEstimates": {
					"creation": {
						"codeDepositCost": "2052200",
						"executionCost": "infinite",
						"totalCost": "infinite"
					},
					"external": {
						"changeOwner(address)": "29174",
						"declareWinner()": "infinite",
						"destroyContract()": "infinite",
						"getRecentResults()": "infinite",
						"getUserVotes(address)": "infinite",
						"getVoteCount(uint256)": "infinite",
						"isDestroyed()": "2543",
						"projectManager()": "2579",
						"proposals(uint256)": "infinite",
						"resetVote()": "infinite",
						"vote(uint256)": "infinite",
						"voters(uint256)": "5066",
						"votesPerVoter(address)": "2903",
						"votingClosed()": "2566",
						"votingOpen()": "4804",
						"votingRounds(uint256)": "infinite",
						"withdraw()": "infinite"
					},
					"internal": {
						"drawTie()": "infinite"
					}
				},
				"methodIdentifiers": {
					"changeOwner(address)": "a6f9dae1",
					"declareWinner()": "14034bd2",
					"destroyContract()": "092a5cce",
					"getRecentResults()": "2e130964",
					"getUserVotes(address)": "950c7822",
					"getVoteCount(uint256)": "b2c2f2e8",
					"isDestroyed()": "a6151a84",
					"projectManager()": "029eb76e",
					"proposals(uint256)": "013cf08b",
					"resetVote()": "329a8cfa",
					"vote(uint256)": "0121b93f",
					"voters(uint256)": "da58c7d9",
					"votesPerVoter(address)": "9753f432",
					"votingClosed()": "2479ecb8",
					"votingOpen()": "a95824b4",
					"votingRounds(uint256)": "36704f5e",
					"withdraw()": "3ccfd60b"
				}
			},
			"storageLayout": {
				"storage": [
					{
						"astId": 3,
						"contract": "web/DAppVoting.sol:Voting",
						"label": "projectManager",
						"offset": 0,
						"slot": "0",
						"type": "t_address"
					},
					{
						"astId": 11,
						"contract": "web/DAppVoting.sol:Voting",
						"label": "votingClosed",
						"offset": 20,
						"slot": "0",
						"type": "t_bool"
					},
					{
						"astId": 23,
						"contract": "web/DAppVoting.sol:Voting",
						"label": "isDestroyed",
						"offset": 21,
						"slot": "0",
						"type": "t_bool"
					},
					{
						"astId": 39,
						"contract": "web/DAppVoting.sol:Voting",
						"label": "proposals",
						"offset": 0,
						"slot": "1",
						"type": "t_array(t_struct(Proposal)28_storage)dyn_storage"
					},
					{
						"astId": 43,
						"contract": "web/DAppVoting.sol:Voting",
						"label": "votingRounds",
						"offset": 0,
						"slot": "2",
						"type": "t_array(t_struct(VotingRound)35_storage)dyn_storage"
					},
					{
						"astId": 47,
						"contract": "web/DAppVoting.sol:Voting",
						"label": "votesPerVoter",
						"offset": 0,
						"slot": "3",
						"type": "t_mapping(t_address,t_uint256)"
					},
					{
						"astId": 50,
						"contract": "web/DAppVoting.sol:Voting",
						"label": "voters",
						"offset": 0,
						"slot": "4",
						"type": "t_array(t_address)dyn_storage"
					}
				],
				"types": {
					"t_address": {
						"encoding": "inplace",
						"label": "address",
						"numberOfBytes": "20"
					},
					"t_array(t_address)dyn_storage": {
						"base": "t_address",
						"encoding": "dynamic_array",
						"label": "address[]",
						"numberOfBytes": "32"
					},
					"t_array(t_struct(Proposal)28_storage)dyn_storage": {
						"base": "t_struct(Proposal)28_storage",
						"encoding": "dynamic_array",
						"label": "struct Voting.Proposal[]",
						"numberOfBytes": "32"
					},
					"t_array(t_struct(VotingRound)35_storage)dyn_storage": {
						"base": "t_struct(VotingRound)35_storage",
						"encoding": "dynamic_array",
						"label": "struct Voting.VotingRound[]",
						"numberOfBytes": "32"
					},
					"t_bool": {
						"encoding": "inplace",
						"label": "bool",
						"numberOfBytes": "1"
					},
					"t_mapping(t_address,t_uint256)": {
						"encoding": "mapping",
						"key": "t_address",
						"label": "mapping(address => uint256)",
						"numberOfBytes": "32",
						"value": "t_uint256"
					},
					"t_string_storage": {
						"encoding": "bytes",
						"label": "string",
						"numberOfBytes": "32"
					},
					"t_struct(Proposal)28_storage": {
						"encoding": "inplace",
						"label": "struct Voting.Proposal",
						"members": [
							{
								"astId": 25,
								"contract": "web/DAppVoting.sol:Voting",
								"label": "name",
								"offset": 0,
								"slot": "0",
								"type": "t_string_storage"
							},
							{
								"astId": 27,
								"contract": "web/DAppVoting.sol:Voting",
								"label": "voteCount",
								"offset": 0,
								"slot": "1",
								"type": "t_uint256"
							}
						],
						"numberOfBytes": "64"
					},
					"t_struct(VotingRound)35_storage": {
						"encoding": "inplace",
						"label": "struct Voting.VotingRound",
						"members": [
							{
								"astId": 30,
								"contract": "web/DAppVoting.sol:Voting",
								"label": "roundNumber",
								"offset": 0,
								"slot": "0",
								"type": "t_uint256"
							},
							{
								"astId": 32,
								"contract": "web/DAppVoting.sol:Voting",
								"label": "winnerName",
								"offset": 0,
								"slot": "1",
								"type": "t_string_storage"
							},
							{
								"astId": 34,
								"contract": "web/DAppVoting.sol:Voting",
								"label": "winningVoteCount",
								"offset": 0,
								"slot": "2",
								"type": "t_uint256"
							}
						],
						"numberOfBytes": "96"
					},
					"t_uint256": {
						"encoding": "inplace",
						"label": "uint256",
						"numberOfBytes": "32"
					}
				}
			},
			"userdoc": {
				"kind": "user",
				"methods": {},
				"version": 1
			}
		}
	}
}